{
  "_format": "hh-sol-artifact-1",
  "contractName": "OrderBook",
  "sourceName": "contracts/core/OrderBook.sol",
  "abi": [
    {
      "inputs": [],
      "stateMutability": "nonpayable",
      "type": "constructor"
    },
    {
      "anonymous": false,
      "inputs": [
        {
          "indexed": true,
          "internalType": "address",
          "name": "account",
          "type": "address"
        },
        {
          "indexed": false,
          "internalType": "uint256",
          "name": "orderIndex",
          "type": "uint256"
        },
        {
          "indexed": false,
          "internalType": "address",
          "name": "collateralToken",
          "type": "address"
        },
        {
          "indexed": false,
          "internalType": "uint256",
          "name": "collateralDelta",
          "type": "uint256"
        },
        {
          "indexed": false,
          "internalType": "address",
          "name": "indexToken",
          "type": "address"
        },
        {
          "indexed": false,
          "internalType": "uint256",
          "name": "sizeDelta",
          "type": "uint256"
        },
        {
          "indexed": false,
          "internalType": "bool",
          "name": "isLong",
          "type": "bool"
        },
        {
          "indexed": false,
          "internalType": "uint256",
          "name": "triggerPrice",
          "type": "uint256"
        },
        {
          "indexed": false,
          "internalType": "bool",
          "name": "triggerAboveThreshold",
          "type": "bool"
        },
        {
          "indexed": false,
          "internalType": "uint256",
          "name": "executionFee",
          "type": "uint256"
        }
      ],
      "name": "CancelDecreaseOrder",
      "type": "event"
    },
    {
      "anonymous": false,
      "inputs": [
        {
          "indexed": true,
          "internalType": "address",
          "name": "account",
          "type": "address"
        },
        {
          "indexed": false,
          "internalType": "uint256",
          "name": "orderIndex",
          "type": "uint256"
        },
        {
          "indexed": false,
          "internalType": "address",
          "name": "purchaseToken",
          "type": "address"
        },
        {
          "indexed": false,
          "internalType": "uint256",
          "name": "purchaseTokenAmount",
          "type": "uint256"
        },
        {
          "indexed": false,
          "internalType": "address",
          "name": "collateralToken",
          "type": "address"
        },
        {
          "indexed": false,
          "internalType": "address",
          "name": "indexToken",
          "type": "address"
        },
        {
          "indexed": false,
          "internalType": "uint256",
          "name": "sizeDelta",
          "type": "uint256"
        },
        {
          "indexed": false,
          "internalType": "bool",
          "name": "isLong",
          "type": "bool"
        },
        {
          "indexed": false,
          "internalType": "uint256",
          "name": "triggerPrice",
          "type": "uint256"
        },
        {
          "indexed": false,
          "internalType": "bool",
          "name": "triggerAboveThreshold",
          "type": "bool"
        },
        {
          "indexed": false,
          "internalType": "uint256",
          "name": "executionFee",
          "type": "uint256"
        }
      ],
      "name": "CancelIncreaseOrder",
      "type": "event"
    },
    {
      "anonymous": false,
      "inputs": [
        {
          "indexed": true,
          "internalType": "address",
          "name": "account",
          "type": "address"
        },
        {
          "indexed": false,
          "internalType": "uint256",
          "name": "orderIndex",
          "type": "uint256"
        },
        {
          "indexed": false,
          "internalType": "address[]",
          "name": "path",
          "type": "address[]"
        },
        {
          "indexed": false,
          "internalType": "uint256",
          "name": "amountIn",
          "type": "uint256"
        },
        {
          "indexed": false,
          "internalType": "uint256",
          "name": "minOut",
          "type": "uint256"
        },
        {
          "indexed": false,
          "internalType": "uint256",
          "name": "triggerRatio",
          "type": "uint256"
        },
        {
          "indexed": false,
          "internalType": "bool",
          "name": "triggerAboveThreshold",
          "type": "bool"
        },
        {
          "indexed": false,
          "internalType": "bool",
          "name": "shouldUnwrap",
          "type": "bool"
        },
        {
          "indexed": false,
          "internalType": "uint256",
          "name": "executionFee",
          "type": "uint256"
        }
      ],
      "name": "CancelSwapOrder",
      "type": "event"
    },
    {
      "anonymous": false,
      "inputs": [
        {
          "indexed": true,
          "internalType": "address",
          "name": "account",
          "type": "address"
        },
        {
          "indexed": false,
          "internalType": "uint256",
          "name": "orderIndex",
          "type": "uint256"
        },
        {
          "indexed": false,
          "internalType": "address",
          "name": "collateralToken",
          "type": "address"
        },
        {
          "indexed": false,
          "internalType": "uint256",
          "name": "collateralDelta",
          "type": "uint256"
        },
        {
          "indexed": false,
          "internalType": "address",
          "name": "indexToken",
          "type": "address"
        },
        {
          "indexed": false,
          "internalType": "uint256",
          "name": "sizeDelta",
          "type": "uint256"
        },
        {
          "indexed": false,
          "internalType": "bool",
          "name": "isLong",
          "type": "bool"
        },
        {
          "indexed": false,
          "internalType": "uint256",
          "name": "triggerPrice",
          "type": "uint256"
        },
        {
          "indexed": false,
          "internalType": "bool",
          "name": "triggerAboveThreshold",
          "type": "bool"
        },
        {
          "indexed": false,
          "internalType": "uint256",
          "name": "executionFee",
          "type": "uint256"
        }
      ],
      "name": "CreateDecreaseOrder",
      "type": "event"
    },
    {
      "anonymous": false,
      "inputs": [
        {
          "indexed": true,
          "internalType": "address",
          "name": "account",
          "type": "address"
        },
        {
          "indexed": false,
          "internalType": "uint256",
          "name": "orderIndex",
          "type": "uint256"
        },
        {
          "indexed": false,
          "internalType": "address",
          "name": "purchaseToken",
          "type": "address"
        },
        {
          "indexed": false,
          "internalType": "uint256",
          "name": "purchaseTokenAmount",
          "type": "uint256"
        },
        {
          "indexed": false,
          "internalType": "address",
          "name": "collateralToken",
          "type": "address"
        },
        {
          "indexed": false,
          "internalType": "address",
          "name": "indexToken",
          "type": "address"
        },
        {
          "indexed": false,
          "internalType": "uint256",
          "name": "sizeDelta",
          "type": "uint256"
        },
        {
          "indexed": false,
          "internalType": "bool",
          "name": "isLong",
          "type": "bool"
        },
        {
          "indexed": false,
          "internalType": "uint256",
          "name": "triggerPrice",
          "type": "uint256"
        },
        {
          "indexed": false,
          "internalType": "bool",
          "name": "triggerAboveThreshold",
          "type": "bool"
        },
        {
          "indexed": false,
          "internalType": "uint256",
          "name": "executionFee",
          "type": "uint256"
        }
      ],
      "name": "CreateIncreaseOrder",
      "type": "event"
    },
    {
      "anonymous": false,
      "inputs": [
        {
          "indexed": true,
          "internalType": "address",
          "name": "account",
          "type": "address"
        },
        {
          "indexed": false,
          "internalType": "uint256",
          "name": "orderIndex",
          "type": "uint256"
        },
        {
          "indexed": false,
          "internalType": "address[]",
          "name": "path",
          "type": "address[]"
        },
        {
          "indexed": false,
          "internalType": "uint256",
          "name": "amountIn",
          "type": "uint256"
        },
        {
          "indexed": false,
          "internalType": "uint256",
          "name": "minOut",
          "type": "uint256"
        },
        {
          "indexed": false,
          "internalType": "uint256",
          "name": "triggerRatio",
          "type": "uint256"
        },
        {
          "indexed": false,
          "internalType": "bool",
          "name": "triggerAboveThreshold",
          "type": "bool"
        },
        {
          "indexed": false,
          "internalType": "bool",
          "name": "shouldUnwrap",
          "type": "bool"
        },
        {
          "indexed": false,
          "internalType": "uint256",
          "name": "executionFee",
          "type": "uint256"
        }
      ],
      "name": "CreateSwapOrder",
      "type": "event"
    },
    {
      "anonymous": false,
      "inputs": [
        {
          "indexed": true,
          "internalType": "address",
          "name": "account",
          "type": "address"
        },
        {
          "indexed": false,
          "internalType": "uint256",
          "name": "orderIndex",
          "type": "uint256"
        },
        {
          "indexed": false,
          "internalType": "address",
          "name": "collateralToken",
          "type": "address"
        },
        {
          "indexed": false,
          "internalType": "uint256",
          "name": "collateralDelta",
          "type": "uint256"
        },
        {
          "indexed": false,
          "internalType": "address",
          "name": "indexToken",
          "type": "address"
        },
        {
          "indexed": false,
          "internalType": "uint256",
          "name": "sizeDelta",
          "type": "uint256"
        },
        {
          "indexed": false,
          "internalType": "bool",
          "name": "isLong",
          "type": "bool"
        },
        {
          "indexed": false,
          "internalType": "uint256",
          "name": "triggerPrice",
          "type": "uint256"
        },
        {
          "indexed": false,
          "internalType": "bool",
          "name": "triggerAboveThreshold",
          "type": "bool"
        },
        {
          "indexed": false,
          "internalType": "uint256",
          "name": "executionFee",
          "type": "uint256"
        },
        {
          "indexed": false,
          "internalType": "uint256",
          "name": "executionPrice",
          "type": "uint256"
        }
      ],
      "name": "ExecuteDecreaseOrder",
      "type": "event"
    },
    {
      "anonymous": false,
      "inputs": [
        {
          "indexed": true,
          "internalType": "address",
          "name": "account",
          "type": "address"
        },
        {
          "indexed": false,
          "internalType": "uint256",
          "name": "orderIndex",
          "type": "uint256"
        },
        {
          "indexed": false,
          "internalType": "address",
          "name": "purchaseToken",
          "type": "address"
        },
        {
          "indexed": false,
          "internalType": "uint256",
          "name": "purchaseTokenAmount",
          "type": "uint256"
        },
        {
          "indexed": false,
          "internalType": "address",
          "name": "collateralToken",
          "type": "address"
        },
        {
          "indexed": false,
          "internalType": "address",
          "name": "indexToken",
          "type": "address"
        },
        {
          "indexed": false,
          "internalType": "uint256",
          "name": "sizeDelta",
          "type": "uint256"
        },
        {
          "indexed": false,
          "internalType": "bool",
          "name": "isLong",
          "type": "bool"
        },
        {
          "indexed": false,
          "internalType": "uint256",
          "name": "triggerPrice",
          "type": "uint256"
        },
        {
          "indexed": false,
          "internalType": "bool",
          "name": "triggerAboveThreshold",
          "type": "bool"
        },
        {
          "indexed": false,
          "internalType": "uint256",
          "name": "executionFee",
          "type": "uint256"
        },
        {
          "indexed": false,
          "internalType": "uint256",
          "name": "executionPrice",
          "type": "uint256"
        }
      ],
      "name": "ExecuteIncreaseOrder",
      "type": "event"
    },
    {
      "anonymous": false,
      "inputs": [
        {
          "indexed": true,
          "internalType": "address",
          "name": "account",
          "type": "address"
        },
        {
          "indexed": false,
          "internalType": "uint256",
          "name": "orderIndex",
          "type": "uint256"
        },
        {
          "indexed": false,
          "internalType": "address[]",
          "name": "path",
          "type": "address[]"
        },
        {
          "indexed": false,
          "internalType": "uint256",
          "name": "amountIn",
          "type": "uint256"
        },
        {
          "indexed": false,
          "internalType": "uint256",
          "name": "minOut",
          "type": "uint256"
        },
        {
          "indexed": false,
          "internalType": "uint256",
          "name": "amountOut",
          "type": "uint256"
        },
        {
          "indexed": false,
          "internalType": "uint256",
          "name": "triggerRatio",
          "type": "uint256"
        },
        {
          "indexed": false,
          "internalType": "bool",
          "name": "triggerAboveThreshold",
          "type": "bool"
        },
        {
          "indexed": false,
          "internalType": "bool",
          "name": "shouldUnwrap",
          "type": "bool"
        },
        {
          "indexed": false,
          "internalType": "uint256",
          "name": "executionFee",
          "type": "uint256"
        }
      ],
      "name": "ExecuteSwapOrder",
      "type": "event"
    },
    {
      "anonymous": false,
      "inputs": [
        {
          "indexed": false,
          "internalType": "address",
          "name": "router",
          "type": "address"
        },
        {
          "indexed": false,
          "internalType": "address",
          "name": "vault",
          "type": "address"
        },
        {
          "indexed": false,
          "internalType": "address",
          "name": "weth",
          "type": "address"
        },
        {
          "indexed": false,
          "internalType": "address",
          "name": "usdg",
          "type": "address"
        },
        {
          "indexed": false,
          "internalType": "uint256",
          "name": "minExecutionFee",
          "type": "uint256"
        },
        {
          "indexed": false,
          "internalType": "uint256",
          "name": "minPurchaseTokenAmountUsd",
          "type": "uint256"
        }
      ],
      "name": "Initialize",
      "type": "event"
    },
    {
      "anonymous": false,
      "inputs": [
        {
          "indexed": true,
          "internalType": "address",
          "name": "account",
          "type": "address"
        },
        {
          "indexed": false,
          "internalType": "uint256",
          "name": "orderIndex",
          "type": "uint256"
        },
        {
          "indexed": false,
          "internalType": "address",
          "name": "collateralToken",
          "type": "address"
        },
        {
          "indexed": false,
          "internalType": "uint256",
          "name": "collateralDelta",
          "type": "uint256"
        },
        {
          "indexed": false,
          "internalType": "address",
          "name": "indexToken",
          "type": "address"
        },
        {
          "indexed": false,
          "internalType": "uint256",
          "name": "sizeDelta",
          "type": "uint256"
        },
        {
          "indexed": false,
          "internalType": "bool",
          "name": "isLong",
          "type": "bool"
        },
        {
          "indexed": false,
          "internalType": "uint256",
          "name": "triggerPrice",
          "type": "uint256"
        },
        {
          "indexed": false,
          "internalType": "bool",
          "name": "triggerAboveThreshold",
          "type": "bool"
        }
      ],
      "name": "UpdateDecreaseOrder",
      "type": "event"
    },
    {
      "anonymous": false,
      "inputs": [
        {
          "indexed": false,
          "internalType": "address",
          "name": "gov",
          "type": "address"
        }
      ],
      "name": "UpdateGov",
      "type": "event"
    },
    {
      "anonymous": false,
      "inputs": [
        {
          "indexed": true,
          "internalType": "address",
          "name": "account",
          "type": "address"
        },
        {
          "indexed": false,
          "internalType": "uint256",
          "name": "orderIndex",
          "type": "uint256"
        },
        {
          "indexed": false,
          "internalType": "address",
          "name": "collateralToken",
          "type": "address"
        },
        {
          "indexed": false,
          "internalType": "address",
          "name": "indexToken",
          "type": "address"
        },
        {
          "indexed": false,
          "internalType": "bool",
          "name": "isLong",
          "type": "bool"
        },
        {
          "indexed": false,
          "internalType": "uint256",
          "name": "sizeDelta",
          "type": "uint256"
        },
        {
          "indexed": false,
          "internalType": "uint256",
          "name": "triggerPrice",
          "type": "uint256"
        },
        {
          "indexed": false,
          "internalType": "bool",
          "name": "triggerAboveThreshold",
          "type": "bool"
        }
      ],
      "name": "UpdateIncreaseOrder",
      "type": "event"
    },
    {
      "anonymous": false,
      "inputs": [
        {
          "indexed": false,
          "internalType": "uint256",
          "name": "minExecutionFee",
          "type": "uint256"
        }
      ],
      "name": "UpdateMinExecutionFee",
      "type": "event"
    },
    {
      "anonymous": false,
      "inputs": [
        {
          "indexed": false,
          "internalType": "uint256",
          "name": "minPurchaseTokenAmountUsd",
          "type": "uint256"
        }
      ],
      "name": "UpdateMinPurchaseTokenAmountUsd",
      "type": "event"
    },
    {
      "anonymous": false,
      "inputs": [
        {
          "indexed": true,
          "internalType": "address",
          "name": "account",
          "type": "address"
        },
        {
          "indexed": false,
          "internalType": "uint256",
          "name": "ordexIndex",
          "type": "uint256"
        },
        {
          "indexed": false,
          "internalType": "address[]",
          "name": "path",
          "type": "address[]"
        },
        {
          "indexed": false,
          "internalType": "uint256",
          "name": "amountIn",
          "type": "uint256"
        },
        {
          "indexed": false,
          "internalType": "uint256",
          "name": "minOut",
          "type": "uint256"
        },
        {
          "indexed": false,
          "internalType": "uint256",
          "name": "triggerRatio",
          "type": "uint256"
        },
        {
          "indexed": false,
          "internalType": "bool",
          "name": "triggerAboveThreshold",
          "type": "bool"
        },
        {
          "indexed": false,
          "internalType": "bool",
          "name": "shouldUnwrap",
          "type": "bool"
        },
        {
          "indexed": false,
          "internalType": "uint256",
          "name": "executionFee",
          "type": "uint256"
        }
      ],
      "name": "UpdateSwapOrder",
      "type": "event"
    },
    {
      "inputs": [],
      "name": "PRICE_PRECISION",
      "outputs": [
        {
          "internalType": "uint256",
          "name": "",
          "type": "uint256"
        }
      ],
      "stateMutability": "view",
      "type": "function"
    },
    {
      "inputs": [],
      "name": "USDG_PRECISION",
      "outputs": [
        {
          "internalType": "uint256",
          "name": "",
          "type": "uint256"
        }
      ],
      "stateMutability": "view",
      "type": "function"
    },
    {
      "inputs": [
        {
          "internalType": "uint256",
          "name": "_orderIndex",
          "type": "uint256"
        }
      ],
      "name": "cancelDecreaseOrder",
      "outputs": [],
      "stateMutability": "nonpayable",
      "type": "function"
    },
    {
      "inputs": [
        {
          "internalType": "uint256",
          "name": "_orderIndex",
          "type": "uint256"
        }
      ],
      "name": "cancelIncreaseOrder",
      "outputs": [],
      "stateMutability": "nonpayable",
      "type": "function"
    },
    {
      "inputs": [
        {
          "internalType": "uint256[]",
          "name": "_swapOrderIndexes",
          "type": "uint256[]"
        },
        {
          "internalType": "uint256[]",
          "name": "_increaseOrderIndexes",
          "type": "uint256[]"
        },
        {
          "internalType": "uint256[]",
          "name": "_decreaseOrderIndexes",
          "type": "uint256[]"
        }
      ],
      "name": "cancelMultiple",
      "outputs": [],
      "stateMutability": "nonpayable",
      "type": "function"
    },
    {
      "inputs": [
        {
          "internalType": "uint256",
          "name": "_orderIndex",
          "type": "uint256"
        }
      ],
      "name": "cancelSwapOrder",
      "outputs": [],
      "stateMutability": "nonpayable",
      "type": "function"
    },
    {
      "inputs": [
        {
          "internalType": "address",
          "name": "_indexToken",
          "type": "address"
        },
        {
          "internalType": "uint256",
          "name": "_sizeDelta",
          "type": "uint256"
        },
        {
          "internalType": "address",
          "name": "_collateralToken",
          "type": "address"
        },
        {
          "internalType": "uint256",
          "name": "_collateralDelta",
          "type": "uint256"
        },
        {
          "internalType": "bool",
          "name": "_isLong",
          "type": "bool"
        },
        {
          "internalType": "uint256",
          "name": "_triggerPrice",
          "type": "uint256"
        },
        {
          "internalType": "bool",
          "name": "_triggerAboveThreshold",
          "type": "bool"
        }
      ],
      "name": "createDecreaseOrder",
      "outputs": [],
      "stateMutability": "payable",
      "type": "function"
    },
    {
      "inputs": [
        {
          "internalType": "address[]",
          "name": "_path",
          "type": "address[]"
        },
        {
          "internalType": "uint256",
          "name": "_amountIn",
          "type": "uint256"
        },
        {
          "internalType": "address",
          "name": "_indexToken",
          "type": "address"
        },
        {
          "internalType": "uint256",
          "name": "_minOut",
          "type": "uint256"
        },
        {
          "internalType": "uint256",
          "name": "_sizeDelta",
          "type": "uint256"
        },
        {
          "internalType": "address",
          "name": "_collateralToken",
          "type": "address"
        },
        {
          "internalType": "bool",
          "name": "_isLong",
          "type": "bool"
        },
        {
          "internalType": "uint256",
          "name": "_triggerPrice",
          "type": "uint256"
        },
        {
          "internalType": "bool",
          "name": "_triggerAboveThreshold",
          "type": "bool"
        },
        {
          "internalType": "uint256",
          "name": "_executionFee",
          "type": "uint256"
        },
        {
          "internalType": "bool",
          "name": "_shouldWrap",
          "type": "bool"
        }
      ],
      "name": "createIncreaseOrder",
      "outputs": [],
      "stateMutability": "payable",
      "type": "function"
    },
    {
      "inputs": [
        {
          "internalType": "address[]",
          "name": "_path",
          "type": "address[]"
        },
        {
          "internalType": "uint256",
          "name": "_amountIn",
          "type": "uint256"
        },
        {
          "internalType": "uint256",
          "name": "_minOut",
          "type": "uint256"
        },
        {
          "internalType": "uint256",
          "name": "_triggerRatio",
          "type": "uint256"
        },
        {
          "internalType": "bool",
          "name": "_triggerAboveThreshold",
          "type": "bool"
        },
        {
          "internalType": "uint256",
          "name": "_executionFee",
          "type": "uint256"
        },
        {
          "internalType": "bool",
          "name": "_shouldWrap",
          "type": "bool"
        },
        {
          "internalType": "bool",
          "name": "_shouldUnwrap",
          "type": "bool"
        }
      ],
      "name": "createSwapOrder",
      "outputs": [],
      "stateMutability": "payable",
      "type": "function"
    },
    {
      "inputs": [
        {
          "internalType": "address",
          "name": "",
          "type": "address"
        },
        {
          "internalType": "uint256",
          "name": "",
          "type": "uint256"
        }
      ],
      "name": "decreaseOrders",
      "outputs": [
        {
          "internalType": "address",
          "name": "account",
          "type": "address"
        },
        {
          "internalType": "address",
          "name": "collateralToken",
          "type": "address"
        },
        {
          "internalType": "uint256",
          "name": "collateralDelta",
          "type": "uint256"
        },
        {
          "internalType": "address",
          "name": "indexToken",
          "type": "address"
        },
        {
          "internalType": "uint256",
          "name": "sizeDelta",
          "type": "uint256"
        },
        {
          "internalType": "bool",
          "name": "isLong",
          "type": "bool"
        },
        {
          "internalType": "uint256",
          "name": "triggerPrice",
          "type": "uint256"
        },
        {
          "internalType": "bool",
          "name": "triggerAboveThreshold",
          "type": "bool"
        },
        {
          "internalType": "uint256",
          "name": "executionFee",
          "type": "uint256"
        }
      ],
      "stateMutability": "view",
      "type": "function"
    },
    {
      "inputs": [
        {
          "internalType": "address",
          "name": "",
          "type": "address"
        }
      ],
      "name": "decreaseOrdersIndex",
      "outputs": [
        {
          "internalType": "uint256",
          "name": "",
          "type": "uint256"
        }
      ],
      "stateMutability": "view",
      "type": "function"
    },
    {
      "inputs": [
        {
          "internalType": "address",
          "name": "_address",
          "type": "address"
        },
        {
          "internalType": "uint256",
          "name": "_orderIndex",
          "type": "uint256"
        },
        {
          "internalType": "address payable",
          "name": "_feeReceiver",
          "type": "address"
        }
      ],
      "name": "executeDecreaseOrder",
      "outputs": [],
      "stateMutability": "nonpayable",
      "type": "function"
    },
    {
      "inputs": [
        {
          "internalType": "address",
          "name": "_address",
          "type": "address"
        },
        {
          "internalType": "uint256",
          "name": "_orderIndex",
          "type": "uint256"
        },
        {
          "internalType": "address payable",
          "name": "_feeReceiver",
          "type": "address"
        }
      ],
      "name": "executeIncreaseOrder",
      "outputs": [],
      "stateMutability": "nonpayable",
      "type": "function"
    },
    {
      "inputs": [
        {
          "internalType": "address",
          "name": "_account",
          "type": "address"
        },
        {
          "internalType": "uint256",
          "name": "_orderIndex",
          "type": "uint256"
        },
        {
          "internalType": "address payable",
          "name": "_feeReceiver",
          "type": "address"
        }
      ],
      "name": "executeSwapOrder",
      "outputs": [],
      "stateMutability": "nonpayable",
      "type": "function"
    },
    {
      "inputs": [
        {
          "internalType": "address",
          "name": "_account",
          "type": "address"
        },
        {
          "internalType": "uint256",
          "name": "_orderIndex",
          "type": "uint256"
        }
      ],
      "name": "getDecreaseOrder",
      "outputs": [
        {
          "internalType": "address",
          "name": "collateralToken",
          "type": "address"
        },
        {
          "internalType": "uint256",
          "name": "collateralDelta",
          "type": "uint256"
        },
        {
          "internalType": "address",
          "name": "indexToken",
          "type": "address"
        },
        {
          "internalType": "uint256",
          "name": "sizeDelta",
          "type": "uint256"
        },
        {
          "internalType": "bool",
          "name": "isLong",
          "type": "bool"
        },
        {
          "internalType": "uint256",
          "name": "triggerPrice",
          "type": "uint256"
        },
        {
          "internalType": "bool",
          "name": "triggerAboveThreshold",
          "type": "bool"
        },
        {
          "internalType": "uint256",
          "name": "executionFee",
          "type": "uint256"
        }
      ],
      "stateMutability": "view",
      "type": "function"
    },
    {
      "inputs": [
        {
          "internalType": "address",
          "name": "_account",
          "type": "address"
        },
        {
          "internalType": "uint256",
          "name": "_orderIndex",
          "type": "uint256"
        }
      ],
      "name": "getIncreaseOrder",
      "outputs": [
        {
          "internalType": "address",
          "name": "purchaseToken",
          "type": "address"
        },
        {
          "internalType": "uint256",
          "name": "purchaseTokenAmount",
          "type": "uint256"
        },
        {
          "internalType": "address",
          "name": "collateralToken",
          "type": "address"
        },
        {
          "internalType": "address",
          "name": "indexToken",
          "type": "address"
        },
        {
          "internalType": "uint256",
          "name": "sizeDelta",
          "type": "uint256"
        },
        {
          "internalType": "bool",
          "name": "isLong",
          "type": "bool"
        },
        {
          "internalType": "uint256",
          "name": "triggerPrice",
          "type": "uint256"
        },
        {
          "internalType": "bool",
          "name": "triggerAboveThreshold",
          "type": "bool"
        },
        {
          "internalType": "uint256",
          "name": "executionFee",
          "type": "uint256"
        }
      ],
      "stateMutability": "view",
      "type": "function"
    },
    {
      "inputs": [
        {
          "internalType": "address",
          "name": "_account",
          "type": "address"
        },
        {
          "internalType": "uint256",
          "name": "_orderIndex",
          "type": "uint256"
        }
      ],
      "name": "getSwapOrder",
      "outputs": [
        {
          "internalType": "address",
          "name": "path0",
          "type": "address"
        },
        {
          "internalType": "address",
          "name": "path1",
          "type": "address"
        },
        {
          "internalType": "address",
          "name": "path2",
          "type": "address"
        },
        {
          "internalType": "uint256",
          "name": "amountIn",
          "type": "uint256"
        },
        {
          "internalType": "uint256",
          "name": "minOut",
          "type": "uint256"
        },
        {
          "internalType": "uint256",
          "name": "triggerRatio",
          "type": "uint256"
        },
        {
          "internalType": "bool",
          "name": "triggerAboveThreshold",
          "type": "bool"
        },
        {
          "internalType": "bool",
          "name": "shouldUnwrap",
          "type": "bool"
        },
        {
          "internalType": "uint256",
          "name": "executionFee",
          "type": "uint256"
        }
      ],
      "stateMutability": "view",
      "type": "function"
    },
    {
      "inputs": [
        {
          "internalType": "address",
          "name": "_otherToken",
          "type": "address"
        }
      ],
      "name": "getUsdgMinPrice",
      "outputs": [
        {
          "internalType": "uint256",
          "name": "",
          "type": "uint256"
        }
      ],
      "stateMutability": "view",
      "type": "function"
    },
    {
      "inputs": [],
      "name": "gov",
      "outputs": [
        {
          "internalType": "address",
          "name": "",
          "type": "address"
        }
      ],
      "stateMutability": "view",
      "type": "function"
    },
    {
      "inputs": [
        {
          "internalType": "address",
          "name": "",
          "type": "address"
        },
        {
          "internalType": "uint256",
          "name": "",
          "type": "uint256"
        }
      ],
      "name": "increaseOrders",
      "outputs": [
        {
          "internalType": "address",
          "name": "account",
          "type": "address"
        },
        {
          "internalType": "address",
          "name": "purchaseToken",
          "type": "address"
        },
        {
          "internalType": "uint256",
          "name": "purchaseTokenAmount",
          "type": "uint256"
        },
        {
          "internalType": "address",
          "name": "collateralToken",
          "type": "address"
        },
        {
          "internalType": "address",
          "name": "indexToken",
          "type": "address"
        },
        {
          "internalType": "uint256",
          "name": "sizeDelta",
          "type": "uint256"
        },
        {
          "internalType": "bool",
          "name": "isLong",
          "type": "bool"
        },
        {
          "internalType": "uint256",
          "name": "triggerPrice",
          "type": "uint256"
        },
        {
          "internalType": "bool",
          "name": "triggerAboveThreshold",
          "type": "bool"
        },
        {
          "internalType": "uint256",
          "name": "executionFee",
          "type": "uint256"
        }
      ],
      "stateMutability": "view",
      "type": "function"
    },
    {
      "inputs": [
        {
          "internalType": "address",
          "name": "",
          "type": "address"
        }
      ],
      "name": "increaseOrdersIndex",
      "outputs": [
        {
          "internalType": "uint256",
          "name": "",
          "type": "uint256"
        }
      ],
      "stateMutability": "view",
      "type": "function"
    },
    {
      "inputs": [
        {
          "internalType": "address",
          "name": "_router",
          "type": "address"
        },
        {
          "internalType": "address",
          "name": "_vault",
          "type": "address"
        },
        {
          "internalType": "address",
          "name": "_weth",
          "type": "address"
        },
        {
          "internalType": "address",
          "name": "_usdg",
          "type": "address"
        },
        {
          "internalType": "uint256",
          "name": "_minExecutionFee",
          "type": "uint256"
        },
        {
          "internalType": "uint256",
          "name": "_minPurchaseTokenAmountUsd",
          "type": "uint256"
        }
      ],
      "name": "initialize",
      "outputs": [],
      "stateMutability": "nonpayable",
      "type": "function"
    },
    {
      "inputs": [],
      "name": "isInitialized",
      "outputs": [
        {
          "internalType": "bool",
          "name": "",
          "type": "bool"
        }
      ],
      "stateMutability": "view",
      "type": "function"
    },
    {
      "inputs": [],
      "name": "minExecutionFee",
      "outputs": [
        {
          "internalType": "uint256",
          "name": "",
          "type": "uint256"
        }
      ],
      "stateMutability": "view",
      "type": "function"
    },
    {
      "inputs": [],
      "name": "minPurchaseTokenAmountUsd",
      "outputs": [
        {
          "internalType": "uint256",
          "name": "",
          "type": "uint256"
        }
      ],
      "stateMutability": "view",
      "type": "function"
    },
    {
      "inputs": [],
      "name": "router",
      "outputs": [
        {
          "internalType": "address",
          "name": "",
          "type": "address"
        }
      ],
      "stateMutability": "view",
      "type": "function"
    },
    {
      "inputs": [
        {
          "internalType": "address",
          "name": "_gov",
          "type": "address"
        }
      ],
      "name": "setGov",
      "outputs": [],
      "stateMutability": "nonpayable",
      "type": "function"
    },
    {
      "inputs": [
        {
          "internalType": "uint256",
          "name": "_minExecutionFee",
          "type": "uint256"
        }
      ],
      "name": "setMinExecutionFee",
      "outputs": [],
      "stateMutability": "nonpayable",
      "type": "function"
    },
    {
      "inputs": [
        {
          "internalType": "uint256",
          "name": "_minPurchaseTokenAmountUsd",
          "type": "uint256"
        }
      ],
      "name": "setMinPurchaseTokenAmountUsd",
      "outputs": [],
      "stateMutability": "nonpayable",
      "type": "function"
    },
    {
      "inputs": [
        {
          "internalType": "address",
          "name": "",
          "type": "address"
        },
        {
          "internalType": "uint256",
          "name": "",
          "type": "uint256"
        }
      ],
      "name": "swapOrders",
      "outputs": [
        {
          "internalType": "address",
          "name": "account",
          "type": "address"
        },
        {
          "internalType": "uint256",
          "name": "amountIn",
          "type": "uint256"
        },
        {
          "internalType": "uint256",
          "name": "minOut",
          "type": "uint256"
        },
        {
          "internalType": "uint256",
          "name": "triggerRatio",
          "type": "uint256"
        },
        {
          "internalType": "bool",
          "name": "triggerAboveThreshold",
          "type": "bool"
        },
        {
          "internalType": "bool",
          "name": "shouldUnwrap",
          "type": "bool"
        },
        {
          "internalType": "uint256",
          "name": "executionFee",
          "type": "uint256"
        }
      ],
      "stateMutability": "view",
      "type": "function"
    },
    {
      "inputs": [
        {
          "internalType": "address",
          "name": "",
          "type": "address"
        }
      ],
      "name": "swapOrdersIndex",
      "outputs": [
        {
          "internalType": "uint256",
          "name": "",
          "type": "uint256"
        }
      ],
      "stateMutability": "view",
      "type": "function"
    },
    {
      "inputs": [
        {
          "internalType": "uint256",
          "name": "_orderIndex",
          "type": "uint256"
        },
        {
          "internalType": "uint256",
          "name": "_collateralDelta",
          "type": "uint256"
        },
        {
          "internalType": "uint256",
          "name": "_sizeDelta",
          "type": "uint256"
        },
        {
          "internalType": "uint256",
          "name": "_triggerPrice",
          "type": "uint256"
        },
        {
          "internalType": "bool",
          "name": "_triggerAboveThreshold",
          "type": "bool"
        }
      ],
      "name": "updateDecreaseOrder",
      "outputs": [],
      "stateMutability": "nonpayable",
      "type": "function"
    },
    {
      "inputs": [
        {
          "internalType": "uint256",
          "name": "_orderIndex",
          "type": "uint256"
        },
        {
          "internalType": "uint256",
          "name": "_sizeDelta",
          "type": "uint256"
        },
        {
          "internalType": "uint256",
          "name": "_triggerPrice",
          "type": "uint256"
        },
        {
          "internalType": "bool",
          "name": "_triggerAboveThreshold",
          "type": "bool"
        }
      ],
      "name": "updateIncreaseOrder",
      "outputs": [],
      "stateMutability": "nonpayable",
      "type": "function"
    },
    {
      "inputs": [
        {
          "internalType": "uint256",
          "name": "_orderIndex",
          "type": "uint256"
        },
        {
          "internalType": "uint256",
          "name": "_minOut",
          "type": "uint256"
        },
        {
          "internalType": "uint256",
          "name": "_triggerRatio",
          "type": "uint256"
        },
        {
          "internalType": "bool",
          "name": "_triggerAboveThreshold",
          "type": "bool"
        }
      ],
      "name": "updateSwapOrder",
      "outputs": [],
      "stateMutability": "nonpayable",
      "type": "function"
    },
    {
      "inputs": [],
      "name": "usdg",
      "outputs": [
        {
          "internalType": "address",
          "name": "",
          "type": "address"
        }
      ],
      "stateMutability": "view",
      "type": "function"
    },
    {
      "inputs": [
        {
          "internalType": "bool",
          "name": "_triggerAboveThreshold",
          "type": "bool"
        },
        {
          "internalType": "uint256",
          "name": "_triggerPrice",
          "type": "uint256"
        },
        {
          "internalType": "address",
          "name": "_indexToken",
          "type": "address"
        },
        {
          "internalType": "bool",
          "name": "_maximizePrice",
          "type": "bool"
        },
        {
          "internalType": "bool",
          "name": "_raise",
          "type": "bool"
        }
      ],
      "name": "validatePositionOrderPrice",
      "outputs": [
        {
          "internalType": "uint256",
          "name": "",
          "type": "uint256"
        },
        {
          "internalType": "bool",
          "name": "",
          "type": "bool"
        }
      ],
      "stateMutability": "view",
      "type": "function"
    },
    {
      "inputs": [
        {
          "internalType": "address[]",
          "name": "_path",
          "type": "address[]"
        },
        {
          "internalType": "uint256",
          "name": "_triggerRatio",
          "type": "uint256"
        }
      ],
      "name": "validateSwapOrderPriceWithTriggerAboveThreshold",
      "outputs": [
        {
          "internalType": "bool",
          "name": "",
          "type": "bool"
        }
      ],
      "stateMutability": "view",
      "type": "function"
    },
    {
      "inputs": [],
      "name": "vault",
      "outputs": [
        {
          "internalType": "address",
          "name": "",
          "type": "address"
        }
      ],
      "stateMutability": "view",
      "type": "function"
    },
    {
      "inputs": [],
      "name": "weth",
      "outputs": [
        {
          "internalType": "address",
          "name": "",
          "type": "address"
        }
      ],
      "stateMutability": "view",
      "type": "function"
    },
    {
      "stateMutability": "payable",
      "type": "receive"
    }
  ],
  "bytecode": "0x6080604052600e805460ff1916905534801561001a57600080fd5b506001600055600780546001600160a01b03191633179055615bf480620000426000396000f3fe6080604052600436106101c35760003560e01c8062cf066b1461022a578063026032ee1461026f57806307c7edc3146102fa5780630d5cc9381461033d57806311d9444a1461036757806312d43a51146103aa578063269ae6c2146103db5780632b7d6290146104a6578063392e53cd146105465780633fc8cef31461056f57806347e0bbd0146105845780634a686d67146105ae5780634c54f0b0146105c357806363ae21031461062d57806379221fa214610642578063807c5600146106c15780638de10c2e1461087357806395082d25146108885780639983ee1b1461089d5780639e23de5c146108db5780639e71b0f01461090e578063a397ea5414610938578063aec224551461097c578063b142a4b0146109af578063c16cde8a14610a99578063c4a1821b14610ae9578063c86b0f7d14610b99578063cfad57a214610bd7578063d0d40cd614610c0a578063d38ab51914610c9d578063d3bab1d114610ce0578063d566d0ca14610d74578063d7c41c7914610da7578063f2d2e01b14610e00578063f5b91b7b14610e94578063f882ac0714610ea9578063f887ea4014610ed3578063fbfa77cf14610ee8578063fc2cee6214610efd57610225565b36610225576008546001600160a01b03163314610223576040805162461bcd60e51b815260206004820152601960248201527827b93232b92137b7b59d1034b73b30b634b21039b2b73232b960391b604482015290519081900360640190fd5b005b600080fd5b34801561023657600080fd5b5061025d6004803603602081101561024d57600080fd5b50356001600160a01b0316610f27565b60408051918252519081900360200190f35b34801561027b57600080fd5b506102a86004803603604081101561029257600080fd5b506001600160a01b038135169060200135610f39565b604080516001600160a01b03998a168152602081019890985295909716868601526060860193909352901515608085015260a0840152151560c083015260e08201929092529051908190036101000190f35b34801561030657600080fd5b506102236004803603606081101561031d57600080fd5b506001600160a01b0381358116916020810135916040909101351661100c565b34801561034957600080fd5b506102236004803603602081101561036057600080fd5b5035611417565b34801561037357600080fd5b506102236004803603606081101561038a57600080fd5b506001600160a01b038135811691602081013591604090910135166114a8565b3480156103b657600080fd5b506103bf611857565b604080516001600160a01b039092168252519081900360200190f35b61022360048036036101008110156103f257600080fd5b810190602081018135600160201b81111561040c57600080fd5b82018360208201111561041e57600080fd5b803590602001918460208302840111600160201b8311171561043f57600080fd5b91908080602002602001604051908101604052809392919081815260200183836020028082843760009201919091525092955050823593505050602081013590604081013590606081013515159060808101359060a081013515159060c001351515611866565b3480156104b257600080fd5b506104df600480360360408110156104c957600080fd5b506001600160a01b038135169060200135611bef565b604080516001600160a01b039b8c168152998b1660208b015289810198909852958916606089015293909716608087015260a0860191909152151560c085015260e08401949094529215156101008301526101208201929092529051908190036101400190f35b34801561055257600080fd5b5061055b611c61565b604080519115158252519081900360200190f35b34801561057b57600080fd5b506103bf611c6a565b34801561059057600080fd5b50610223600480360360208110156105a757600080fd5b5035611c79565b3480156105ba57600080fd5b5061025d611f83565b3480156105cf57600080fd5b50610614600480360360a08110156105e657600080fd5b5080351515906020810135906001600160a01b03604082013516906060810135151590608001351515611f8f565b6040805192835290151560208301528051918290030190f35b34801561063957600080fd5b5061025d6120f8565b34801561064e57600080fd5b5061067b6004803603604081101561066557600080fd5b506001600160a01b0381351690602001356120fe565b604080516001600160a01b039098168852602088019690965286860194909452606086019290925215156080850152151560a084015260c0830152519081900360e00190f35b3480156106cd57600080fd5b50610223600480360360608110156106e457600080fd5b810190602081018135600160201b8111156106fe57600080fd5b82018360208201111561071057600080fd5b803590602001918460208302840111600160201b8311171561073157600080fd5b9190808060200260200160405190810160405280939291908181526020018383602002808284376000920191909152509295949360208101935035915050600160201b81111561078057600080fd5b82018360208201111561079257600080fd5b803590602001918460208302840111600160201b831117156107b357600080fd5b9190808060200260200160405190810160405280939291908181526020018383602002808284376000920191909152509295949360208101935035915050600160201b81111561080257600080fd5b82018360208201111561081457600080fd5b803590602001918460208302840111600160201b8311171561083557600080fd5b919080806020026020016040519081016040528093929190818152602001838360200280828437600092019190915250929550612152945050505050565b34801561087f57600080fd5b5061025d6121ea565b34801561089457600080fd5b5061025d6121f0565b3480156108a957600080fd5b50610223600480360360808110156108c057600080fd5b50803590602081013590604081013590606001351515612200565b3480156108e757600080fd5b5061025d600480360360208110156108fe57600080fd5b50356001600160a01b0316612358565b34801561091a57600080fd5b506102236004803603602081101561093157600080fd5b5035612502565b34801561094457600080fd5b50610223600480360360a081101561095b57600080fd5b50803590602081013590604081013590606081013590608001351515612774565b34801561098857600080fd5b5061025d6004803603602081101561099f57600080fd5b50356001600160a01b03166128dc565b61022360048036036101608110156109c657600080fd5b810190602081018135600160201b8111156109e057600080fd5b8201836020820111156109f257600080fd5b803590602001918460208302840111600160201b83111715610a1357600080fd5b9190808060200260200160405190810160405280939291908181526020018383602002808284376000920191909152509295505082359350506001600160a01b036020830135811692604081013592506060810135916080820135169060a081013515159060c08101359060e081013515159061010081013590610120013515156128ee565b610223600480360360e0811015610aaf57600080fd5b506001600160a01b03813581169160208101359160408201351690606081013590608081013515159060a08101359060c001351515612f4b565b348015610af557600080fd5b5061055b60048036036040811015610b0c57600080fd5b810190602081018135600160201b811115610b2657600080fd5b820183602082011115610b3857600080fd5b803590602001918460208302840111600160201b83111715610b5957600080fd5b9190808060200260200160405190810160405280939291908181526020018383602002808284376000920191909152509295505091359250612ffc915050565b348015610ba557600080fd5b5061022360048036036080811015610bbc57600080fd5b50803590602081013590604081013590606001351515613213565b348015610be357600080fd5b5061022360048036036020811015610bfa57600080fd5b50356001600160a01b03166133dc565b348015610c1657600080fd5b50610c4360048036036040811015610c2d57600080fd5b506001600160a01b038135169060200135613486565b604080516001600160a01b039a8b168152988a1660208a015296909816878701526060870194909452608086019290925260a0850152151560c0840152151560e08301526101008201929092529051908190036101200190f35b348015610ca957600080fd5b5061022360048036036060811015610cc057600080fd5b506001600160a01b03813581169160208101359160409091013516613643565b348015610cec57600080fd5b50610d1960048036036040811015610d0357600080fd5b506001600160a01b038135169060200135613aac565b604080516001600160a01b039a8b1681526020810199909952968916888801529490971660608701526080860192909252151560a085015260c084015292151560e08301526101008201929092529051908190036101200190f35b348015610d8057600080fd5b5061025d60048036036020811015610d9757600080fd5b50356001600160a01b0316613b92565b348015610db357600080fd5b50610223600480360360c0811015610dca57600080fd5b506001600160a01b0381358116916020810135821691604082013581169160608101359091169060808101359060a00135613ba4565b348015610e0c57600080fd5b50610e3960048036036040811015610e2357600080fd5b506001600160a01b038135169060200135613d13565b604080516001600160a01b039a8b168152988a1660208a0152888101979097529490971660608701526080860192909252151560a085015260c084015292151560e08301526101008201929092529051908190036101200190f35b348015610ea057600080fd5b506103bf613d7d565b348015610eb557600080fd5b5061022360048036036020811015610ecc57600080fd5b5035613d8c565b348015610edf57600080fd5b506103bf6140c9565b348015610ef457600080fd5b506103bf6140d8565b348015610f0957600080fd5b5061022360048036036020811015610f2057600080fd5b50356140e7565b60066020526000908152604090205481565b600080600080600080600080610f4d6155d3565b505050506001600160a01b03968716600090815260036020818152604080842099845298815291889020885161012081018a5281548b16815260018201548b1693810184905260028201549981018a9052918101549099166060820181905260048a01546080830181905260058b015460ff908116151560a0850181905260068d015460c0860181905260078e0154909216151560e086018190526008909d0154610100909501859052949c9a9b929a91995093975092955093509150565b60026000541415611052576040805162461bcd60e51b815260206004820152601f60248201526000805160206157a0833981519152604482015290519081900360640190fd5b600260005561105f61561f565b6001600160a01b038085166000908152600560209081526040808320878452825291829020825161010081018452815490941684526001810180548451818502810185019095528085529193858401939092908301828280156110eb57602002820191906000526020600020905b81546001600160a01b031681526001909101906020018083116110cd575b5050509183525050600282015460208201526003820154604082015260048201546060820152600582015460ff8082161515608084015261010090910416151560a082015260069091015460c09091015280519091506001600160a01b0316611189576040805162461bcd60e51b815260206004820152601d6024820152600080516020615780833981519152604482015290519081900360640190fd5b8060a00151156111e0576111a581602001518260800151612ffc565b6111e05760405162461bcd60e51b8152600401808060200182810382526026815260200180615abe6026913960400191505060405180910390fd5b6001600160a01b0384166000908152600560209081526040808320868452909152812080546001600160a01b03191681559061121f6001830182615671565b50600060028201819055600382018190556004820181905560058201805461ffff191690556006909101819055600b54604083015160208401518051611292946001600160a01b03909416939061127257fe5b60200260200101516001600160a01b03166141789092919063ffffffff16565b600854602082015180516000926001600160a01b0316919060001981019081106112b857fe5b60200260200101516001600160a01b03161480156112d757508160c001515b15611304576112ef82602001518360600151306141cf565b90506112ff8183600001516142fe565b61131e565b61131b8260200151836060015184600001516141cf565b90505b61132c8260e00151846142fe565b846001600160a01b03167f7e1fe496989eea92b738a562dbf9c0ae6aa6fcf3f1ef09e95ee4f7603721706b858460200151856040015186606001518688608001518960a001518a60c001518b60e00151604051808a8152602001806020018981526020018881526020018781526020018681526020018515158152602001841515815260200183815260200182810382528a818151815260200191508051906020019060200280838360005b838110156113f05781810151838201526020016113d8565b505050509050019a505050505050505050505060405180910390a250506001600055505050565b6007546001600160a01b0316331461146d576040805162461bcd60e51b815260206004820152601460248201527327b93232b92137b7b59d103337b93134b23232b760611b604482015290519081900360640190fd5b600d8190556040805182815290517fe46d9daf6d25f7615efa1d0183b90ac6759d85014b598e409aadf0fd918d59a69181900360200190a150565b600260005414156114ee576040805162461bcd60e51b815260206004820152601f60248201526000805160206157a0833981519152604482015290519081900360640190fd5b60026000556114fb6155d3565b506001600160a01b03808416600090815260036020818152604080842087855282529283902083516101208101855281548616808252600183015487169382019390935260028201549481019490945291820154909316606083015260048101546080830152600581015460ff908116151560a0840152600682015460c0840152600782015416151560e083015260080154610100820152906115d3576040805162461bcd60e51b815260206004820152601d6024820152600080516020615780833981519152604482015290519081900360640190fd5b60006115f48260e001518360c0015184606001518560a00151156001611f8f565b506001600160a01b0380871660009081526003602081815260408084208a8552825280842080546001600160a01b0319908116825560018201805482169055600282018690559381018054909416909355600480840185905560058401805460ff199081169091556006850186905560078501805490911690556008909301849055600a5488518984015160608b01518b85015160808d015160a08e01518751632662166b60e01b8152958c1699860199909952928a16602485015290891660448401526064830152608482015293151560a48501523060c4850152905195965092949290931692632662166b9260e48084019382900301818787803b1580156116fd57600080fd5b505af1158015611711573d6000803e3d6000fd5b505050506040513d602081101561172757600080fd5b505160085460208501519192506001600160a01b039182169116141561175a576117558184600001516142fe565b611777565b82516020840151611777916001600160a01b039091169083614178565b611786836101000151856142fe565b82600001516001600160a01b03167f9a382661d6573da86db000471303be6f0b2b1bb66089b08e3c16a85d7b6e94f88685602001518660400151876060015188608001518960a001518a60c001518b60e001518c61010001518c604051808b81526020018a6001600160a01b03168152602001898152602001886001600160a01b03168152602001878152602001861515815260200185815260200184151581526020018381526020018281526020019a505050505050505050505060405180910390a25050600160005550505050565b6007546001600160a01b031681565b600260005414156118ac576040805162461bcd60e51b815260206004820152601f60248201526000805160206157a0833981519152604482015290519081900360640190fd5b60026000819055885114806118c2575087516003145b611901576040805162461bcd60e51b815260206004820152601f6024820152600080516020615ae4833981519152604482015290519081900360640190fd5b8760018951038151811061191157fe5b60200260200101516001600160a01b03168860008151811061192f57fe5b60200260200101516001600160a01b0316141561198e576040805162461bcd60e51b815260206004820152601860248201527709ee4c8cae484deded67440d2dcecc2d8d2c840bee0c2e8d60431b604482015290519081900360640190fd5b600087116119e2576040805162461bcd60e51b815260206004820152601c60248201527b27b93232b92137b7b59d1034b73b30b634b2102fb0b6b7bab73a24b760211b604482015290519081900360640190fd5b600c54831015611a235760405162461bcd60e51b81526004018080602001828103825260258152602001806159d36025913960400191505060405180910390fd5b611a2b61439f565b8115611ae65760085488516001600160a01b03909116908990600090611a4d57fe5b60200260200101516001600160a01b031614611a9a5760405162461bcd60e51b815260040180806020018281038252602581526020018061590c6025913960400191505060405180910390fd5b611aa48388614434565b3414611ae15760405162461bcd60e51b8152600401808060200182810382526026815260200180615a986026913960400191505060405180910390fd5b611bd0565b823414611b245760405162461bcd60e51b815260040180806020018281038252602e815260200180615b2e602e913960400191505060405180910390fd5b600a5488516001600160a01b0390911690631b827878908a90600090611b4657fe5b602002602001015133308b6040518563ffffffff1660e01b815260040180856001600160a01b03168152602001846001600160a01b03168152602001836001600160a01b03168152602001828152602001945050505050600060405180830381600087803b158015611bb757600080fd5b505af1158015611bcb573d6000803e3d6000fd5b505050505b611be0338989898989878a61448c565b50506001600055505050505050565b6001602081815260009384526040808520909152918352912080549181015460028201546003830154600484015460058501546006860154600787015460088801546009909801546001600160a01b03998a1699978816989697958616969490951694929360ff92831693919216908a565b600e5460ff1681565b6008546001600160a01b031681565b60026000541415611cbf576040805162461bcd60e51b815260206004820152601f60248201526000805160206157a0833981519152604482015290519081900360640190fd5b6002600055611ccc615692565b5033600090815260016020818152604080842085855282529283902083516101408101855281546001600160a01b039081168083529483015481169382019390935260028201549481019490945260038101548216606085015260048101549091166080840152600581015460a0840152600681015460ff908116151560c0850152600782015460e0850152600882015416151561010084015260090154610120830152611daf576040805162461bcd60e51b815260206004820152601d6024820152600080516020615780833981519152604482015290519081900360640190fd5b3360009081526001602081815260408084208685528252832080546001600160a01b0319908116825592810180548416905560028101849055600381018054841690556004810180549093169092556005820183905560068201805460ff19908116909155600783018490556008808401805490921690915560099092019290925554908201516001600160a01b0390811691161415611e7357611e6e611e68826040015183610120015161443490919063ffffffff16565b336142fe565b611ea8565b611e9933826040015183602001516001600160a01b03166141789092919063ffffffff16565b611ea8816101200151336142fe565b80600001516001600160a01b03167fd500f34e0ec655b7614ae42e1d9c666d5e4dde909a1297829f8c5ecf00805d328383602001518460400151856060015186608001518760a001518860c001518960e001518a61010001518b6101200151604051808b81526020018a6001600160a01b03168152602001898152602001886001600160a01b03168152602001876001600160a01b03168152602001868152602001851515815260200184815260200183151581526020018281526020019a505050505050505050505060405180910390a250506001600055565b670de0b6b3a764000081565b60008060008461201757600b54604080516340d3096b60e11b81526001600160a01b038981166004830152915191909216916381a612d6916024808301926020929190829003018186803b158015611fe657600080fd5b505afa158015611ffa573d6000803e3d6000fd5b505050506040513d602081101561201057600080fd5b5051612091565b600b5460408051637092736960e11b81526001600160a01b0389811660048301529151919092169163e124e6d2916024808301926020929190829003018186803b15801561206457600080fd5b505afa158015612078573d6000803e3d6000fd5b505050506040513d602081101561208e57600080fd5b50515b90506000886120a2578782106120a6565b8782115b905084156120ea57806120ea5760405162461bcd60e51b8152600401808060200182810382526026815260200180615abe6026913960400191505060405180910390fd5b909890975095505050505050565b600c5481565b600560208181526000938452604080852090915291835291208054600282015460038301546004840154948401546006909401546001600160a01b03909316949193909260ff808316926101009004169087565b60005b83518110156121825761217a84828151811061216d57fe5b6020026020010151613d8c565b600101612155565b5060005b82518110156121b3576121ab83828151811061219e57fe5b6020026020010151611c79565b600101612186565b5060005b81518110156121e4576121dc8282815181106121cf57fe5b6020026020010151612502565b6001016121b7565b50505050565b600d5481565b68327cb2734119d3b7a9601e1b81565b60026000541415612246576040805162461bcd60e51b815260206004820152601f60248201526000805160206157a0833981519152604482015290519081900360640190fd5b60026000908155338152600160209081526040808320878452909152902080546001600160a01b03166122ae576040805162461bcd60e51b815260206004820152601d6024820152600080516020615780833981519152604482015290519081900360640190fd5b6007810183905560088101805483151560ff19909116811790915560058201859055600382015460048301546006840154604080518a81526001600160a01b039485166020820152929093168284015260ff16151560608201526080810187905260a0810186905260c08101929092525133917f0a0360dd5c354235bbf8d386ba3b24ef8134088e0785677de1504df219d9149a919081900360e00190a250506001600055505050565b600b5460408051632c668ec160e01b81526001600160a01b038481166004830152670de0b6b3a76400006024830152915160009384931691632c668ec1916044808301926020929190829003018186803b1580156123b557600080fd5b505afa1580156123c9573d6000803e3d6000fd5b505050506040513d60208110156123df57600080fd5b5051600b54604080516340d3096b60e11b81526001600160a01b038781166004830152915193945060009391909216916381a612d6916024808301926020929190829003018186803b15801561243457600080fd5b505afa158015612448573d6000803e3d6000fd5b505050506040513d602081101561245e57600080fd5b5051600b54604080516323b95ceb60e21b81526001600160a01b03888116600483015291519394506000939190921691638ee573ac916024808301926020929190829003018186803b1580156124b357600080fd5b505afa1580156124c7573d6000803e3d6000fd5b505050506040513d60208110156124dd57600080fd5b505190506124f9600a82900a6124f3858561469b565b906146f4565b95945050505050565b60026000541415612548576040805162461bcd60e51b815260206004820152601f60248201526000805160206157a0833981519152604482015290519081900360640190fd5b60026000556125556155d3565b5033600090815260036020818152604080842085855282529283902083516101208101855281546001600160a01b03908116808352600184015482169483019490945260028301549582019590955292810154909316606083015260048301546080830152600583015460ff908116151560a0840152600684015460c0840152600784015416151560e08301526008909201546101008201529061262e576040805162461bcd60e51b815260206004820152601d6024820152600080516020615780833981519152604482015290519081900360640190fd5b336000818152600360208181526040808420878552909152822080546001600160a01b03199081168255600182018054821690556002820184905591810180549092169091556004810182905560058101805460ff19908116909155600682018390556007820180549091169055600801556101008201516126af916142fe565b80600001516001600160a01b03167f1154174c82984656b028c8021671988f60a346497e56fe02554761184f82a0758383602001518460400151856060015186608001518760a001518860c001518960e001518a6101000151604051808a8152602001896001600160a01b03168152602001888152602001876001600160a01b0316815260200186815260200185151581526020018481526020018315158152602001828152602001995050505050505050505060405180910390a250506001600055565b600260005414156127ba576040805162461bcd60e51b815260206004820152601f60248201526000805160206157a0833981519152604482015290519081900360640190fd5b60026000908155338152600360209081526040808320888452909152902080546001600160a01b0316612822576040805162461bcd60e51b815260206004820152601d6024820152600080516020615780833981519152604482015290519081900360640190fd5b6006810183905560078101805483151560ff1990911681179091556004820185905560028201869055600182015460038301546005840154604080518b81526001600160a01b0394851660208201528082018b90529290931660608301526080820188905260ff16151560a082015260c0810186905260e08101929092525133917f75781255bc71c83f89f29e5a2599f2c174a562d2cd8f2e818a47f132e728049891908190036101000190a25050600160005550505050565b60026020526000908152604090205481565b60026000541415612934576040805162461bcd60e51b815260206004820152601f60248201526000805160206157a0833981519152604482015290519081900360640190fd5b6002600081905550612ba5604051806080016040528060428152602001615a56604291398a6001600160a01b03166306fdde036040518163ffffffff1660e01b815260040160006040518083038186803b15801561299157600080fd5b505afa1580156129a5573d6000803e3d6000fd5b505050506040513d6000823e601f3d908101601f1916820160405260208110156129ce57600080fd5b8101908080516040519392919084600160201b8211156129ed57600080fd5b908301906020820185811115612a0257600080fd5b8251600160201b811182820188101715612a1b57600080fd5b82525081516020918201929091019080838360005b83811015612a48578181015183820152602001612a30565b50505050905090810190601f168015612a755780820380516001836020036101000a031916815260200191505b50604052505050886001600160a01b03166306fdde036040518163ffffffff1660e01b815260040160006040518083038186803b158015612ab557600080fd5b505afa158015612ac9573d6000803e3d6000fd5b505050506040513d6000823e601f3d908101601f191682016040526020811015612af257600080fd5b8101908080516040519392919084600160201b821115612b1157600080fd5b908301906020820185811115612b2657600080fd5b8251600160201b811182820188101715612b3f57600080fd5b82525081516020918201929091019080838360005b83811015612b6c578181015183820152602001612b54565b50505050905090810190601f168015612b995780820380516001836020036101000a031916815260200191505b50604052505050614733565b612bad61439f565b600c54821015612bee5760405162461bcd60e51b8152600401808060200182810382526038815260200180615b5c6038913960400191505060405180910390fd5b8015612ca9576008548b516001600160a01b03909116908c90600090612c1057fe5b60200260200101516001600160a01b031614612c5d5760405162461bcd60e51b81526004018080602001828103825260388152602001806158016038913960400191505060405180910390fd5b612c67828b614434565b3414612ca45760405162461bcd60e51b815260040180806020018281038252603981526020018061599a6039913960400191505060405180910390fd5b612d93565b813414612ce75760405162461bcd60e51b81526004018080602001828103825260418152602001806157c06041913960600191505060405180910390fd5b600a548b516001600160a01b0390911690631b827878908d90600090612d0957fe5b602002602001015133308e6040518563ffffffff1660e01b815260040180856001600160a01b03168152602001846001600160a01b03168152602001836001600160a01b03168152602001828152602001945050505050600060405180830381600087803b158015612d7a57600080fd5b505af1158015612d8e573d6000803e3d6000fd5b505050505b60008b60018d510381518110612da557fe5b60200260200101519050600060018d511115612e5957816001600160a01b03168d600081518110612dd257fe5b60200260200101516001600160a01b03161415612e205760405162461bcd60e51b815260040180806020018281038252602b815260200180615b94602b913960400191505060405180910390fd5b612e47600b60009054906101000a90046001600160a01b03168d8f60008151811061127257fe5b612e528d8b306141cf565b9050612e5c565b508a5b600b5460408051630a48d5a960e01b81526001600160a01b0385811660048301526024820185905291516000939290921691630a48d5a991604480820192602092909190829003018186803b158015612eb457600080fd5b505afa158015612ec8573d6000803e3d6000fd5b505050506040513d6020811015612ede57600080fd5b5051600d54909150811015612f245760405162461bcd60e51b81526004018080602001828103825260528152602001806158396052913960600191505060405180910390fd5b50612f373383838b8f8e8d8d8d8d6148a7565b505060016000555050505050505050505050565b60026000541415612f91576040805162461bcd60e51b815260206004820152601f60248201526000805160206157a0833981519152604482015290519081900360640190fd5b6002600055612f9e61439f565b600c543411612fde5760405162461bcd60e51b81526004018080602001828103825260258152602001806159d36025913960400191505060405180910390fd5b612fee3386868a8a888888614bb7565b505060016000555050505050565b600082516002148061300f575082516003145b61304e576040805162461bcd60e51b815260206004820152601f6024820152600080516020615ae4833981519152604482015290519081900360640190fd5b60008360008151811061305d57fe5b6020026020010151905060008460018651038151811061307957fe5b602090810291909101015160095490915060009081906001600160a01b03858116911614156130c6576130bf876001815181106130b257fe5b6020026020010151612358565b9150613142565b600b54604080516340d3096b60e11b81526001600160a01b038781166004830152915191909216916381a612d6916024808301926020929190829003018186803b15801561311357600080fd5b505afa158015613127573d6000803e3d6000fd5b505050506040513d602081101561313d57600080fd5b505191505b6009546001600160a01b038481169116141561316b575068327cb2734119d3b7a9601e1b6131e7565b600b5460408051637092736960e11b81526001600160a01b0386811660048301529151919092169163e124e6d2916024808301926020929190829003018186803b1580156131b857600080fd5b505afa1580156131cc573d6000803e3d6000fd5b505050506040513d60208110156131e257600080fd5b505190505b6000613203836124f38468327cb2734119d3b7a9601e1b61469b565b8710955050505050505b92915050565b60026000541415613259576040805162461bcd60e51b815260206004820152601f60248201526000805160206157a0833981519152604482015290519081900360640190fd5b60026000908155338152600560209081526040808320878452909152902080546001600160a01b03166132c1576040805162461bcd60e51b815260206004820152601d6024820152600080516020615780833981519152604482015290519081900360640190fd5b838160030181905550828160040181905550818160050160006101000a81548160ff021916908315150217905550336001600160a01b03167fa7f9f4a25eb76f5ec01b1a429d95d6a00833f0f137c88827c58799a1c1ff0dfe868360010184600201548888888860050160019054906101000a900460ff16896006015460405180898152602001806020018881526020018781526020018681526020018515158152602001841515815260200183815260200182810382528981815481526020019150805480156133bb57602002820191906000526020600020905b81546001600160a01b0316815260019091019060200180831161339d575b5050995050505050505050505060405180910390a250506001600055505050565b6007546001600160a01b03163314613432576040805162461bcd60e51b815260206004820152601460248201527327b93232b92137b7b59d103337b93134b23232b760611b604482015290519081900360640190fd5b600780546001600160a01b0383166001600160a01b0319909116811790915560408051918252517fe24c39186e9137521953beaa8446e71f55b8f12296984f9d4273ceb1af728d909181900360200190a150565b600080600080600080600080600061349c61561f565b6001600160a01b03808d1660009081526005602090815260408083208f84528252918290208251610100810184528154909416845260018101805484518185028101850190955280855291938584019390929083018282801561352857602002820191906000526020600020905b81546001600160a01b0316815260019091019060200180831161350a575b505050918352505060028201546020808301919091526003830154604083015260048301546060830152600583015460ff8082161515608085015261010090910416151560a083015260069092015460c0909101528101515190915061358f5760006135a9565b80602001516000815181106135a057fe5b60200260200101515b6001826020015151116135bd5760006135d7565b81602001516001815181106135ce57fe5b60200260200101515b6002836020015151116135eb576000613605565b82602001516002815181106135fc57fe5b60200260200101515b8360400151846060015185608001518660a001518760c001518860e00151995099509950995099509950995099509950509295985092959850929598565b60026000541415613689576040805162461bcd60e51b815260206004820152601f60248201526000805160206157a0833981519152604482015290519081900360640190fd5b6002600055613696615692565b506001600160a01b038084166000908152600160208181526040808420878552825292839020835161014081018552815486168082529382015486169281019290925260028101549382019390935260038301548416606082015260048301549093166080840152600582015460a0840152600682015460ff908116151560c0850152600783015460e0850152600883015416151561010084015260099091015461012083015261377c576040805162461bcd60e51b815260206004820152601d6024820152600080516020615780833981519152604482015290519081900360640190fd5b600061379d8261010001518360e0015184608001518560c001516001611f8f565b506001600160a01b0380871660009081526001602081815260408084208a8552825280842080546001600160a01b0319908116825593810180548516905560028101859055600381018054851690556004810180549094169093556005830184905560068301805460ff19908116909155600784018590556008840180549091169055600990920192909255600b549086015191860151939450613845938316921690614178565b81606001516001600160a01b031682602001516001600160a01b03161461391d57604080516002808252606080830184529260208301908036833701905050905082602001518160008151811061389857fe5b60200260200101906001600160a01b031690816001600160a01b0316815250508260600151816001815181106138ca57fe5b60200260200101906001600160a01b031690816001600160a01b03168152505060006138f8826000306141cf565b600b54606086015191925061391a916001600160a01b03908116911683614178565b50505b600a5482516060840151608085015160a086015160c087015160408051630f8ee8bb60e11b81526001600160a01b03968716600482015294861660248601529285166044850152606484019190915215156084830152519190921691631f1dd1769160a480830192600092919082900301818387803b15801561399f57600080fd5b505af11580156139b3573d6000803e3d6000fd5b505050506139c6826101200151846142fe565b81600001516001600160a01b03167f7fb1c74d1ea6aa1c9c585e17ce8274c8ff98745e85e7459b73f87d784494f58e8584602001518560400151866060015187608001518860a001518960c001518a60e001518b61010001518c61012001518c604051808c81526020018b6001600160a01b031681526020018a8152602001896001600160a01b03168152602001886001600160a01b03168152602001878152602001861515815260200185815260200184151581526020018381526020018281526020019b50505050505050505050505060405180910390a250506001600055505050565b6000806000806000806000806000613ac2615692565b505050506001600160a01b0397881660009081526001602081815260408084209a845299815291899020895161014081018b5281548c168152918101548b1692820183905260028101549982018a905260038101548b16606083018190526004820154909b1660808301819052600582015460a08401819052600683015460ff908116151560c08601819052600785015460e08701819052600886015490921615156101008701819052600990950154610120909601869052959e9c9d9c929b5090995093975092955093509150565b60046020526000908152604090205481565b6007546001600160a01b03163314613bfa576040805162461bcd60e51b815260206004820152601460248201527327b93232b92137b7b59d103337b93134b23232b760611b604482015290519081900360640190fd5b600e5460ff1615613c52576040805162461bcd60e51b815260206004820152601e60248201527f4f72646572426f6f6b3a20616c726561647920696e697469616c697a65640000604482015290519081900360640190fd5b600e805460ff19166001179055600a80546001600160a01b038089166001600160a01b03199283168117909355600b8054898316908416811790915560088054898416908516811790915560098054938916939094168317909355600c869055600d8590556040805194855260208501919091528381019290925260608301526080820184905260a08201839052517fcfb7ef8749fafc8da2af1ba3d025479ffc4e58f7dc420113e112512a3bda59639181900360c00190a1505050505050565b600360208181526000938452604080852090915291835291208054600182015460028301549383015460048401546005850154600686015460078701546008909701546001600160a01b039687169895871697959690941694929360ff9283169391929091169089565b6009546001600160a01b031681565b60026000541415613dd2576040805162461bcd60e51b815260206004820152601f60248201526000805160206157a0833981519152604482015290519081900360640190fd5b6002600055613ddf61561f565b33600090815260056020908152604080832085845282529182902082516101008101845281546001600160a01b0316815260018201805485518186028101860190965280865291949293858101939290830182828015613e6857602002820191906000526020600020905b81546001600160a01b03168152600190910190602001808311613e4a575b5050509183525050600282015460208201526003820154604082015260048201546060820152600582015460ff8082161515608084015261010090910416151560a082015260069091015460c09091015280519091506001600160a01b0316613f06576040805162461bcd60e51b815260206004820152601d6024820152600080516020615780833981519152604482015290519081900360640190fd5b336000908152600560209081526040808320858452909152812080546001600160a01b031916815590613f3c6001830182615671565b50600060028201819055600382018190556004820181905560058201805461ffff191690556006909101819055600854602083015180516001600160a01b03909216929091613f8757fe5b60200260200101516001600160a01b03161415613fc157613fbc611e6882604001518360e0015161443490919063ffffffff16565b613fe9565b613fdb338260400151836020015160008151811061127257fe5b613fe98160e00151336142fe565b336001600160a01b03167fefd66d4f9c2f880c70aedeb5b26a44fb474cea07e5d6c533f2d27c303d5d94538383602001518460400151856060015186608001518760a001518860c001518960e00151604051808981526020018060200188815260200187815260200186815260200185151581526020018415158152602001838152602001828103825289818151815260200191508051906020019060200280838360005b838110156140a657818101518382015260200161408e565b50505050905001995050505050505050505060405180910390a250506001600055565b600a546001600160a01b031681565b600b546001600160a01b031681565b6007546001600160a01b0316331461413d576040805162461bcd60e51b815260206004820152601460248201527327b93232b92137b7b59d103337b93134b23232b760611b604482015290519081900360640190fd5b600c8190556040805182815290517fbde5eafdc37b81830d70124cddccaaa6d034e71dda3c8fc18a959ca76a7cbcfc9181900360200190a150565b604080516001600160a01b038416602482015260448082018490528251808303909101815260649091019091526020810180516001600160e01b031663a9059cbb60e01b1790526141ca908490614e2d565b505050565b60008351600214156142165761420f846000815181106141eb57fe5b60200260200101518560018151811061420057fe5b60200260200101518585614ede565b90506142f7565b8351600314156142bc5760006142578560008151811061423257fe5b60200260200101518660018151811061424757fe5b6020026020010151600030614ede565b9050614280600b60009054906101000a90046001600160a01b0316828760018151811061127257fe5b6142b48560018151811061429057fe5b6020026020010151866002815181106142a557fe5b60200260200101518686614ede565b9150506142f7565b6040805162461bcd60e51b815260206004820152601f6024820152600080516020615ae4833981519152604482015290519081900360640190fd5b9392505050565b6143226040518060600160405280603d81526020016159f8603d91393384846150bd565b60085460408051632e1a7d4d60e01b81526004810185905290516001600160a01b0390921691632e1a7d4d9160248082019260009290919082900301818387803b15801561436f57600080fd5b505af1158015614383573d6000803e3d6000fd5b5061439b925050506001600160a01b0382168361518d565b5050565b3415614432576143c86040518060600160405280602e8152602001615931602e91393334615272565b600860009054906101000a90046001600160a01b03166001600160a01b031663d0e30db0346040518263ffffffff1660e01b81526004016000604051808303818588803b15801561441857600080fd5b505af115801561442c573d6000803e3d6000fd5b50505050505b565b6000828201838110156142f7576040805162461bcd60e51b815260206004820152601b60248201527a536166654d6174683a206164646974696f6e206f766572666c6f7760281b604482015290519081900360640190fd5b6001600160a01b0388166000908152600660205260409020546144ad61561f565b6040518061010001604052808b6001600160a01b031681526020018a81526020018981526020018881526020018781526020018615158152602001851515815260200184815250905061450a60018361443490919063ffffffff16565b6001600160a01b038b8116600090815260066020908152604080832094909455600581528382208683528152929020835181546001600160a01b031916921691909117815582820151805184936145689260018501929101906156e6565b5060408201518160020155606082015181600301556080820151816004015560a08201518160050160006101000a81548160ff02191690831515021790555060c08201518160050160016101000a81548160ff02191690831515021790555060e08201518160060155905050896001600160a01b03167fdf06bb56ffc4029dc0b62b68bb5bbadea93a38b530cefc9b81afb742a6555d88838b8b8b8b8b8b8b604051808981526020018060200188815260200187815260200186815260200185151581526020018415158152602001838152602001828103825289818151815260200191508051906020019060200280838360005b8381101561467557818101518382015260200161465d565b50505050905001995050505050505050505060405180910390a250505050505050505050565b6000826146aa5750600061320d565b828202828482816146b757fe5b04146142f75760405162461bcd60e51b8152600401808060200182810382526021815260200180615a356021913960400191505060405180910390fd5b60006142f783836040518060400160405280601a815260200179536166654d6174683a206469766973696f6e206279207a65726f60301b815250615331565b6141ca83838360405160240180806020018060200180602001848103845287818151815260200191508051906020019080838360005b83811015614781578181015183820152602001614769565b50505050905090810190601f1680156147ae5780820380516001836020036101000a031916815260200191505b50848103835286518152865160209182019188019080838360005b838110156147e15781810151838201526020016147c9565b50505050905090810190601f16801561480e5780820380516001836020036101000a031916815260200191505b50848103825285518152855160209182019187019080838360005b83811015614841578181015183820152602001614829565b50505050905090810190601f16801561486e5780820380516001836020036101000a031916815260200191505b5060408051601f198184030181529190526020810180516001600160e01b0316632ced7cef60e01b17905296506153d395505050505050565b600060026000336001600160a01b03166001600160a01b031681526020019081526020016000205490506148f46040518060600160405280603b815260200161595f603b91393383615272565b6148fc615692565b6040518061014001604052808d6001600160a01b031681526020018c6001600160a01b031681526020018b81526020018a6001600160a01b03168152602001896001600160a01b031681526020018881526020018715158152602001868152602001851515815260200184815250905061498060018361443490919063ffffffff16565b600260008e6001600160a01b03166001600160a01b031681526020019081526020016000208190555080600160008e6001600160a01b03166001600160a01b03168152602001908152602001600020600084815260200190815260200160002060008201518160000160006101000a8154816001600160a01b0302191690836001600160a01b0316021790555060208201518160010160006101000a8154816001600160a01b0302191690836001600160a01b031602179055506040820151816002015560608201518160030160006101000a8154816001600160a01b0302191690836001600160a01b0316021790555060808201518160040160006101000a8154816001600160a01b0302191690836001600160a01b0316021790555060a0820151816005015560c08201518160060160006101000a81548160ff02191690831515021790555060e082015181600701556101008201518160080160006101000a81548160ff02191690831515021790555061012082015181600901559050508b6001600160a01b03167fb27b9afe3043b93788c40cfc3cc73f5d928a2e40f3ba01820b246426de8fa1b9838d8d8d8d8d8d8d8d8d604051808b81526020018a6001600160a01b03168152602001898152602001886001600160a01b03168152602001876001600160a01b03168152602001868152602001851515815260200184815260200183151581526020018281526020019a505050505050505050505060405180910390a2505050505050505050505050565b6001600160a01b038816600090815260046020526040902054614bd86155d3565b5060408051610120810182526001600160a01b03808c1682528a8116602083015291810189905290871660608201526080810186905284151560a082015260c0810184905282151560e082015234610100820152614c37826001614434565b600460008c6001600160a01b03166001600160a01b031681526020019081526020016000208190555080600360008c6001600160a01b03166001600160a01b03168152602001908152602001600020600084815260200190815260200160002060008201518160000160006101000a8154816001600160a01b0302191690836001600160a01b0316021790555060208201518160010160006101000a8154816001600160a01b0302191690836001600160a01b031602179055506040820151816002015560608201518160030160006101000a8154816001600160a01b0302191690836001600160a01b031602179055506080820151816004015560a08201518160050160006101000a81548160ff02191690831515021790555060c0820151816006015560e08201518160070160006101000a81548160ff0219169083151502179055506101008201518160080155905050896001600160a01b03167f48ee333d2a65cc45fdb83bc012920d89181c3377390cd239d2b63f2bef67a02d838b8b8b8b8b8b8b34604051808a8152602001896001600160a01b03168152602001888152602001876001600160a01b0316815260200186815260200185151581526020018481526020018315158152602001828152602001995050505050505050505060405180910390a250505050505050505050565b6060614e82826040518060400160405280602081526020017f5361666545524332303a206c6f772d6c6576656c2063616c6c206661696c6564815250856001600160a01b03166153f49092919063ffffffff16565b8051909150156141ca57808060200190516020811015614ea157600080fd5b50516141ca5760405162461bcd60e51b815260040180806020018281038252602a815260200180615b04602a913960400191505060405180910390fd5b60095460009081906001600160a01b0386811691161415614f8357600b546040805163817bb85760e01b81526001600160a01b03898116600483015286811660248301529151919092169163817bb8579160448083019260209291908290030181600087803b158015614f5057600080fd5b505af1158015614f64573d6000803e3d6000fd5b505050506040513d6020811015614f7a57600080fd5b5051905061507e565b6009546001600160a01b0387811691161415614ff057600b5460408051630711e61960e41b81526001600160a01b03888116600483015286811660248301529151919092169163711e61909160448083019260209291908290030181600087803b158015614f5057600080fd5b600b5460408051634998b10960e11b81526001600160a01b038981166004830152888116602483015286811660448301529151919092169163933162129160648083019260209291908290030181600087803b15801561504f57600080fd5b505af1158015615063573d6000803e3d6000fd5b505050506040513d602081101561507957600080fd5b505190505b838110156124f95760405162461bcd60e51b81526004018080602001828103825260218152602001806158eb6021913960400191505060405180910390fd5b6121e4848484846040516024018080602001856001600160a01b03168152602001848152602001836001600160a01b03168152602001828103825286818151815260200191508051906020019080838360005b83811015615128578181015183820152602001615110565b50505050905090810190601f1680156151555780820380516001836020036101000a031916815260200191505b5060408051601f198184030181529190526020810180516001600160e01b03166363fb8bc560e01b17905295506153d3945050505050565b804710156151e2576040805162461bcd60e51b815260206004820152601d60248201527f416464726573733a20696e73756666696369656e742062616c616e6365000000604482015290519081900360640190fd5b6040516000906001600160a01b0384169083908381818185875af1925050503d806000811461522d576040519150601f19603f3d011682016040523d82523d6000602084013e615232565b606091505b50509050806141ca5760405162461bcd60e51b815260040180806020018281038252603a81526020018061588b603a913960400191505060405180910390fd5b6141ca8383836040516024018080602001846001600160a01b03168152602001838152602001828103825285818151815260200191508051906020019080838360005b838110156152cd5781810151838201526020016152b5565b50505050905090810190601f1680156152fa5780820380516001836020036101000a031916815260200191505b5060408051601f198184030181529190526020810180516001600160e01b0316630d26b92560e01b17905294506153d39350505050565b600081836153bd5760405162461bcd60e51b81526004018080602001828103825283818151815260200191508051906020019080838360005b8381101561538257818101518382015260200161536a565b50505050905090810190601f1680156153af5780820380516001836020036101000a031916815260200191505b509250505060405180910390fd5b5060008385816153c957fe5b0495945050505050565b80516a636f6e736f6c652e6c6f67602083016000808483855afa5050505050565b6060615403848460008561540b565b949350505050565b60608247101561544c5760405162461bcd60e51b81526004018080602001828103825260268152602001806158c56026913960400191505060405180910390fd5b61545585615567565b6154a6576040805162461bcd60e51b815260206004820152601d60248201527f416464726573733a2063616c6c20746f206e6f6e2d636f6e7472616374000000604482015290519081900360640190fd5b60006060866001600160a01b031685876040518082805190602001908083835b602083106154e55780518252601f1990920191602091820191016154c6565b6001836020036101000a03801982511681845116808217855250505050505090500191505060006040518083038185875af1925050503d8060008114615547576040519150601f19603f3d011682016040523d82523d6000602084013e61554c565b606091505b509150915061555c82828661556d565b979650505050505050565b3b151590565b6060831561557c5750816142f7565b82511561558c5782518084602001fd5b60405162461bcd60e51b815260206004820181815284516024840152845185939192839260440191908501908083836000831561538257818101518382015260200161536a565b6040805161012081018252600080825260208201819052918101829052606081018290526080810182905260a0810182905260c0810182905260e0810182905261010081019190915290565b60405180610100016040528060006001600160a01b0316815260200160608152602001600081526020016000815260200160008152602001600015158152602001600015158152602001600081525090565b508054600082559060005260206000209081019061568f919061574b565b50565b6040805161014081018252600080825260208201819052918101829052606081018290526080810182905260a0810182905260c0810182905260e08101829052610100810182905261012081019190915290565b82805482825590600052602060002090810192821561573b579160200282015b8281111561573b57825182546001600160a01b0319166001600160a01b03909116178255602090920191600190910190615706565b50615747929150615760565b5090565b5b80821115615747576000815560010161574c565b5b808211156157475780546001600160a01b031916815560010161576156fe4f72646572426f6f6b3a206e6f6e2d6578697374656e74206f726465720000005265656e7472616e637947756172643a207265656e7472616e742063616c6c004f72646572426f6f6b2e637265617465496e6372656173654f726465722d696e636f727265637420657865637574696f6e20666565207472616e736665727265644f72646572426f6f6b2e637265617465496e6372656173654f726465722d6f6e6c79207765746820636f756c6420626520777261707065644f72646572426f6f6b2e637265617465496e6372656173654f726465722d5f7075726368617365546f6b656e416d6f756e74557364203e3d206d696e5075726368617365546f6b656e416d6f756e74557364416464726573733a20756e61626c6520746f2073656e642076616c75652c20726563697069656e74206d61792068617665207265766572746564416464726573733a20696e73756666696369656e742062616c616e636520666f722063616c6c4f72646572426f6f6b3a20696e73756666696369656e7420616d6f756e744f75744f72646572426f6f6b3a206f6e6c79207765746820636f756c6420626520777261707065646f72646572426f6f6b2e5f7472616e73666572496e4554482063616c6c65723a2025732c2076616c75653a2025736f72646572426f6f6b2e5f637265617465496e6372656173654f726465722d2063616c6c65723a2025732c206f72646572496e6465783a202573204f72646572426f6f6b2e637265617465496e6372656173654f726465722d696e636f72726563742076616c7565207472616e736665727265644f72646572426f6f6b3a20696e73756666696369656e7420657865637574696f6e206665656f72646572426f6f6b2e5f7472616e736665724f75744554482063616c6c65723a2025732c2076616c75653a2025732c2072656365697665723a202573536166654d6174683a206d756c7469706c69636174696f6e206f766572666c6f774f72646572426f6f6b2e637265617465496e6372656173654f726465722d696e646578546f6b656e3a2025732c20636f6c6c61746572616c546f6b656e3a2025732e4f72646572426f6f6b3a20696e636f72726563742076616c7565207472616e736665727265644f72646572426f6f6b3a20696e76616c696420707269636520666f7220657865637574696f6e4f72646572426f6f6b3a20696e76616c6964205f706174682e6c656e677468005361666545524332303a204552433230206f7065726174696f6e20646964206e6f7420737563636565644f72646572426f6f6b3a20696e636f727265637420657865637574696f6e20666565207472616e736665727265644f72646572426f6f6b2e637265617465496e6372656173654f726465722d696e73756666696369656e7420657865637574696f6e206665654f72646572426f6f6b2e637265617465496e6372656173654f726465722d696e76616c6964205f70617468a26469706673582212207f4f64dc44170901a38d29cf662d4c59fa8ecf8aad304d1ff5c6ce0aed0ccc6a64736f6c634300060c0033",
  "linkReferences": {},
  "deployedLinkReferences": {}
}