{
  "_format": "hh-sol-artifact-1",
  "contractName": "Router",
  "sourceName": "contracts/core/Router.sol",
  "abi": [
    {
      "inputs": [
        {
          "internalType": "address",
          "name": "_vault",
          "type": "address"
        },
        {
          "internalType": "address",
          "name": "_weth",
          "type": "address"
        }
      ],
      "stateMutability": "nonpayable",
      "type": "constructor"
    },
    {
      "anonymous": false,
      "inputs": [
        {
          "indexed": true,
          "internalType": "address",
          "name": "previousOwner",
          "type": "address"
        },
        {
          "indexed": true,
          "internalType": "address",
          "name": "newOwner",
          "type": "address"
        }
      ],
      "name": "OwnershipTransferred",
      "type": "event"
    },
    {
      "anonymous": false,
      "inputs": [
        {
          "indexed": false,
          "internalType": "address",
          "name": "account",
          "type": "address"
        },
        {
          "indexed": false,
          "internalType": "address",
          "name": "tokenIn",
          "type": "address"
        },
        {
          "indexed": false,
          "internalType": "address",
          "name": "tokenOut",
          "type": "address"
        },
        {
          "indexed": false,
          "internalType": "uint256",
          "name": "amountIn",
          "type": "uint256"
        },
        {
          "indexed": false,
          "internalType": "uint256",
          "name": "amountOut",
          "type": "uint256"
        }
      ],
      "name": "Swap",
      "type": "event"
    },
    {
      "inputs": [
        {
          "internalType": "address",
          "name": "_plugin",
          "type": "address"
        }
      ],
      "name": "addPlugin",
      "outputs": [],
      "stateMutability": "nonpayable",
      "type": "function"
    },
    {
      "inputs": [
        {
          "internalType": "address",
          "name": "_plugin",
          "type": "address"
        }
      ],
      "name": "approvePlugin",
      "outputs": [],
      "stateMutability": "nonpayable",
      "type": "function"
    },
    {
      "inputs": [
        {
          "internalType": "address",
          "name": "",
          "type": "address"
        },
        {
          "internalType": "address",
          "name": "",
          "type": "address"
        }
      ],
      "name": "approvedPlugins",
      "outputs": [
        {
          "internalType": "bool",
          "name": "",
          "type": "bool"
        }
      ],
      "stateMutability": "view",
      "type": "function"
    },
    {
      "inputs": [
        {
          "internalType": "address",
          "name": "_collateralToken",
          "type": "address"
        },
        {
          "internalType": "address",
          "name": "_indexToken",
          "type": "address"
        },
        {
          "internalType": "uint256",
          "name": "_collateralDelta",
          "type": "uint256"
        },
        {
          "internalType": "uint256",
          "name": "_sizeDelta",
          "type": "uint256"
        },
        {
          "internalType": "bool",
          "name": "_isLong",
          "type": "bool"
        },
        {
          "internalType": "address",
          "name": "_receiver",
          "type": "address"
        },
        {
          "internalType": "uint256",
          "name": "_price",
          "type": "uint256"
        }
      ],
      "name": "decreasePosition",
      "outputs": [],
      "stateMutability": "nonpayable",
      "type": "function"
    },
    {
      "inputs": [
        {
          "internalType": "address[]",
          "name": "_path",
          "type": "address[]"
        },
        {
          "internalType": "address",
          "name": "_indexToken",
          "type": "address"
        },
        {
          "internalType": "uint256",
          "name": "_collateralDelta",
          "type": "uint256"
        },
        {
          "internalType": "uint256",
          "name": "_sizeDelta",
          "type": "uint256"
        },
        {
          "internalType": "bool",
          "name": "_isLong",
          "type": "bool"
        },
        {
          "internalType": "address",
          "name": "_receiver",
          "type": "address"
        },
        {
          "internalType": "uint256",
          "name": "_price",
          "type": "uint256"
        },
        {
          "internalType": "uint256",
          "name": "_minOut",
          "type": "uint256"
        }
      ],
      "name": "decreasePositionAndSwap",
      "outputs": [],
      "stateMutability": "nonpayable",
      "type": "function"
    },
    {
      "inputs": [
        {
          "internalType": "address[]",
          "name": "_path",
          "type": "address[]"
        },
        {
          "internalType": "address",
          "name": "_indexToken",
          "type": "address"
        },
        {
          "internalType": "uint256",
          "name": "_collateralDelta",
          "type": "uint256"
        },
        {
          "internalType": "uint256",
          "name": "_sizeDelta",
          "type": "uint256"
        },
        {
          "internalType": "bool",
          "name": "_isLong",
          "type": "bool"
        },
        {
          "internalType": "address payable",
          "name": "_receiver",
          "type": "address"
        },
        {
          "internalType": "uint256",
          "name": "_price",
          "type": "uint256"
        },
        {
          "internalType": "uint256",
          "name": "_minOut",
          "type": "uint256"
        }
      ],
      "name": "decreasePositionAndSwapETH",
      "outputs": [],
      "stateMutability": "nonpayable",
      "type": "function"
    },
    {
      "inputs": [
        {
          "internalType": "address",
          "name": "_collateralToken",
          "type": "address"
        },
        {
          "internalType": "address",
          "name": "_indexToken",
          "type": "address"
        },
        {
          "internalType": "uint256",
          "name": "_collateralDelta",
          "type": "uint256"
        },
        {
          "internalType": "uint256",
          "name": "_sizeDelta",
          "type": "uint256"
        },
        {
          "internalType": "bool",
          "name": "_isLong",
          "type": "bool"
        },
        {
          "internalType": "address payable",
          "name": "_receiver",
          "type": "address"
        },
        {
          "internalType": "uint256",
          "name": "_price",
          "type": "uint256"
        }
      ],
      "name": "decreasePositionETH",
      "outputs": [],
      "stateMutability": "nonpayable",
      "type": "function"
    },
    {
      "inputs": [
        {
          "internalType": "address",
          "name": "_plugin",
          "type": "address"
        }
      ],
      "name": "denyPlugin",
      "outputs": [],
      "stateMutability": "nonpayable",
      "type": "function"
    },
    {
      "inputs": [
        {
          "internalType": "address",
          "name": "_token",
          "type": "address"
        },
        {
          "internalType": "uint256",
          "name": "_amount",
          "type": "uint256"
        }
      ],
      "name": "directPoolDeposit",
      "outputs": [],
      "stateMutability": "nonpayable",
      "type": "function"
    },
    {
      "inputs": [],
      "name": "esbt",
      "outputs": [
        {
          "internalType": "address",
          "name": "",
          "type": "address"
        }
      ],
      "stateMutability": "view",
      "type": "function"
    },
    {
      "inputs": [
        {
          "internalType": "address[]",
          "name": "_path",
          "type": "address[]"
        },
        {
          "internalType": "address",
          "name": "_indexToken",
          "type": "address"
        },
        {
          "internalType": "uint256",
          "name": "_amountIn",
          "type": "uint256"
        },
        {
          "internalType": "uint256",
          "name": "_minOut",
          "type": "uint256"
        },
        {
          "internalType": "uint256",
          "name": "_sizeDelta",
          "type": "uint256"
        },
        {
          "internalType": "bool",
          "name": "_isLong",
          "type": "bool"
        },
        {
          "internalType": "uint256",
          "name": "_price",
          "type": "uint256"
        }
      ],
      "name": "increasePosition",
      "outputs": [],
      "stateMutability": "nonpayable",
      "type": "function"
    },
    {
      "inputs": [
        {
          "internalType": "address[]",
          "name": "_path",
          "type": "address[]"
        },
        {
          "internalType": "address",
          "name": "_indexToken",
          "type": "address"
        },
        {
          "internalType": "uint256",
          "name": "_minOut",
          "type": "uint256"
        },
        {
          "internalType": "uint256",
          "name": "_sizeDelta",
          "type": "uint256"
        },
        {
          "internalType": "bool",
          "name": "_isLong",
          "type": "bool"
        },
        {
          "internalType": "uint256",
          "name": "_price",
          "type": "uint256"
        }
      ],
      "name": "increasePositionETH",
      "outputs": [],
      "stateMutability": "payable",
      "type": "function"
    },
    {
      "inputs": [],
      "name": "infCenter",
      "outputs": [
        {
          "internalType": "address",
          "name": "",
          "type": "address"
        }
      ],
      "stateMutability": "view",
      "type": "function"
    },
    {
      "inputs": [],
      "name": "owner",
      "outputs": [
        {
          "internalType": "address",
          "name": "",
          "type": "address"
        }
      ],
      "stateMutability": "view",
      "type": "function"
    },
    {
      "inputs": [
        {
          "internalType": "address",
          "name": "_account",
          "type": "address"
        },
        {
          "internalType": "address",
          "name": "_collateralToken",
          "type": "address"
        },
        {
          "internalType": "address",
          "name": "_indexToken",
          "type": "address"
        },
        {
          "internalType": "uint256",
          "name": "_collateralDelta",
          "type": "uint256"
        },
        {
          "internalType": "uint256",
          "name": "_sizeDelta",
          "type": "uint256"
        },
        {
          "internalType": "bool",
          "name": "_isLong",
          "type": "bool"
        },
        {
          "internalType": "address",
          "name": "_receiver",
          "type": "address"
        }
      ],
      "name": "pluginDecreasePosition",
      "outputs": [
        {
          "internalType": "uint256",
          "name": "",
          "type": "uint256"
        }
      ],
      "stateMutability": "nonpayable",
      "type": "function"
    },
    {
      "inputs": [
        {
          "internalType": "address",
          "name": "_account",
          "type": "address"
        },
        {
          "internalType": "address",
          "name": "_collateralToken",
          "type": "address"
        },
        {
          "internalType": "address",
          "name": "_indexToken",
          "type": "address"
        },
        {
          "internalType": "uint256",
          "name": "_sizeDelta",
          "type": "uint256"
        },
        {
          "internalType": "bool",
          "name": "_isLong",
          "type": "bool"
        }
      ],
      "name": "pluginIncreasePosition",
      "outputs": [],
      "stateMutability": "nonpayable",
      "type": "function"
    },
    {
      "inputs": [
        {
          "internalType": "address",
          "name": "_token",
          "type": "address"
        },
        {
          "internalType": "address",
          "name": "_account",
          "type": "address"
        },
        {
          "internalType": "address",
          "name": "_receiver",
          "type": "address"
        },
        {
          "internalType": "uint256",
          "name": "_amount",
          "type": "uint256"
        }
      ],
      "name": "pluginTransfer",
      "outputs": [],
      "stateMutability": "nonpayable",
      "type": "function"
    },
    {
      "inputs": [
        {
          "internalType": "address",
          "name": "",
          "type": "address"
        }
      ],
      "name": "plugins",
      "outputs": [
        {
          "internalType": "bool",
          "name": "",
          "type": "bool"
        }
      ],
      "stateMutability": "view",
      "type": "function"
    },
    {
      "inputs": [
        {
          "internalType": "address",
          "name": "_plugin",
          "type": "address"
        }
      ],
      "name": "removePlugin",
      "outputs": [],
      "stateMutability": "nonpayable",
      "type": "function"
    },
    {
      "inputs": [],
      "name": "renounceOwnership",
      "outputs": [],
      "stateMutability": "nonpayable",
      "type": "function"
    },
    {
      "inputs": [
        {
          "internalType": "address",
          "name": "_esbt",
          "type": "address"
        }
      ],
      "name": "setESBT",
      "outputs": [],
      "stateMutability": "nonpayable",
      "type": "function"
    },
    {
      "inputs": [
        {
          "internalType": "address",
          "name": "_infCenter",
          "type": "address"
        }
      ],
      "name": "setInfoCenter",
      "outputs": [],
      "stateMutability": "nonpayable",
      "type": "function"
    },
    {
      "inputs": [
        {
          "internalType": "bool",
          "name": "_valid",
          "type": "bool"
        }
      ],
      "name": "setValidateContract",
      "outputs": [],
      "stateMutability": "nonpayable",
      "type": "function"
    },
    {
      "inputs": [
        {
          "internalType": "address[]",
          "name": "_path",
          "type": "address[]"
        },
        {
          "internalType": "uint256",
          "name": "_amountIn",
          "type": "uint256"
        },
        {
          "internalType": "uint256",
          "name": "_minOut",
          "type": "uint256"
        },
        {
          "internalType": "address",
          "name": "_receiver",
          "type": "address"
        }
      ],
      "name": "swap",
      "outputs": [],
      "stateMutability": "nonpayable",
      "type": "function"
    },
    {
      "inputs": [
        {
          "internalType": "address[]",
          "name": "_path",
          "type": "address[]"
        },
        {
          "internalType": "uint256",
          "name": "_minOut",
          "type": "uint256"
        },
        {
          "internalType": "address",
          "name": "_receiver",
          "type": "address"
        }
      ],
      "name": "swapETHToTokens",
      "outputs": [],
      "stateMutability": "payable",
      "type": "function"
    },
    {
      "inputs": [
        {
          "internalType": "address[]",
          "name": "_path",
          "type": "address[]"
        },
        {
          "internalType": "uint256",
          "name": "_amountIn",
          "type": "uint256"
        },
        {
          "internalType": "uint256",
          "name": "_minOut",
          "type": "uint256"
        },
        {
          "internalType": "address payable",
          "name": "_receiver",
          "type": "address"
        }
      ],
      "name": "swapTokensToETH",
      "outputs": [],
      "stateMutability": "nonpayable",
      "type": "function"
    },
    {
      "inputs": [
        {
          "internalType": "address",
          "name": "newOwner",
          "type": "address"
        }
      ],
      "name": "transferOwnership",
      "outputs": [],
      "stateMutability": "nonpayable",
      "type": "function"
    },
    {
      "inputs": [],
      "name": "validateContract",
      "outputs": [
        {
          "internalType": "bool",
          "name": "",
          "type": "bool"
        }
      ],
      "stateMutability": "view",
      "type": "function"
    },
    {
      "inputs": [],
      "name": "vault",
      "outputs": [
        {
          "internalType": "address",
          "name": "",
          "type": "address"
        }
      ],
      "stateMutability": "view",
      "type": "function"
    },
    {
      "inputs": [],
      "name": "weth",
      "outputs": [
        {
          "internalType": "address",
          "name": "",
          "type": "address"
        }
      ],
      "stateMutability": "view",
      "type": "function"
    },
    {
      "inputs": [
        {
          "internalType": "address",
          "name": "_account",
          "type": "address"
        },
        {
          "internalType": "address",
          "name": "_token",
          "type": "address"
        },
        {
          "internalType": "uint256",
          "name": "_amount",
          "type": "uint256"
        }
      ],
      "name": "withdrawToken",
      "outputs": [],
      "stateMutability": "nonpayable",
      "type": "function"
    },
    {
      "stateMutability": "payable",
      "type": "receive"
    }
  ],
  "bytecode": "0x60806040526004805460ff60a01b1916600160a01b1790553480156200002457600080fd5b5060405162002bca38038062002bca8339810160408190526200004791620000f1565b620000523362000084565b600380546001600160a01b039384166001600160a01b0319918216179091556002805492909316911617905562000129565b600080546001600160a01b038381166001600160a01b0319831681178455604051919092169283917f8be0079c531659141344cd1fd0a4f28419497f9722a3daafe3b4186f6b6457e09190a35050565b80516001600160a01b0381168114620000ec57600080fd5b919050565b600080604083850312156200010557600080fd5b6200011083620000d4565b91506200012060208401620000d4565b90509250929050565b612a9180620001396000396000f3fe6080604052600436106101dc5760003560e01c80635fc8500e11610102578063a4d95b6411610095578063cedd437511610064578063cedd43751461060c578063d8867fc814610655578063f2fde38b14610675578063fbfa77cf1461069557600080fd5b8063a4d95b64146105a6578063abe68eaa146105c6578063b32755de146105d9578063b7ddc992146105ec57600080fd5b80638da5cb5b116100d15780638da5cb5b1461050d57806390205d8c1461052b57806390b64ad31461054b578063956f285e1461056b57600080fd5b80635fc8500e146104985780636023e966146104b8578063715018a6146104d85780637b0c1c53146104ed57600080fd5b80632baa031e1161017a5780633fc8cef3116101495780633fc8cef314610408578063430ed37c146104285780634b12e64314610448578063538160711461047857600080fd5b80632baa031e1461034b5780632d4ba6a71461037c5780633039e37f1461039c57806338c74dd9146103bc57600080fd5b80631f1dd176116101b65780631f1dd176146102bd578063243075f5146102dd5780632662166b146102fd5780632a115dc21461032b57600080fd5b806301e33667146102405780630c47934a146102605780631b8278781461029d57600080fd5b3661023b576002546001600160a01b031633146102395760405162461bcd60e51b81526020600482015260166024820152752937baba32b91d1034b73b30b634b21039b2b73232b960511b60448201526064015b60405180910390fd5b005b600080fd5b34801561024c57600080fd5b5061023961025b366004612183565b6106b5565b34801561026c57600080fd5b50600154610280906001600160a01b031681565b6040516001600160a01b0390911681526020015b60405180910390f35b3480156102a957600080fd5b506102396102b83660046121c4565b6106d6565b3480156102c957600080fd5b506102396102d8366004612223565b6107a4565b3480156102e957600080fd5b50600454610280906001600160a01b031681565b34801561030957600080fd5b5061031d61031836600461228b565b61089f565b604051908152602001610294565b34801561033757600080fd5b5061023961034636600461230f565b6109a1565b34801561035757600080fd5b5060045461036c90600160a01b900460ff1681565b6040519015158152602001610294565b34801561038857600080fd5b506102396103973660046123d9565b6109cb565b3480156103a857600080fd5b506102396103b736600461243c565b610b40565b3480156103c857600080fd5b506102396103d736600461230f565b3360009081526006602090815260408083206001600160a01b0394909416835292905220805460ff19166001179055565b34801561041457600080fd5b50600254610280906001600160a01b031681565b34801561043457600080fd5b506102396104433660046124d8565b610c3c565b34801561045457600080fd5b5061036c61046336600461230f565b60056020526000908152604090205460ff1681565b34801561048457600080fd5b5061023961049336600461230f565b610c63565b3480156104a457600080fd5b506102396104b336600461243c565b610c8d565b3480156104c457600080fd5b506102396104d33660046123d9565b610cdf565b3480156104e457600080fd5b50610239610d2c565b3480156104f957600080fd5b50610239610508366004612553565b610d40565b34801561051957600080fd5b506000546001600160a01b0316610280565b34801561053757600080fd5b506102396105463660046124d8565b610d66565b34801561055757600080fd5b50610239610566366004612570565b610d75565b34801561057757600080fd5b5061036c61058636600461259c565b600660209081526000928352604080842090915290825290205460ff1681565b3480156105b257600080fd5b506102396105c136600461230f565b610df3565b6102396105d43660046125d5565b610e1c565b6102396105e7366004612630565b610f37565b3480156105f857600080fd5b506102396106073660046126b0565b611028565b34801561061857600080fd5b5061023961062736600461230f565b3360009081526006602090815260408083206001600160a01b0394909416835292905220805460ff19169055565b34801561066157600080fd5b5061023961067036600461230f565b6110e2565b34801561068157600080fd5b5061023961069036600461230f565b61110e565b3480156106a157600080fd5b50600354610280906001600160a01b031681565b6106bd611187565b6106d16001600160a01b03831684836111e1565b505050565b6106df83611244565b600354604051630daf9c2160e41b81526001600160a01b0386811660048301529091169063daf9c21090602401602060405180830381865afa158015610729573d6000803e3d6000fd5b505050506040513d601f19601f8201168201806040525081019061074d9190612724565b6107895760405162461bcd60e51b815260206004820152600d60248201526c34b73b30b634b2103a37b5b2b760991b6044820152606401610230565b61079e6001600160a01b0385168484846113e8565b50505050565b6107ad85611244565b6003546040516348d91abf60e01b81526001600160a01b03878116600483015286811660248301528581166044830152606482018590528315156084830152909116906348d91abf9060a401600060405180830381600087803b15801561081357600080fd5b505af1158015610827573d6000803e3d6000fd5b505060048054600354604051630bf4bce360e41b81526001600160a01b03928316955063bf4bce309450610866938b9390921691889160009101612741565b600060405180830381600087803b15801561088057600080fd5b505af1158015610894573d6000803e3d6000fd5b505050505050505050565b60006108aa88611244565b60048054600354604051630bf4bce360e41b81526001600160a01b039283169363bf4bce30936108e4938e939116918a9160649101612741565b600060405180830381600087803b1580156108fe57600080fd5b505af1158015610912573d6000803e3d6000fd5b505060035460405163082a084960e41b81526001600160a01b0390911692506382a084909150610952908b908b908b908b908b908b908b9060040161276a565b6020604051808303816000875af1158015610971573d6000803e3d6000fd5b505050506040513d601f19601f8201168201806040525081019061099591906127a9565b98975050505050505050565b6109a9611187565b600180546001600160a01b0319166001600160a01b0392909216919091179055565b60025484516001600160a01b039091169085906109ea906001906127d8565b815181106109fa576109fa6127eb565b60200260200101516001600160a01b031614610a285760405162461bcd60e51b815260040161023090612801565b610a72335b60035486516001600160a01b039091169086908890600090610a5157610a516127eb565b60200260200101516001600160a01b03166113e8909392919063ffffffff16565b6000610a7f858430611420565b9050610a8b8183611584565b7fcd3829a3813dc3cdd188fd3d01dcf3268c16be2fdd2dd21d0665418816e460623386600081518110610ac057610ac06127eb565b60200260200101518760018951610ad791906127d8565b81518110610ae757610ae76127eb565b60200260200101518785604051610b319594939291906001600160a01b03958616815293851660208501529190931660408301526060820192909252608081019190915260a00190565b60405180910390a15050505050565b60025488516001600160a01b03909116908990610b5f906001906127d8565b81518110610b6f57610b6f6127eb565b60200260200101516001600160a01b031614610b9d5760405162461bcd60e51b815260040161023090612801565b6000610bc889600081518110610bb557610bb56127eb565b60200260200101518989898930896115fa565b9050610c17600360009054906101000a90046001600160a01b0316828b600081518110610bf757610bf76127eb565b60200260200101516001600160a01b03166111e19092919063ffffffff16565b6000610c248a8430611420565b9050610c308186611584565b50505050505050505050565b6000610c4d888888888830886115fa565b9050610c598184611584565b5050505050505050565b610c6b611187565b600480546001600160a01b0319166001600160a01b0392909216919091179055565b6000610ca589600081518110610bb557610bb56127eb565b9050610cd4600360009054906101000a90046001600160a01b0316828b600081518110610bf757610bf76127eb565b610c30898386611420565b610ce833610a2d565b6000610cf5858484611420565b90507fcd3829a3813dc3cdd188fd3d01dcf3268c16be2fdd2dd21d0665418816e460623386600081518110610ac057610ac06127eb565b610d34611187565b610d3e60006117c7565b565b610d48611187565b60048054911515600160a01b0260ff60a01b19909216919091179055565b610c59878787878787876115fa565b610d90336003546001600160a01b03858116929116846113e8565b600354604051635f7bc11960e01b81526001600160a01b03848116600483015290911690635f7bc11990602401600060405180830381600087803b158015610dd757600080fd5b505af1158015610deb573d6000803e3d6000fd5b505050505050565b610dfb611187565b6001600160a01b03166000908152600560205260409020805460ff19169055565b60025483516001600160a01b03909116908490600090610e3e57610e3e6127eb565b60200260200101516001600160a01b031614610e6c5760405162461bcd60e51b815260040161023090612801565b610e74611817565b6000610e81848484611420565b90507fcd3829a3813dc3cdd188fd3d01dcf3268c16be2fdd2dd21d0665418816e460623385600081518110610eb857610eb86127eb565b60200260200101518660018851610ecf91906127d8565b81518110610edf57610edf6127eb565b60200260200101513485604051610f299594939291906001600160a01b03958616815293851660208501529190931660408301526060820192909252608081019190915260a00190565b60405180910390a150505050565b60025486516001600160a01b03909116908790600090610f5957610f596127eb565b60200260200101516001600160a01b031614610f875760405162461bcd60e51b815260040161023090612801565b3415610f9557610f95611817565b60018651118015610fa65750600034115b15610ff5576000610fb8878630611420565b9050610ff3600360009054906101000a90046001600160a01b0316828960018b51610fe391906127d8565b81518110610bf757610bf76127eb565b505b610deb866001885161100791906127d8565b81518110611017576110176127eb565b60200260200101518685858561189e565b8415611056576110563360035489516001600160a01b039091169088908b90600090610a5157610a516127eb565b600187511180156110675750600085115b156110a6576000611079888630611420565b90506110a4600360009054906101000a90046001600160a01b0316828a60018c51610fe391906127d8565b505b6110d987600189516110b891906127d8565b815181106110c8576110c86127eb565b60200260200101518785858561189e565b50505050505050565b6110ea611187565b6001600160a01b03166000908152600560205260409020805460ff19166001179055565b611116611187565b6001600160a01b03811661117b5760405162461bcd60e51b815260206004820152602660248201527f4f776e61626c653a206e6577206f776e657220697320746865207a65726f206160448201526564647265737360d01b6064820152608401610230565b611184816117c7565b50565b6000546001600160a01b03163314610d3e5760405162461bcd60e51b815260206004820181905260248201527f4f776e61626c653a2063616c6c6572206973206e6f7420746865206f776e65726044820152606401610230565b6040516001600160a01b0383166024820152604481018290526106d190849063a9059cbb60e01b906064015b60408051601f198184030181529190526020810180516001600160e01b03166001600160e01b031990931692909217909152611b6b565b3360009081526005602052604090205460ff1661129c5760405162461bcd60e51b81526020600482015260166024820152752937baba32b91d1034b73b30b634b21038363ab3b4b760511b6044820152606401610230565b6001600160a01b038116600090815260066020908152604080832033845290915290205460ff1661130f5760405162461bcd60e51b815260206004820152601b60248201527f526f757465723a20706c7567696e206e6f7420617070726f76656400000000006044820152606401610230565b803b151580156113285750600454600160a01b900460ff165b156111845760015460405163dbcd8c2560e01b81523060048201526001600160a01b0383811660248301529091169063dbcd8c2590604401602060405180830381865afa15801561137d573d6000803e3d6000fd5b505050506040513d601f19601f820116820180604052508101906113a19190612724565b6111845760405162461bcd60e51b81526020600482015260186024820152771a5b9d985b1a5908151c98591a5b99c810dbdb9d1c9858dd60421b6044820152606401610230565b6040516001600160a01b038085166024830152831660448201526064810182905261079e9085906323b872dd60e01b9060840161120d565b600083516002036114725761146b84600081518110611441576114416127eb565b60200260200101518560018151811061145c5761145c6127eb565b60200260200101518585611c3d565b905061157d565b83516003036115355760006114be85600081518110611493576114936127eb565b6020026020010151866001815181106114ae576114ae6127eb565b6020026020010151600030611c3d565b90506114ed600360009054906101000a90046001600160a01b03168287600181518110610bf757610bf76127eb565b61152d85600181518110611503576115036127eb565b60200260200101518660028151811061151e5761151e6127eb565b60200260200101518686611c3d565b91505061157d565b60405162461bcd60e51b815260206004820152601c60248201527f526f757465723a20696e76616c6964205f706174682e6c656e677468000000006044820152606401610230565b9392505050565b600254604051632e1a7d4d60e01b8152600481018490526001600160a01b0390911690632e1a7d4d90602401600060405180830381600087803b1580156115ca57600080fd5b505af11580156115de573d6000803e3d6000fd5b506115f6925050506001600160a01b03821683611e9c565b5050565b60008315611693576003546040516340d3096b60e11b81526001600160a01b038981166004830152849216906381a612d690602401602060405180830381865afa15801561164c573d6000803e3d6000fd5b505050506040513d601f19601f8201168201806040525081019061167091906127a9565b101561168e5760405162461bcd60e51b815260040161023090612830565b61171f565b600354604051637092736960e11b81526001600160a01b0389811660048301528492169063e124e6d290602401602060405180830381865afa1580156116dd573d6000803e3d6000fd5b505050506040513d601f19601f8201168201806040525081019061170191906127a9565b111561171f5760405162461bcd60e51b815260040161023090612873565b60048054600354604051630bf4bce360e41b81526001600160a01b039283169363bf4bce30936117599389939116918b9160649101612741565b600060405180830381600087803b15801561177357600080fd5b505af1158015611787573d6000803e3d6000fd5b505060035460405163082a084960e41b81526001600160a01b0390911692506382a0849091506109529033908c908c908c908c908c908c9060040161276a565b600080546001600160a01b038381166001600160a01b0319831681178455604051919092169283917f8be0079c531659141344cd1fd0a4f28419497f9722a3daafe3b4186f6b6457e09190a35050565b600260009054906101000a90046001600160a01b03166001600160a01b031663d0e30db0346040518263ffffffff1660e01b81526004016000604051808303818588803b15801561186757600080fd5b505af115801561187b573d6000803e3d6000fd5b5050600354600254610d3e94506001600160a01b039081169350169050346111e1565b811561193557600354604051637092736960e11b81526001600160a01b0386811660048301528392169063e124e6d290602401602060405180830381865afa1580156118ee573d6000803e3d6000fd5b505050506040513d601f19601f8201168201806040525081019061191291906127a9565b11156119305760405162461bcd60e51b815260040161023090612873565b6119c1565b6003546040516340d3096b60e11b81526001600160a01b038681166004830152839216906381a612d690602401602060405180830381865afa15801561197f573d6000803e3d6000fd5b505050506040513d601f19601f820116820180604052508101906119a391906127a9565b10156119c15760405162461bcd60e51b815260040161023090612830565b33803b15611a845760015460405163dbcd8c2560e01b81523060048201526001600160a01b0383811660248301529091169063dbcd8c2590604401602060405180830381865afa158015611a19573d6000803e3d6000fd5b505050506040513d601f19601f82011682018060405250810190611a3d9190612724565b611a845760405162461bcd60e51b81526020600482015260186024820152771a5b9d985b1a5908151c98591a5b99c810dbdb9d1c9858dd60421b6044820152606401610230565b6003546040516348d91abf60e01b81526001600160a01b03838116600483015288811660248301528781166044830152606482018790528515156084830152909116906348d91abf9060a401600060405180830381600087803b158015611aea57600080fd5b505af1158015611afe573d6000803e3d6000fd5b505060048054600354604051630bf4bce360e41b81526001600160a01b03928316955063bf4bce309450611b3d938793909216918a9160009101612741565b600060405180830381600087803b158015611b5757600080fd5b505af1158015610c30573d6000803e3d6000fd5b6000611bc0826040518060400160405280602081526020017f5361666545524332303a206c6f772d6c6576656c2063616c6c206661696c6564815250856001600160a01b0316611fb59092919063ffffffff16565b8051909150156106d15780806020019051810190611bde9190612724565b6106d15760405162461bcd60e51b815260206004820152602a60248201527f5361666545524332303a204552433230206f7065726174696f6e20646964206e6044820152691bdd081cdd58d8d9595960b21b6064820152608401610230565b600354604051634998b10960e11b81526001600160a01b0386811660048301528581166024830152838116604483015260009283929116906393316212906064016020604051808303816000875af1158015611c9d573d6000803e3d6000fd5b505050506040513d601f19601f82011682018060405250810190611cc191906127a9565b905083811015611d135760405162461bcd60e51b815260206004820181905260248201527f526f757465723a20616d6f756e744f7574206e6f74207361746973666965642e6044820152606401610230565b6003546040516340d3096b60e11b81526001600160a01b03878116600483015260009216906381a612d690602401602060405180830381865afa158015611d5e573d6000803e3d6000fd5b505050506040513d601f19601f82011682018060405250810190611d8291906127a9565b6003546040516323b95ceb60e21b81526001600160a01b03898116600483015292935060009290911690638ee573ac90602401602060405180830381865afa158015611dd2573d6000803e3d6000fd5b505050506040513d601f19601f82011682018060405250810190611df691906127a9565b90506000611e18611e0883600a61299b565b611e128686611fc4565b90611fd9565b6004805460035460405163210925e560e21b81526001600160a01b038b8116948201949094529083166024820152604481018490529293501690638424979490606401600060405180830381600087803b158015611e7557600080fd5b505af1158015611e89573d6000803e3d6000fd5b509596505050505050505b949350505050565b80471015611eec5760405162461bcd60e51b815260206004820152601d60248201527f416464726573733a20696e73756666696369656e742062616c616e63650000006044820152606401610230565b6000826001600160a01b03168260405160006040518083038185875af1925050503d8060008114611f39576040519150601f19603f3d011682016040523d82523d6000602084013e611f3e565b606091505b50509050806106d15760405162461bcd60e51b815260206004820152603a60248201527f416464726573733a20756e61626c6520746f2073656e642076616c75652c207260448201527f6563697069656e74206d617920686176652072657665727465640000000000006064820152608401610230565b6060611e948484600085611fe5565b6000611fd082846129a7565b90505b92915050565b6000611fd082846129c6565b6060824710156120465760405162461bcd60e51b815260206004820152602660248201527f416464726573733a20696e73756666696369656e742062616c616e636520666f6044820152651c8818d85b1b60d21b6064820152608401610230565b600080866001600160a01b031685876040516120629190612a0c565b60006040518083038185875af1925050503d806000811461209f576040519150601f19603f3d011682016040523d82523d6000602084013e6120a4565b606091505b50915091506120b5878383876120c0565b979650505050505050565b6060831561212f578251600003612128576001600160a01b0385163b6121285760405162461bcd60e51b815260206004820152601d60248201527f416464726573733a2063616c6c20746f206e6f6e2d636f6e74726163740000006044820152606401610230565b5081611e94565b611e9483838151156121445781518083602001fd5b8060405162461bcd60e51b81526004016102309190612a28565b6001600160a01b038116811461118457600080fd5b803561217e8161215e565b919050565b60008060006060848603121561219857600080fd5b83356121a38161215e565b925060208401356121b38161215e565b929592945050506040919091013590565b600080600080608085870312156121da57600080fd5b84356121e58161215e565b935060208501356121f58161215e565b925060408501356122058161215e565b9396929550929360600135925050565b801515811461118457600080fd5b600080600080600060a0868803121561223b57600080fd5b85356122468161215e565b945060208601356122568161215e565b935060408601356122668161215e565b925060608601359150608086013561227d81612215565b809150509295509295909350565b600080600080600080600060e0888a0312156122a657600080fd5b87356122b18161215e565b965060208801356122c18161215e565b955060408801356122d18161215e565b9450606088013593506080880135925060a08801356122ef81612215565b915060c08801356122ff8161215e565b8091505092959891949750929550565b60006020828403121561232157600080fd5b813561157d8161215e565b634e487b7160e01b600052604160045260246000fd5b600082601f83011261235357600080fd5b8135602067ffffffffffffffff808311156123705761237061232c565b8260051b604051601f19603f830116810181811084821117156123955761239561232c565b6040529384528581018301938381019250878511156123b357600080fd5b83870191505b848210156120b5576123ca82612173565b835291830191908301906123b9565b600080600080608085870312156123ef57600080fd5b843567ffffffffffffffff81111561240657600080fd5b61241287828801612342565b945050602085013592506040850135915060608501356124318161215e565b939692955090935050565b600080600080600080600080610100898b03121561245957600080fd5b883567ffffffffffffffff81111561247057600080fd5b61247c8b828c01612342565b985050602089013561248d8161215e565b9650604089013595506060890135945060808901356124ab81612215565b935060a08901356124bb8161215e565b979a969950949793969295929450505060c08201359160e0013590565b600080600080600080600060e0888a0312156124f357600080fd5b87356124fe8161215e565b9650602088013561250e8161215e565b95506040880135945060608801359350608088013561252c81612215565b925060a088013561253c8161215e565b8092505060c0880135905092959891949750929550565b60006020828403121561256557600080fd5b813561157d81612215565b6000806040838503121561258357600080fd5b823561258e8161215e565b946020939093013593505050565b600080604083850312156125af57600080fd5b82356125ba8161215e565b915060208301356125ca8161215e565b809150509250929050565b6000806000606084860312156125ea57600080fd5b833567ffffffffffffffff81111561260157600080fd5b61260d86828701612342565b9350506020840135915060408401356126258161215e565b809150509250925092565b60008060008060008060c0878903121561264957600080fd5b863567ffffffffffffffff81111561266057600080fd5b61266c89828a01612342565b965050602087013561267d8161215e565b94506040870135935060608701359250608087013561269b81612215565b8092505060a087013590509295509295509295565b600080600080600080600060e0888a0312156126cb57600080fd5b873567ffffffffffffffff8111156126e257600080fd5b6126ee8a828b01612342565b97505060208801356126ff8161215e565b955060408801359450606088013593506080880135925060a088013561253c81612215565b60006020828403121561273657600080fd5b815161157d81612215565b6001600160a01b0394851681529290931660208301526040820152606081019190915260800190565b6001600160a01b0397881681529587166020870152938616604086015260608501929092526080840152151560a083015290911660c082015260e00190565b6000602082840312156127bb57600080fd5b5051919050565b634e487b7160e01b600052601160045260246000fd5b81810381811115611fd357611fd36127c2565b634e487b7160e01b600052603260045260246000fd5b6020808252601590820152740a4deeae8cae47440d2dcecc2d8d2c840bee0c2e8d605b1b604082015260600190565b60208082526023908201527f526f757465723a206d61726b207072696365206c6f776572207468616e206c696040820152621b5a5d60ea1b606082015260800190565b60208082526024908201527f526f757465723a206d61726b20707269636520686967686572207468616e206c6040820152631a5b5a5d60e21b606082015260800190565b600181815b808511156128f25781600019048211156128d8576128d86127c2565b808516156128e557918102915b93841c93908002906128bc565b509250929050565b60008261290957506001611fd3565b8161291657506000611fd3565b816001811461292c576002811461293657612952565b6001915050611fd3565b60ff841115612947576129476127c2565b50506001821b611fd3565b5060208310610133831016604e8410600b8410161715612975575081810a611fd3565b61297f83836128b7565b8060001904821115612993576129936127c2565b029392505050565b6000611fd083836128fa565b60008160001904831182151516156129c1576129c16127c2565b500290565b6000826129e357634e487b7160e01b600052601260045260246000fd5b500490565b60005b83811015612a035781810151838201526020016129eb565b50506000910152565b60008251612a1e8184602087016129e8565b9190910192915050565b6020815260008251806020840152612a478160408501602087016129e8565b601f01601f1916919091016040019291505056fea2646970667358221220ab0e6b3b130a40cd40abfcaa8feabbdcc343d46967ae564901b8896129026e1c64736f6c63430008100033",
  "linkReferences": {},
  "deployedLinkReferences": {}
}