{
  "_format": "hh-sol-artifact-1",
  "contractName": "Vault",
  "sourceName": "contracts/core/Vault.sol",
  "abi": [
    {
      "anonymous": false,
      "inputs": [
        {
          "indexed": false,
          "internalType": "bytes32",
          "name": "key",
          "type": "bytes32"
        },
        {
          "indexed": false,
          "internalType": "address",
          "name": "account",
          "type": "address"
        },
        {
          "indexed": false,
          "internalType": "uint256",
          "name": "size",
          "type": "uint256"
        },
        {
          "indexed": false,
          "internalType": "uint256",
          "name": "collateral",
          "type": "uint256"
        },
        {
          "indexed": false,
          "internalType": "uint256",
          "name": "averagePrice",
          "type": "uint256"
        },
        {
          "indexed": false,
          "internalType": "uint256",
          "name": "entryFundingRate",
          "type": "uint256"
        },
        {
          "indexed": false,
          "internalType": "uint256",
          "name": "reserveAmount",
          "type": "uint256"
        },
        {
          "indexed": false,
          "internalType": "int256",
          "name": "realisedPnl",
          "type": "int256"
        }
      ],
      "name": "ClosePosition",
      "type": "event"
    },
    {
      "anonymous": false,
      "inputs": [
        {
          "indexed": false,
          "internalType": "address",
          "name": "token",
          "type": "address"
        },
        {
          "indexed": false,
          "internalType": "uint256",
          "name": "feeUsd",
          "type": "uint256"
        },
        {
          "indexed": false,
          "internalType": "uint256",
          "name": "feeTokens",
          "type": "uint256"
        }
      ],
      "name": "CollectMarginFees",
      "type": "event"
    },
    {
      "anonymous": false,
      "inputs": [
        {
          "indexed": false,
          "internalType": "address",
          "name": "token",
          "type": "address"
        },
        {
          "indexed": false,
          "internalType": "uint256",
          "name": "feeUsd",
          "type": "uint256"
        },
        {
          "indexed": false,
          "internalType": "uint256",
          "name": "feeTokens",
          "type": "uint256"
        }
      ],
      "name": "CollectSwapFees",
      "type": "event"
    },
    {
      "anonymous": false,
      "inputs": [
        {
          "indexed": false,
          "internalType": "address",
          "name": "token",
          "type": "address"
        },
        {
          "indexed": false,
          "internalType": "uint256",
          "name": "amount",
          "type": "uint256"
        }
      ],
      "name": "DecreaseGuaranteedUsd",
      "type": "event"
    },
    {
      "anonymous": false,
      "inputs": [
        {
          "indexed": false,
          "internalType": "address",
          "name": "token",
          "type": "address"
        },
        {
          "indexed": false,
          "internalType": "uint256",
          "name": "amount",
          "type": "uint256"
        }
      ],
      "name": "DecreasePoolAmount",
      "type": "event"
    },
    {
      "anonymous": false,
      "inputs": [
        {
          "indexed": false,
          "internalType": "bytes32",
          "name": "key",
          "type": "bytes32"
        },
        {
          "indexed": false,
          "internalType": "address",
          "name": "account",
          "type": "address"
        },
        {
          "indexed": false,
          "internalType": "address",
          "name": "collateralToken",
          "type": "address"
        },
        {
          "indexed": false,
          "internalType": "address",
          "name": "indexToken",
          "type": "address"
        },
        {
          "indexed": false,
          "internalType": "uint256",
          "name": "collateralDelta",
          "type": "uint256"
        },
        {
          "indexed": false,
          "internalType": "uint256",
          "name": "sizeDelta",
          "type": "uint256"
        },
        {
          "indexed": false,
          "internalType": "bool",
          "name": "isLong",
          "type": "bool"
        },
        {
          "indexed": false,
          "internalType": "uint256",
          "name": "price",
          "type": "uint256"
        },
        {
          "indexed": false,
          "internalType": "uint256",
          "name": "fee",
          "type": "uint256"
        },
        {
          "indexed": false,
          "internalType": "uint256",
          "name": "usdOut",
          "type": "uint256"
        },
        {
          "indexed": false,
          "internalType": "uint256",
          "name": "latestCollatral",
          "type": "uint256"
        },
        {
          "indexed": false,
          "internalType": "uint256",
          "name": "prevCollateral",
          "type": "uint256"
        }
      ],
      "name": "DecreasePosition",
      "type": "event"
    },
    {
      "anonymous": false,
      "inputs": [
        {
          "indexed": false,
          "internalType": "bytes32",
          "name": "key",
          "type": "bytes32"
        },
        {
          "indexed": false,
          "internalType": "uint256",
          "name": "transOut",
          "type": "uint256"
        }
      ],
      "name": "DecreasePositionTransOut",
      "type": "event"
    },
    {
      "anonymous": false,
      "inputs": [
        {
          "indexed": false,
          "internalType": "address",
          "name": "token",
          "type": "address"
        },
        {
          "indexed": false,
          "internalType": "uint256",
          "name": "amount",
          "type": "uint256"
        }
      ],
      "name": "DecreaseReservedAmount",
      "type": "event"
    },
    {
      "anonymous": false,
      "inputs": [
        {
          "indexed": false,
          "internalType": "address",
          "name": "token",
          "type": "address"
        },
        {
          "indexed": false,
          "internalType": "uint256",
          "name": "amount",
          "type": "uint256"
        }
      ],
      "name": "DirectPoolDeposit",
      "type": "event"
    },
    {
      "anonymous": false,
      "inputs": [
        {
          "indexed": false,
          "internalType": "address",
          "name": "token",
          "type": "address"
        },
        {
          "indexed": false,
          "internalType": "uint256",
          "name": "amount",
          "type": "uint256"
        }
      ],
      "name": "IncreaseGuaranteedUsd",
      "type": "event"
    },
    {
      "anonymous": false,
      "inputs": [
        {
          "indexed": false,
          "internalType": "address",
          "name": "token",
          "type": "address"
        },
        {
          "indexed": false,
          "internalType": "uint256",
          "name": "amount",
          "type": "uint256"
        }
      ],
      "name": "IncreasePoolAmount",
      "type": "event"
    },
    {
      "anonymous": false,
      "inputs": [
        {
          "indexed": false,
          "internalType": "bytes32",
          "name": "key",
          "type": "bytes32"
        },
        {
          "indexed": false,
          "internalType": "address",
          "name": "account",
          "type": "address"
        },
        {
          "indexed": false,
          "internalType": "address",
          "name": "collateralToken",
          "type": "address"
        },
        {
          "indexed": false,
          "internalType": "address",
          "name": "indexToken",
          "type": "address"
        },
        {
          "indexed": false,
          "internalType": "uint256",
          "name": "collateralDelta",
          "type": "uint256"
        },
        {
          "indexed": false,
          "internalType": "uint256",
          "name": "sizeDelta",
          "type": "uint256"
        },
        {
          "indexed": false,
          "internalType": "bool",
          "name": "isLong",
          "type": "bool"
        },
        {
          "indexed": false,
          "internalType": "uint256",
          "name": "price",
          "type": "uint256"
        },
        {
          "indexed": false,
          "internalType": "uint256",
          "name": "fee",
          "type": "uint256"
        }
      ],
      "name": "IncreasePosition",
      "type": "event"
    },
    {
      "anonymous": false,
      "inputs": [
        {
          "indexed": false,
          "internalType": "address",
          "name": "token",
          "type": "address"
        },
        {
          "indexed": false,
          "internalType": "uint256",
          "name": "amount",
          "type": "uint256"
        }
      ],
      "name": "IncreaseReservedAmount",
      "type": "event"
    },
    {
      "anonymous": false,
      "inputs": [
        {
          "indexed": false,
          "internalType": "bytes32",
          "name": "key",
          "type": "bytes32"
        },
        {
          "indexed": false,
          "internalType": "address",
          "name": "account",
          "type": "address"
        },
        {
          "indexed": false,
          "internalType": "address",
          "name": "collateralToken",
          "type": "address"
        },
        {
          "indexed": false,
          "internalType": "address",
          "name": "indexToken",
          "type": "address"
        },
        {
          "indexed": false,
          "internalType": "bool",
          "name": "isLong",
          "type": "bool"
        },
        {
          "indexed": false,
          "internalType": "uint256",
          "name": "size",
          "type": "uint256"
        },
        {
          "indexed": false,
          "internalType": "uint256",
          "name": "collateral",
          "type": "uint256"
        },
        {
          "indexed": false,
          "internalType": "uint256",
          "name": "reserveAmount",
          "type": "uint256"
        },
        {
          "indexed": false,
          "internalType": "int256",
          "name": "realisedPnl",
          "type": "int256"
        },
        {
          "indexed": false,
          "internalType": "uint256",
          "name": "markPrice",
          "type": "uint256"
        }
      ],
      "name": "LiquidatePosition",
      "type": "event"
    },
    {
      "anonymous": false,
      "inputs": [
        {
          "indexed": true,
          "internalType": "address",
          "name": "previousOwner",
          "type": "address"
        },
        {
          "indexed": true,
          "internalType": "address",
          "name": "newOwner",
          "type": "address"
        }
      ],
      "name": "OwnershipTransferred",
      "type": "event"
    },
    {
      "anonymous": false,
      "inputs": [
        {
          "indexed": false,
          "internalType": "address",
          "name": "account",
          "type": "address"
        },
        {
          "indexed": false,
          "internalType": "address",
          "name": "tokenIn",
          "type": "address"
        },
        {
          "indexed": false,
          "internalType": "address",
          "name": "tokenOut",
          "type": "address"
        },
        {
          "indexed": false,
          "internalType": "uint256",
          "name": "amountIn",
          "type": "uint256"
        },
        {
          "indexed": false,
          "internalType": "uint256",
          "name": "amountOut",
          "type": "uint256"
        },
        {
          "indexed": false,
          "internalType": "uint256",
          "name": "amountOutAfterFees",
          "type": "uint256"
        },
        {
          "indexed": false,
          "internalType": "uint256",
          "name": "feeBasisPoints",
          "type": "uint256"
        }
      ],
      "name": "Swap",
      "type": "event"
    },
    {
      "anonymous": false,
      "inputs": [
        {
          "indexed": false,
          "internalType": "address",
          "name": "token",
          "type": "address"
        },
        {
          "indexed": false,
          "internalType": "uint256",
          "name": "fundingRate",
          "type": "uint256"
        }
      ],
      "name": "UpdateFundingRate",
      "type": "event"
    },
    {
      "anonymous": false,
      "inputs": [
        {
          "indexed": false,
          "internalType": "bytes32",
          "name": "key",
          "type": "bytes32"
        },
        {
          "indexed": false,
          "internalType": "bool",
          "name": "hasProfit",
          "type": "bool"
        },
        {
          "indexed": false,
          "internalType": "uint256",
          "name": "delta",
          "type": "uint256"
        },
        {
          "indexed": false,
          "internalType": "uint256",
          "name": "currentSize",
          "type": "uint256"
        },
        {
          "indexed": false,
          "internalType": "uint256",
          "name": "currentCollateral",
          "type": "uint256"
        },
        {
          "indexed": false,
          "internalType": "uint256",
          "name": "usdOut",
          "type": "uint256"
        },
        {
          "indexed": false,
          "internalType": "uint256",
          "name": "usdOutAfterFee",
          "type": "uint256"
        }
      ],
      "name": "UpdatePnl",
      "type": "event"
    },
    {
      "anonymous": false,
      "inputs": [
        {
          "indexed": false,
          "internalType": "bytes32",
          "name": "key",
          "type": "bytes32"
        },
        {
          "indexed": false,
          "internalType": "address",
          "name": "account",
          "type": "address"
        },
        {
          "indexed": false,
          "internalType": "uint256",
          "name": "size",
          "type": "uint256"
        },
        {
          "indexed": false,
          "internalType": "uint256",
          "name": "collateral",
          "type": "uint256"
        },
        {
          "indexed": false,
          "internalType": "uint256",
          "name": "averagePrice",
          "type": "uint256"
        },
        {
          "indexed": false,
          "internalType": "uint256",
          "name": "entryFundingRate",
          "type": "uint256"
        },
        {
          "indexed": false,
          "internalType": "uint256",
          "name": "reserveAmount",
          "type": "uint256"
        },
        {
          "indexed": false,
          "internalType": "int256",
          "name": "realisedPnl",
          "type": "int256"
        },
        {
          "indexed": false,
          "internalType": "uint256",
          "name": "markPrice",
          "type": "uint256"
        }
      ],
      "name": "UpdatePosition",
      "type": "event"
    },
    {
      "anonymous": false,
      "inputs": [
        {
          "indexed": false,
          "internalType": "bytes32",
          "name": "key",
          "type": "bytes32"
        },
        {
          "indexed": false,
          "internalType": "address",
          "name": "account",
          "type": "address"
        },
        {
          "indexed": false,
          "internalType": "uint256",
          "name": "size",
          "type": "uint256"
        }
      ],
      "name": "ZeroOut",
      "type": "event"
    },
    {
      "inputs": [
        {
          "internalType": "address",
          "name": "_router",
          "type": "address"
        }
      ],
      "name": "addRouter",
      "outputs": [],
      "stateMutability": "nonpayable",
      "type": "function"
    },
    {
      "inputs": [
        {
          "internalType": "uint256",
          "name": "_amount",
          "type": "uint256"
        },
        {
          "internalType": "address",
          "name": "_tokenDiv",
          "type": "address"
        },
        {
          "internalType": "address",
          "name": "_tokenMul",
          "type": "address"
        }
      ],
      "name": "adjustForDecimals",
      "outputs": [
        {
          "internalType": "uint256",
          "name": "",
          "type": "uint256"
        }
      ],
      "stateMutability": "view",
      "type": "function"
    },
    {
      "inputs": [
        {
          "internalType": "uint256",
          "name": "",
          "type": "uint256"
        }
      ],
      "name": "allWhitelistedTokens",
      "outputs": [
        {
          "internalType": "address",
          "name": "",
          "type": "address"
        }
      ],
      "stateMutability": "view",
      "type": "function"
    },
    {
      "inputs": [],
      "name": "allWhitelistedTokensLength",
      "outputs": [
        {
          "internalType": "uint256",
          "name": "",
          "type": "uint256"
        }
      ],
      "stateMutability": "view",
      "type": "function"
    },
    {
      "inputs": [
        {
          "internalType": "address",
          "name": "",
          "type": "address"
        },
        {
          "internalType": "address",
          "name": "",
          "type": "address"
        }
      ],
      "name": "approvedRouters",
      "outputs": [
        {
          "internalType": "bool",
          "name": "",
          "type": "bool"
        }
      ],
      "stateMutability": "view",
      "type": "function"
    },
    {
      "inputs": [
        {
          "internalType": "address",
          "name": "",
          "type": "address"
        }
      ],
      "name": "bufferAmounts",
      "outputs": [
        {
          "internalType": "uint256",
          "name": "",
          "type": "uint256"
        }
      ],
      "stateMutability": "view",
      "type": "function"
    },
    {
      "inputs": [
        {
          "internalType": "address",
          "name": "_token",
          "type": "address"
        },
        {
          "internalType": "address",
          "name": "_receiver",
          "type": "address"
        }
      ],
      "name": "buyUSDX",
      "outputs": [
        {
          "internalType": "uint256",
          "name": "",
          "type": "uint256"
        }
      ],
      "stateMutability": "nonpayable",
      "type": "function"
    },
    {
      "inputs": [],
      "name": "claimFeeReserves",
      "outputs": [
        {
          "internalType": "uint256",
          "name": "",
          "type": "uint256"
        }
      ],
      "stateMutability": "nonpayable",
      "type": "function"
    },
    {
      "inputs": [
        {
          "internalType": "address",
          "name": "_token",
          "type": "address"
        }
      ],
      "name": "claimFeeToken",
      "outputs": [
        {
          "internalType": "uint256",
          "name": "",
          "type": "uint256"
        }
      ],
      "stateMutability": "nonpayable",
      "type": "function"
    },
    {
      "inputs": [],
      "name": "claimableFeeReserves",
      "outputs": [
        {
          "internalType": "uint256",
          "name": "",
          "type": "uint256"
        }
      ],
      "stateMutability": "view",
      "type": "function"
    },
    {
      "inputs": [
        {
          "internalType": "address",
          "name": "_token",
          "type": "address"
        }
      ],
      "name": "clearTokenConfig",
      "outputs": [],
      "stateMutability": "nonpayable",
      "type": "function"
    },
    {
      "inputs": [
        {
          "internalType": "address",
          "name": "",
          "type": "address"
        }
      ],
      "name": "cumulativeFundingRates",
      "outputs": [
        {
          "internalType": "uint256",
          "name": "",
          "type": "uint256"
        }
      ],
      "stateMutability": "view",
      "type": "function"
    },
    {
      "inputs": [
        {
          "internalType": "address",
          "name": "_account",
          "type": "address"
        },
        {
          "internalType": "address",
          "name": "_collateralToken",
          "type": "address"
        },
        {
          "internalType": "address",
          "name": "_indexToken",
          "type": "address"
        },
        {
          "internalType": "uint256",
          "name": "_collateralDelta",
          "type": "uint256"
        },
        {
          "internalType": "uint256",
          "name": "_sizeDelta",
          "type": "uint256"
        },
        {
          "internalType": "bool",
          "name": "_isLong",
          "type": "bool"
        },
        {
          "internalType": "address",
          "name": "_receiver",
          "type": "address"
        }
      ],
      "name": "decreasePosition",
      "outputs": [
        {
          "internalType": "uint256",
          "name": "",
          "type": "uint256"
        }
      ],
      "stateMutability": "nonpayable",
      "type": "function"
    },
    {
      "inputs": [
        {
          "internalType": "address",
          "name": "_token",
          "type": "address"
        }
      ],
      "name": "directPoolDeposit",
      "outputs": [],
      "stateMutability": "nonpayable",
      "type": "function"
    },
    {
      "inputs": [],
      "name": "eSBT",
      "outputs": [
        {
          "internalType": "contract IESBT",
          "name": "",
          "type": "address"
        }
      ],
      "stateMutability": "view",
      "type": "function"
    },
    {
      "inputs": [],
      "name": "feeClaimedUSD",
      "outputs": [
        {
          "internalType": "uint256",
          "name": "",
          "type": "uint256"
        }
      ],
      "stateMutability": "view",
      "type": "function"
    },
    {
      "inputs": [
        {
          "internalType": "address",
          "name": "",
          "type": "address"
        }
      ],
      "name": "feeReserves",
      "outputs": [
        {
          "internalType": "uint256",
          "name": "",
          "type": "uint256"
        }
      ],
      "stateMutability": "view",
      "type": "function"
    },
    {
      "inputs": [],
      "name": "feeReservesDiscountedUSD",
      "outputs": [
        {
          "internalType": "uint256",
          "name": "",
          "type": "uint256"
        }
      ],
      "stateMutability": "view",
      "type": "function"
    },
    {
      "inputs": [
        {
          "internalType": "uint256",
          "name": "",
          "type": "uint256"
        }
      ],
      "name": "feeReservesRecord",
      "outputs": [
        {
          "internalType": "uint256",
          "name": "",
          "type": "uint256"
        }
      ],
      "stateMutability": "view",
      "type": "function"
    },
    {
      "inputs": [],
      "name": "feeReservesUSD",
      "outputs": [
        {
          "internalType": "uint256",
          "name": "",
          "type": "uint256"
        }
      ],
      "stateMutability": "view",
      "type": "function"
    },
    {
      "inputs": [
        {
          "internalType": "address",
          "name": "",
          "type": "address"
        }
      ],
      "name": "feeSold",
      "outputs": [
        {
          "internalType": "uint256",
          "name": "",
          "type": "uint256"
        }
      ],
      "stateMutability": "view",
      "type": "function"
    },
    {
      "inputs": [],
      "name": "fundingInterval",
      "outputs": [
        {
          "internalType": "uint256",
          "name": "",
          "type": "uint256"
        }
      ],
      "stateMutability": "view",
      "type": "function"
    },
    {
      "inputs": [],
      "name": "fundingRateFactor",
      "outputs": [
        {
          "internalType": "uint256",
          "name": "",
          "type": "uint256"
        }
      ],
      "stateMutability": "view",
      "type": "function"
    },
    {
      "inputs": [
        {
          "internalType": "address",
          "name": "_indexToken",
          "type": "address"
        },
        {
          "internalType": "uint256",
          "name": "_size",
          "type": "uint256"
        },
        {
          "internalType": "uint256",
          "name": "_averagePrice",
          "type": "uint256"
        },
        {
          "internalType": "bool",
          "name": "_isLong",
          "type": "bool"
        },
        {
          "internalType": "uint256",
          "name": "_lastIncreasedTime",
          "type": "uint256"
        }
      ],
      "name": "getDelta",
      "outputs": [
        {
          "internalType": "bool",
          "name": "",
          "type": "bool"
        },
        {
          "internalType": "uint256",
          "name": "",
          "type": "uint256"
        }
      ],
      "stateMutability": "view",
      "type": "function"
    },
    {
      "inputs": [
        {
          "internalType": "address",
          "name": "_token",
          "type": "address"
        }
      ],
      "name": "getGlobalShortDelta",
      "outputs": [
        {
          "internalType": "bool",
          "name": "",
          "type": "bool"
        },
        {
          "internalType": "uint256",
          "name": "",
          "type": "uint256"
        }
      ],
      "stateMutability": "view",
      "type": "function"
    },
    {
      "inputs": [
        {
          "internalType": "address",
          "name": "_token",
          "type": "address"
        }
      ],
      "name": "getMaxPrice",
      "outputs": [
        {
          "internalType": "uint256",
          "name": "",
          "type": "uint256"
        }
      ],
      "stateMutability": "view",
      "type": "function"
    },
    {
      "inputs": [
        {
          "internalType": "address",
          "name": "_token",
          "type": "address"
        }
      ],
      "name": "getMinPrice",
      "outputs": [
        {
          "internalType": "uint256",
          "name": "",
          "type": "uint256"
        }
      ],
      "stateMutability": "view",
      "type": "function"
    },
    {
      "inputs": [
        {
          "internalType": "address",
          "name": "_token",
          "type": "address"
        }
      ],
      "name": "getNextFundingRate",
      "outputs": [
        {
          "internalType": "uint256",
          "name": "",
          "type": "uint256"
        }
      ],
      "stateMutability": "view",
      "type": "function"
    },
    {
      "inputs": [
        {
          "internalType": "address",
          "name": "_indexToken",
          "type": "address"
        },
        {
          "internalType": "uint256",
          "name": "_nextPrice",
          "type": "uint256"
        },
        {
          "internalType": "uint256",
          "name": "_sizeDelta",
          "type": "uint256"
        }
      ],
      "name": "getNextGlobalShortAveragePrice",
      "outputs": [
        {
          "internalType": "uint256",
          "name": "",
          "type": "uint256"
        }
      ],
      "stateMutability": "view",
      "type": "function"
    },
    {
      "inputs": [
        {
          "internalType": "address",
          "name": "_account",
          "type": "address"
        },
        {
          "internalType": "address",
          "name": "_collateralToken",
          "type": "address"
        },
        {
          "internalType": "address",
          "name": "_indexToken",
          "type": "address"
        },
        {
          "internalType": "bool",
          "name": "_isLong",
          "type": "bool"
        }
      ],
      "name": "getPosition",
      "outputs": [
        {
          "internalType": "uint256",
          "name": "",
          "type": "uint256"
        },
        {
          "internalType": "uint256",
          "name": "",
          "type": "uint256"
        },
        {
          "internalType": "uint256",
          "name": "",
          "type": "uint256"
        },
        {
          "internalType": "uint256",
          "name": "",
          "type": "uint256"
        },
        {
          "internalType": "uint256",
          "name": "",
          "type": "uint256"
        },
        {
          "internalType": "uint256",
          "name": "",
          "type": "uint256"
        },
        {
          "internalType": "bool",
          "name": "",
          "type": "bool"
        },
        {
          "internalType": "uint256",
          "name": "",
          "type": "uint256"
        }
      ],
      "stateMutability": "view",
      "type": "function"
    },
    {
      "inputs": [
        {
          "internalType": "bytes32",
          "name": "_key",
          "type": "bytes32"
        }
      ],
      "name": "getPositionByKey",
      "outputs": [
        {
          "internalType": "uint256",
          "name": "",
          "type": "uint256"
        },
        {
          "internalType": "uint256",
          "name": "",
          "type": "uint256"
        },
        {
          "internalType": "uint256",
          "name": "",
          "type": "uint256"
        },
        {
          "internalType": "uint256",
          "name": "",
          "type": "uint256"
        },
        {
          "internalType": "uint256",
          "name": "",
          "type": "uint256"
        },
        {
          "internalType": "uint256",
          "name": "",
          "type": "uint256"
        },
        {
          "internalType": "bool",
          "name": "",
          "type": "bool"
        },
        {
          "internalType": "uint256",
          "name": "",
          "type": "uint256"
        }
      ],
      "stateMutability": "view",
      "type": "function"
    },
    {
      "inputs": [
        {
          "internalType": "address",
          "name": "_account",
          "type": "address"
        },
        {
          "internalType": "address",
          "name": "_collateralToken",
          "type": "address"
        },
        {
          "internalType": "address",
          "name": "_indexToken",
          "type": "address"
        },
        {
          "internalType": "bool",
          "name": "_isLong",
          "type": "bool"
        }
      ],
      "name": "getPositionLeverage",
      "outputs": [
        {
          "internalType": "uint256",
          "name": "",
          "type": "uint256"
        }
      ],
      "stateMutability": "view",
      "type": "function"
    },
    {
      "inputs": [
        {
          "internalType": "address",
          "name": "_token",
          "type": "address"
        },
        {
          "internalType": "uint256",
          "name": "_usdxAmount",
          "type": "uint256"
        }
      ],
      "name": "getRedemptionAmount",
      "outputs": [
        {
          "internalType": "uint256",
          "name": "",
          "type": "uint256"
        }
      ],
      "stateMutability": "view",
      "type": "function"
    },
    {
      "inputs": [
        {
          "internalType": "address",
          "name": "_token",
          "type": "address"
        }
      ],
      "name": "getRedemptionCollateral",
      "outputs": [
        {
          "internalType": "uint256",
          "name": "",
          "type": "uint256"
        }
      ],
      "stateMutability": "view",
      "type": "function"
    },
    {
      "inputs": [
        {
          "internalType": "address",
          "name": "_token",
          "type": "address"
        }
      ],
      "name": "getRedemptionCollateralUsd",
      "outputs": [
        {
          "internalType": "uint256",
          "name": "",
          "type": "uint256"
        }
      ],
      "stateMutability": "view",
      "type": "function"
    },
    {
      "inputs": [
        {
          "internalType": "address",
          "name": "_token",
          "type": "address"
        }
      ],
      "name": "getTargetUsdxAmount",
      "outputs": [
        {
          "internalType": "uint256",
          "name": "",
          "type": "uint256"
        }
      ],
      "stateMutability": "view",
      "type": "function"
    },
    {
      "inputs": [
        {
          "internalType": "address",
          "name": "",
          "type": "address"
        }
      ],
      "name": "globalShortAveragePrices",
      "outputs": [
        {
          "internalType": "uint256",
          "name": "",
          "type": "uint256"
        }
      ],
      "stateMutability": "view",
      "type": "function"
    },
    {
      "inputs": [
        {
          "internalType": "address",
          "name": "",
          "type": "address"
        }
      ],
      "name": "globalShortSizes",
      "outputs": [
        {
          "internalType": "uint256",
          "name": "",
          "type": "uint256"
        }
      ],
      "stateMutability": "view",
      "type": "function"
    },
    {
      "inputs": [
        {
          "internalType": "address",
          "name": "",
          "type": "address"
        }
      ],
      "name": "guaranteedUsd",
      "outputs": [
        {
          "internalType": "uint256",
          "name": "",
          "type": "uint256"
        }
      ],
      "stateMutability": "view",
      "type": "function"
    },
    {
      "inputs": [],
      "name": "inManagerMode",
      "outputs": [
        {
          "internalType": "bool",
          "name": "",
          "type": "bool"
        }
      ],
      "stateMutability": "view",
      "type": "function"
    },
    {
      "inputs": [],
      "name": "inPrivateLiquidationMode",
      "outputs": [
        {
          "internalType": "bool",
          "name": "",
          "type": "bool"
        }
      ],
      "stateMutability": "view",
      "type": "function"
    },
    {
      "inputs": [
        {
          "internalType": "address",
          "name": "_account",
          "type": "address"
        },
        {
          "internalType": "address",
          "name": "_collateralToken",
          "type": "address"
        },
        {
          "internalType": "address",
          "name": "_indexToken",
          "type": "address"
        },
        {
          "internalType": "uint256",
          "name": "_sizeDelta",
          "type": "uint256"
        },
        {
          "internalType": "bool",
          "name": "_isLong",
          "type": "bool"
        }
      ],
      "name": "increasePosition",
      "outputs": [],
      "stateMutability": "nonpayable",
      "type": "function"
    },
    {
      "inputs": [
        {
          "internalType": "address",
          "name": "_router",
          "type": "address"
        },
        {
          "internalType": "address",
          "name": "_usdx",
          "type": "address"
        },
        {
          "internalType": "address",
          "name": "_priceFeed",
          "type": "address"
        },
        {
          "internalType": "uint256",
          "name": "",
          "type": "uint256"
        },
        {
          "internalType": "uint256",
          "name": "_fundingRateFactor",
          "type": "uint256"
        },
        {
          "internalType": "uint256",
          "name": "_stableFundingRateFactor",
          "type": "uint256"
        }
      ],
      "name": "initialize",
      "outputs": [],
      "stateMutability": "nonpayable",
      "type": "function"
    },
    {
      "inputs": [],
      "name": "isInitialized",
      "outputs": [
        {
          "internalType": "bool",
          "name": "",
          "type": "bool"
        }
      ],
      "stateMutability": "view",
      "type": "function"
    },
    {
      "inputs": [],
      "name": "isLeverageEnabled",
      "outputs": [
        {
          "internalType": "bool",
          "name": "",
          "type": "bool"
        }
      ],
      "stateMutability": "view",
      "type": "function"
    },
    {
      "inputs": [
        {
          "internalType": "address",
          "name": "",
          "type": "address"
        }
      ],
      "name": "isLiquidator",
      "outputs": [
        {
          "internalType": "bool",
          "name": "",
          "type": "bool"
        }
      ],
      "stateMutability": "view",
      "type": "function"
    },
    {
      "inputs": [
        {
          "internalType": "address",
          "name": "",
          "type": "address"
        }
      ],
      "name": "isManager",
      "outputs": [
        {
          "internalType": "bool",
          "name": "",
          "type": "bool"
        }
      ],
      "stateMutability": "view",
      "type": "function"
    },
    {
      "inputs": [],
      "name": "isSwapEnabled",
      "outputs": [
        {
          "internalType": "bool",
          "name": "",
          "type": "bool"
        }
      ],
      "stateMutability": "view",
      "type": "function"
    },
    {
      "inputs": [
        {
          "internalType": "address",
          "name": "",
          "type": "address"
        }
      ],
      "name": "lastFundingTimes",
      "outputs": [
        {
          "internalType": "uint256",
          "name": "",
          "type": "uint256"
        }
      ],
      "stateMutability": "view",
      "type": "function"
    },
    {
      "inputs": [
        {
          "internalType": "address",
          "name": "_account",
          "type": "address"
        },
        {
          "internalType": "address",
          "name": "_collateralToken",
          "type": "address"
        },
        {
          "internalType": "address",
          "name": "_indexToken",
          "type": "address"
        },
        {
          "internalType": "bool",
          "name": "_isLong",
          "type": "bool"
        },
        {
          "internalType": "address",
          "name": "_feeReceiver",
          "type": "address"
        }
      ],
      "name": "liquidatePosition",
      "outputs": [],
      "stateMutability": "nonpayable",
      "type": "function"
    },
    {
      "inputs": [
        {
          "internalType": "address",
          "name": "",
          "type": "address"
        }
      ],
      "name": "maxGlobalShortSizes",
      "outputs": [
        {
          "internalType": "uint256",
          "name": "",
          "type": "uint256"
        }
      ],
      "stateMutability": "view",
      "type": "function"
    },
    {
      "inputs": [
        {
          "internalType": "address",
          "name": "",
          "type": "address"
        }
      ],
      "name": "maxUSDAmounts",
      "outputs": [
        {
          "internalType": "uint256",
          "name": "",
          "type": "uint256"
        }
      ],
      "stateMutability": "view",
      "type": "function"
    },
    {
      "inputs": [
        {
          "internalType": "address",
          "name": "",
          "type": "address"
        }
      ],
      "name": "minProfitBasisPoints",
      "outputs": [
        {
          "internalType": "uint256",
          "name": "",
          "type": "uint256"
        }
      ],
      "stateMutability": "view",
      "type": "function"
    },
    {
      "inputs": [],
      "name": "owner",
      "outputs": [
        {
          "internalType": "address",
          "name": "",
          "type": "address"
        }
      ],
      "stateMutability": "view",
      "type": "function"
    },
    {
      "inputs": [
        {
          "internalType": "address",
          "name": "",
          "type": "address"
        }
      ],
      "name": "poolAmounts",
      "outputs": [
        {
          "internalType": "uint256",
          "name": "",
          "type": "uint256"
        }
      ],
      "stateMutability": "view",
      "type": "function"
    },
    {
      "inputs": [
        {
          "internalType": "bytes32",
          "name": "",
          "type": "bytes32"
        }
      ],
      "name": "positions",
      "outputs": [
        {
          "internalType": "uint256",
          "name": "size",
          "type": "uint256"
        },
        {
          "internalType": "uint256",
          "name": "collateral",
          "type": "uint256"
        },
        {
          "internalType": "uint256",
          "name": "averagePrice",
          "type": "uint256"
        },
        {
          "internalType": "uint256",
          "name": "entryFundingRate",
          "type": "uint256"
        },
        {
          "internalType": "uint256",
          "name": "reserveAmount",
          "type": "uint256"
        },
        {
          "internalType": "int256",
          "name": "realisedPnl",
          "type": "int256"
        },
        {
          "internalType": "uint256",
          "name": "lastIncreasedTime",
          "type": "uint256"
        }
      ],
      "stateMutability": "view",
      "type": "function"
    },
    {
      "inputs": [],
      "name": "priceFeed",
      "outputs": [
        {
          "internalType": "address",
          "name": "",
          "type": "address"
        }
      ],
      "stateMutability": "view",
      "type": "function"
    },
    {
      "inputs": [
        {
          "internalType": "address",
          "name": "_router",
          "type": "address"
        }
      ],
      "name": "removeRouter",
      "outputs": [],
      "stateMutability": "nonpayable",
      "type": "function"
    },
    {
      "inputs": [],
      "name": "renounceOwnership",
      "outputs": [],
      "stateMutability": "nonpayable",
      "type": "function"
    },
    {
      "inputs": [
        {
          "internalType": "address",
          "name": "",
          "type": "address"
        }
      ],
      "name": "reservedAmounts",
      "outputs": [
        {
          "internalType": "uint256",
          "name": "",
          "type": "uint256"
        }
      ],
      "stateMutability": "view",
      "type": "function"
    },
    {
      "inputs": [],
      "name": "router",
      "outputs": [
        {
          "internalType": "address",
          "name": "",
          "type": "address"
        }
      ],
      "stateMutability": "view",
      "type": "function"
    },
    {
      "inputs": [
        {
          "internalType": "address",
          "name": "_token",
          "type": "address"
        },
        {
          "internalType": "address",
          "name": "_receiver",
          "type": "address"
        },
        {
          "internalType": "uint256",
          "name": "_usdxAmount",
          "type": "uint256"
        }
      ],
      "name": "sellUSDX",
      "outputs": [
        {
          "internalType": "uint256",
          "name": "",
          "type": "uint256"
        }
      ],
      "stateMutability": "nonpayable",
      "type": "function"
    },
    {
      "inputs": [
        {
          "internalType": "address",
          "name": "_token",
          "type": "address"
        },
        {
          "internalType": "uint256",
          "name": "_amount",
          "type": "uint256"
        }
      ],
      "name": "setBufferAmount",
      "outputs": [],
      "stateMutability": "nonpayable",
      "type": "function"
    },
    {
      "inputs": [
        {
          "internalType": "address",
          "name": "_eSBT",
          "type": "address"
        }
      ],
      "name": "setESBT",
      "outputs": [],
      "stateMutability": "nonpayable",
      "type": "function"
    },
    {
      "inputs": [
        {
          "internalType": "uint256",
          "name": "_fundingInterval",
          "type": "uint256"
        },
        {
          "internalType": "uint256",
          "name": "_fundingRateFactor",
          "type": "uint256"
        },
        {
          "internalType": "uint256",
          "name": "_stableFundingRateFactor",
          "type": "uint256"
        }
      ],
      "name": "setFundingRate",
      "outputs": [],
      "stateMutability": "nonpayable",
      "type": "function"
    },
    {
      "inputs": [
        {
          "internalType": "bool",
          "name": "_inManagerMode",
          "type": "bool"
        }
      ],
      "name": "setInManagerMode",
      "outputs": [],
      "stateMutability": "nonpayable",
      "type": "function"
    },
    {
      "inputs": [
        {
          "internalType": "bool",
          "name": "_inPrivateLiquidationMode",
          "type": "bool"
        }
      ],
      "name": "setInPrivateLiquidationMode",
      "outputs": [],
      "stateMutability": "nonpayable",
      "type": "function"
    },
    {
      "inputs": [
        {
          "internalType": "bool",
          "name": "_isLeverageEnabled",
          "type": "bool"
        }
      ],
      "name": "setIsLeverageEnabled",
      "outputs": [],
      "stateMutability": "nonpayable",
      "type": "function"
    },
    {
      "inputs": [
        {
          "internalType": "bool",
          "name": "_isSwapEnabled",
          "type": "bool"
        }
      ],
      "name": "setIsSwapEnabled",
      "outputs": [],
      "stateMutability": "nonpayable",
      "type": "function"
    },
    {
      "inputs": [
        {
          "internalType": "address",
          "name": "_liquidator",
          "type": "address"
        },
        {
          "internalType": "bool",
          "name": "_isActive",
          "type": "bool"
        }
      ],
      "name": "setLiquidator",
      "outputs": [],
      "stateMutability": "nonpayable",
      "type": "function"
    },
    {
      "inputs": [
        {
          "internalType": "address",
          "name": "_manager",
          "type": "address"
        },
        {
          "internalType": "bool",
          "name": "_isManager",
          "type": "bool"
        }
      ],
      "name": "setManager",
      "outputs": [],
      "stateMutability": "nonpayable",
      "type": "function"
    },
    {
      "inputs": [
        {
          "internalType": "address",
          "name": "_token",
          "type": "address"
        },
        {
          "internalType": "uint256",
          "name": "_amount",
          "type": "uint256"
        }
      ],
      "name": "setMaxGlobalShortSize",
      "outputs": [],
      "stateMutability": "nonpayable",
      "type": "function"
    },
    {
      "inputs": [
        {
          "internalType": "address",
          "name": "_priceFeed",
          "type": "address"
        }
      ],
      "name": "setPriceFeed",
      "outputs": [],
      "stateMutability": "nonpayable",
      "type": "function"
    },
    {
      "inputs": [
        {
          "internalType": "address",
          "name": "_router",
          "type": "address"
        }
      ],
      "name": "setRouter",
      "outputs": [],
      "stateMutability": "nonpayable",
      "type": "function"
    },
    {
      "inputs": [
        {
          "internalType": "address",
          "name": "_token",
          "type": "address"
        },
        {
          "internalType": "uint256",
          "name": "_tokenDecimals",
          "type": "uint256"
        },
        {
          "internalType": "uint256",
          "name": "_tokenWeight",
          "type": "uint256"
        },
        {
          "internalType": "uint256",
          "name": "_minProfitBps",
          "type": "uint256"
        },
        {
          "internalType": "uint256",
          "name": "_maxUSDAmount",
          "type": "uint256"
        },
        {
          "internalType": "bool",
          "name": "_isStable",
          "type": "bool"
        },
        {
          "internalType": "bool",
          "name": "_isShortable",
          "type": "bool"
        }
      ],
      "name": "setTokenConfig",
      "outputs": [],
      "stateMutability": "nonpayable",
      "type": "function"
    },
    {
      "inputs": [
        {
          "internalType": "address",
          "name": "_token",
          "type": "address"
        },
        {
          "internalType": "uint256",
          "name": "_amount",
          "type": "uint256"
        }
      ],
      "name": "setUsdxAmount",
      "outputs": [],
      "stateMutability": "nonpayable",
      "type": "function"
    },
    {
      "inputs": [
        {
          "internalType": "address",
          "name": "_vaultUtils",
          "type": "address"
        }
      ],
      "name": "setVaultUtils",
      "outputs": [],
      "stateMutability": "nonpayable",
      "type": "function"
    },
    {
      "inputs": [
        {
          "internalType": "address",
          "name": "",
          "type": "address"
        }
      ],
      "name": "shortableTokens",
      "outputs": [
        {
          "internalType": "bool",
          "name": "",
          "type": "bool"
        }
      ],
      "stateMutability": "view",
      "type": "function"
    },
    {
      "inputs": [],
      "name": "stableFundingRateFactor",
      "outputs": [
        {
          "internalType": "uint256",
          "name": "",
          "type": "uint256"
        }
      ],
      "stateMutability": "view",
      "type": "function"
    },
    {
      "inputs": [
        {
          "internalType": "address",
          "name": "",
          "type": "address"
        }
      ],
      "name": "stableTokens",
      "outputs": [
        {
          "internalType": "bool",
          "name": "",
          "type": "bool"
        }
      ],
      "stateMutability": "view",
      "type": "function"
    },
    {
      "inputs": [
        {
          "internalType": "address",
          "name": "_tokenIn",
          "type": "address"
        },
        {
          "internalType": "address",
          "name": "_tokenOut",
          "type": "address"
        },
        {
          "internalType": "address",
          "name": "_receiver",
          "type": "address"
        }
      ],
      "name": "swap",
      "outputs": [
        {
          "internalType": "uint256",
          "name": "",
          "type": "uint256"
        }
      ],
      "stateMutability": "nonpayable",
      "type": "function"
    },
    {
      "inputs": [
        {
          "internalType": "address",
          "name": "",
          "type": "address"
        }
      ],
      "name": "tokenBalances",
      "outputs": [
        {
          "internalType": "uint256",
          "name": "",
          "type": "uint256"
        }
      ],
      "stateMutability": "view",
      "type": "function"
    },
    {
      "inputs": [
        {
          "internalType": "address",
          "name": "",
          "type": "address"
        }
      ],
      "name": "tokenDecimals",
      "outputs": [
        {
          "internalType": "uint256",
          "name": "",
          "type": "uint256"
        }
      ],
      "stateMutability": "view",
      "type": "function"
    },
    {
      "inputs": [
        {
          "internalType": "address",
          "name": "_token",
          "type": "address"
        },
        {
          "internalType": "uint256",
          "name": "_tokenAmount",
          "type": "uint256"
        }
      ],
      "name": "tokenToUsdMin",
      "outputs": [
        {
          "internalType": "uint256",
          "name": "",
          "type": "uint256"
        }
      ],
      "stateMutability": "view",
      "type": "function"
    },
    {
      "inputs": [
        {
          "internalType": "address",
          "name": "_token",
          "type": "address"
        }
      ],
      "name": "tokenUtilization",
      "outputs": [
        {
          "internalType": "uint256",
          "name": "",
          "type": "uint256"
        }
      ],
      "stateMutability": "view",
      "type": "function"
    },
    {
      "inputs": [
        {
          "internalType": "address",
          "name": "",
          "type": "address"
        }
      ],
      "name": "tokenWeights",
      "outputs": [
        {
          "internalType": "uint256",
          "name": "",
          "type": "uint256"
        }
      ],
      "stateMutability": "view",
      "type": "function"
    },
    {
      "inputs": [],
      "name": "totalTokenWeights",
      "outputs": [
        {
          "internalType": "uint256",
          "name": "",
          "type": "uint256"
        }
      ],
      "stateMutability": "view",
      "type": "function"
    },
    {
      "inputs": [
        {
          "internalType": "address",
          "name": "newOwner",
          "type": "address"
        }
      ],
      "name": "transferOwnership",
      "outputs": [],
      "stateMutability": "nonpayable",
      "type": "function"
    },
    {
      "inputs": [
        {
          "internalType": "address",
          "name": "_collateralToken",
          "type": "address"
        },
        {
          "internalType": "address",
          "name": "",
          "type": "address"
        }
      ],
      "name": "updateCumulativeFundingRate",
      "outputs": [],
      "stateMutability": "nonpayable",
      "type": "function"
    },
    {
      "inputs": [
        {
          "internalType": "address",
          "name": "_newVault",
          "type": "address"
        },
        {
          "internalType": "address",
          "name": "_token",
          "type": "address"
        },
        {
          "internalType": "uint256",
          "name": "_amount",
          "type": "uint256"
        }
      ],
      "name": "upgradeVault",
      "outputs": [],
      "stateMutability": "nonpayable",
      "type": "function"
    },
    {
      "inputs": [
        {
          "internalType": "address",
          "name": "_token",
          "type": "address"
        },
        {
          "internalType": "uint256",
          "name": "_usdAmount",
          "type": "uint256"
        },
        {
          "internalType": "uint256",
          "name": "_price",
          "type": "uint256"
        }
      ],
      "name": "usdToToken",
      "outputs": [
        {
          "internalType": "uint256",
          "name": "",
          "type": "uint256"
        }
      ],
      "stateMutability": "view",
      "type": "function"
    },
    {
      "inputs": [
        {
          "internalType": "address",
          "name": "_token",
          "type": "address"
        },
        {
          "internalType": "uint256",
          "name": "_usdAmount",
          "type": "uint256"
        }
      ],
      "name": "usdToTokenMax",
      "outputs": [
        {
          "internalType": "uint256",
          "name": "",
          "type": "uint256"
        }
      ],
      "stateMutability": "view",
      "type": "function"
    },
    {
      "inputs": [
        {
          "internalType": "address",
          "name": "_token",
          "type": "address"
        },
        {
          "internalType": "uint256",
          "name": "_usdAmount",
          "type": "uint256"
        }
      ],
      "name": "usdToTokenMin",
      "outputs": [
        {
          "internalType": "uint256",
          "name": "",
          "type": "uint256"
        }
      ],
      "stateMutability": "view",
      "type": "function"
    },
    {
      "inputs": [],
      "name": "usdx",
      "outputs": [
        {
          "internalType": "address",
          "name": "",
          "type": "address"
        }
      ],
      "stateMutability": "view",
      "type": "function"
    },
    {
      "inputs": [
        {
          "internalType": "address",
          "name": "",
          "type": "address"
        }
      ],
      "name": "usdxAmounts",
      "outputs": [
        {
          "internalType": "uint256",
          "name": "",
          "type": "uint256"
        }
      ],
      "stateMutability": "view",
      "type": "function"
    },
    {
      "inputs": [],
      "name": "usdxSupply",
      "outputs": [
        {
          "internalType": "uint256",
          "name": "",
          "type": "uint256"
        }
      ],
      "stateMutability": "view",
      "type": "function"
    },
    {
      "inputs": [],
      "name": "vaultUtils",
      "outputs": [
        {
          "internalType": "contract IVaultUtils",
          "name": "",
          "type": "address"
        }
      ],
      "stateMutability": "view",
      "type": "function"
    },
    {
      "inputs": [],
      "name": "vaultUtilsAddress",
      "outputs": [
        {
          "internalType": "address",
          "name": "",
          "type": "address"
        }
      ],
      "stateMutability": "view",
      "type": "function"
    },
    {
      "inputs": [],
      "name": "whitelistedTokenCount",
      "outputs": [
        {
          "internalType": "uint256",
          "name": "",
          "type": "uint256"
        }
      ],
      "stateMutability": "view",
      "type": "function"
    },
    {
      "inputs": [
        {
          "internalType": "address",
          "name": "",
          "type": "address"
        }
      ],
      "name": "whitelistedTokens",
      "outputs": [
        {
          "internalType": "bool",
          "name": "",
          "type": "bool"
        }
      ],
      "stateMutability": "view",
      "type": "function"
    }
  ],
  "bytecode": "0x60806040526001805461010160a81b61ffff60a81b19909116179055617080600955600d805461ffff19166101001790553480156200003d57600080fd5b5060016000556200004e3362000054565b620000a6565b600180546001600160a01b038381166001600160a01b0319831681179093556040519116919082907f8be0079c531659141344cd1fd0a4f28419497f9722a3daafe3b4186f6b6457e090600090a35050565b615d9b80620000b66000396000f3fe608060405234801561001057600080fd5b506004361061059c5760003560e01c806382a08490116102e5578063c4f718bf1161018d578063e13bc831116100f4578063f2fde38b116100ad578063f887ea4011610087578063f887ea4014610ecb578063fa12dbc014610ede578063fbfded6d14610ef1578063fd074c1014610f0457600080fd5b8063f2fde38b14610e82578063f385314314610e95578063f3ae241514610ea857600080fd5b8063e13bc83114610e03578063e468baf014610e16578063e67f59a714610e29578063efa10a6e14610e3c578063f07456ce14610e4f578063f07bbf7714610e6f57600080fd5b8063d8f897c311610146578063d8f897c314610d6e578063daf9c21014610d8e578063db3555fb14610db1578063dc8f5fac14610dd4578063de2ea94814610ddd578063e124e6d214610df057600080fd5b8063c4f718bf14610d04578063c65bc7b114610d0d578063c8d0805214610d2c578063c98a863d14610d3f578063c994081e14610d52578063cea0c32814610d5b57600080fd5b80639849e4121161024c578063a5e90eee11610205578063b136ca49116101df578063b136ca4914610cab578063b364accb14610cbe578063c0d7865514610cd1578063c3c7b9e914610ce457600080fd5b8063a5e90eee14610c65578063a93acac214610c78578063ab2f3ad414610c8b57600080fd5b80639849e41214610c125780639899cd0214610c1b578063995e93df14610c2e5780639d7432ca14610c36578063a28c5a4014610c49578063a42ab3d214610c5257600080fd5b80638e1f09e41161029e5780638e1f09e414610b7f5780638ee573ac14610b925780639060b1ca14610bb25780639331621214610bbf5780639400b0ff14610bd25780639698d25a14610bf257600080fd5b806382a0849014610af55780638585f4d214610b0857806388b1fbdf14610b1b5780638a27d46814610b3b5780638a78daa814610b4e5780638da5cb5b14610b6e57600080fd5b80634a3f088d1161044857806360922199116103af57806371089f4d11610368578063728cdbca11610342578063728cdbca14610aa9578063741bef1a14610abc5780637c2eb9f714610acf57806381a612d614610ae257600080fd5b806371089f4d14610a7b578063715018a614610a8e578063724e78da14610a9657600080fd5b806360922199146109cc57806362287a32146109fa5780636274980314610a035780636abbe0c814610a235780636ae0b15414610a365780636ce902ae14610a7257600080fd5b806352f55eed1161040157806352f55eed14610936578063536ba7c91461095657806353816071146109695780635c07eaab1461097c5780635f7bc119146109a65780635fa95dcf146109b957600080fd5b80634a3f088d146107f05780634a993ee914610840578063514ea4bf1461086057806351723e82146108e0578063523fba7f146108f3578063529a356f1461091357600080fd5b806330455ede116105075780633a401409116104c0578063421528731161049a578063421528731461079457806342b60b03146107a75780634453a374146107ca57806348d91abf146107dd57600080fd5b80633a4014091461075a5780633c5a6e351461076d5780633e72a2621461078057600080fd5b806330455ede146106c1578063311176d7146106d4578063351a964d146106ff57806335f725d914610713578063390f03c614610726578063392e53cd1461074657600080fd5b80631ce9cb8f116105595780631ce9cb8f1461060757806324b0c04d1461062757806324ca984e1461063c57806325a9973f1461067b57806329ff96151461069b5780632c668ec1146106ae57600080fd5b80630842b076146105a15780630a48d5a9146105b8578063134ca63b146105cb578063181e210e146105d457806319041a1b146105f65780631a64a24e146105ff575b600080fd5b6011545b6040519081526020015b60405180910390f35b6105a56105c6366004615491565b610f24565b6105a5600b5481565b600d546105e690610100900460ff1681565b60405190151581526020016105af565b6105a560265481565b6105a5610f86565b6105a56106153660046154bb565b60236020526000908152604090205481565b61063a6106353660046154e4565b610fea565b005b61063a61064a3660046154bb565b336000908152600e602090815260408083206001600160a01b0394909416835292905220805460ff19166001179055565b6105a56106893660046154bb565b60196020526000908152604090205481565b6105a56106a93660046154bb565b611005565b6105a56106bc366004615491565b611014565b61063a6106cf3660046154e4565b6110c4565b6007546106e7906001600160a01b031681565b6040516001600160a01b0390911681526020016105af565b6001546105e690600160a81b900460ff1681565b6002546106e7906001600160a01b031681565b6105a5610734366004615501565b60276020526000908152604090205481565b6001546105e690600160a01b900460ff1681565b61063a610768366004615491565b6110ea565b61063a61077b36600461551a565b611142565b6001546105e690600160b01b900460ff1681565b6105a56107a236600461558a565b611286565b6105e66107b53660046154bb565b60156020526000908152604090205460ff1681565b61063a6107d83660046155c6565b6112e0565b61063a6107eb3660046155fd565b611313565b6108036107fe36600461565f565b611939565b604080519889526020890197909752958701949094526060860192909252608085015260a0840152151560c083015260e0820152610100016105af565b6105a561084e3660046154bb565b601e6020526000908152604090205481565b6108ab61086e366004615501565b6022602052600090815260409020805460018201546002830154600384015460048501546005860154600690960154949593949293919290919087565b604080519788526020880196909652948601939093526060850191909152608084015260a083015260c082015260e0016105af565b6105a56108ee36600461565f565b6119f2565b6105a56109013660046154bb565b60176020526000908152604090205481565b6105e66109213660046154bb565b600f6020526000908152604090205460ff1681565b6105a56109443660046154bb565b601c6020526000908152604090205481565b6105a56109643660046156b5565b611b67565b61063a6109773660046154bb565b611e02565b61098f61098a3660046156e8565b611e2c565b6040805192151583526020830191909152016105af565b61063a6109b43660046154bb565b611ffa565b6105a56109c73660046154bb565b612095565b6105e66109da3660046156b5565b600e60209081526000928352604080842090915290825290205460ff1681565b6105a560085481565b6105a5610a113660046154bb565b602a6020526000908152604090205481565b6003546106e7906001600160a01b031681565b61063a610a443660046154bb565b336000908152600e602090815260408083206001600160a01b0394909416835292905220805460ff19169055565b6105a5601a5481565b61063a610a893660046154bb565b6120f0565b61063a612124565b61063a610aa43660046154bb565b612138565b61063a610ab7366004615738565b612162565b6006546106e7906001600160a01b031681565b61063a610add3660046154e4565b612225565b6105a5610af03660046154bb565b61224b565b6105a5610b03366004615797565b6122d0565b61063a610b16366004615491565b612309565b6105a5610b293660046154bb565b60146020526000908152604090205481565b61063a610b49366004615811565b61232d565b6105a5610b5c3660046154bb565b60296020526000908152604090205481565b6001546001600160a01b03166106e7565b6105a5610b8d3660046154bb565b6124ae565b6105a5610ba03660046154bb565b60136020526000908152604090205481565b600d546105e69060ff1681565b6105a5610bcd36600461583d565b6124ee565b6105a5610be03660046154bb565b601b6020526000908152604090205481565b6105a5610c003660046154bb565b602b6020526000908152604090205481565b6105a560095481565b6105a5610c29366004615491565b6127d1565b6105a56127f1565b6105a5610c44366004615869565b612815565b6105a560255481565b6105a5610c60366004615491565b6128be565b61063a610c733660046155c6565b6128de565b6105a5610c863660046154bb565b612911565b6105a5610c993660046154bb565b60186020526000908152604090205481565b6105a5610cb93660046154bb565b612a10565b61098f610ccc3660046154bb565b612aa8565b61063a610cdf3660046154bb565b612b40565b6105a5610cf23660046154bb565b601d6020526000908152604090205481565b6105a5600a5481565b6105a5610d1b3660046154bb565b602080526000908152604090205481565b610803610d3a366004615501565b612b6a565b6105a5610d4d3660046154bb565b612c4b565b6105a560285481565b61063a610d6936600461589c565b612d9f565b6105a5610d7c3660046154bb565b60216020526000908152604090205481565b6105e6610d9c3660046154bb565b60126020526000908152604090205460ff1681565b6105e6610dbf3660046154bb565b60166020526000908152604090205460ff1681565b6105a5600c5481565b61063a610deb3660046158d8565b612dbb565b6105a5610dfe3660046154bb565b6133e9565b6004546106e7906001600160a01b031681565b6106e7610e24366004615501565b613431565b61063a610e373660046154bb565b61345b565b61063a610e4a366004615491565b613530565b6105a5610e5d3660046154bb565b601f6020526000908152604090205481565b61063a610e7d3660046154e4565b613554565b61063a610e903660046154bb565b613576565b6105a5610ea336600461589c565b6135ec565b6105e6610eb63660046154bb565b60106020526000908152604090205460ff1681565b6005546106e7906001600160a01b031681565b6105a5610eec366004615869565b6137ea565b61063a610eff3660046156b5565b613827565b6105a5610f123660046154bb565b60246020526000908152604090205481565b600081600003610f3657506000610f80565b6000610f418461224b565b6001600160a01b038516600090815260136020526040902054909150610f7b610f6b82600a615a39565b610f758685613964565b90613970565b925050505b92915050565b33600090815260106020526040812054610fa49060ff16603661397c565b6000610fc9602854610fc3602654602554613a0b90919063ffffffff16565b90613a0b565b9050610fe2602654602554613a0b90919063ffffffff16565b602855919050565b610ff2613a17565b600d805460ff1916911515919091179055565b6000610f80826105c684612a10565b600080611020846133e9565b905060006110a982610f75600360009054906101000a90046001600160a01b03166001600160a01b03166395082d256040518163ffffffff1660e01b8152600401602060405180830381865afa15801561107e573d6000803e3d6000fd5b505050506040513d601f19601f820116820180604052508101906110a29190615a45565b8790613964565b600754909150610f7b9082906001600160a01b031687611286565b6110cc613a17565b60018054911515600160a81b0260ff60a81b19909216919091179055565b6110f2613a17565b6001600160a01b0382166000908152601960205260409020548082111561112b57611126836111218484613a0b565b613a71565b505050565b611126836111398385613a0b565b613b0c565b5050565b61114a613a17565b6001600160a01b03871660009081526012602052604090205460ff166111c757600854611178906001613b73565b600855601180546001810182556000919091527f31ecc21a745e3968a04e9570e4425bc18fa8019c68028196b546d1669c200c680180546001600160a01b0319166001600160a01b0389161790555b600c546001600160a01b0388166000908152601860205260409020546111ee908290613a0b565b6001600160a01b03891660009081526012602090815260408083208054600160ff1991821617909155601383528184208c9055601883528184208b9055601483528184208a9055601b8352818420899055601583528184208054821689151517905560169092529091208054909116841515179055905061126f8187613b73565b600c5561127b886133e9565b505050505050505050565b6001600160a01b0382166000908152601360205260408120546112d6906112ae90600a615a39565b6001600160a01b038416600090815260136020526040902054610f75906110a290600a615a39565b90505b9392505050565b6112e8613a17565b6001600160a01b03919091166000908152600f60205260409020805460ff1916911515919091179055565b61131b613b7f565b60015461133390600160b01b900460ff16601c61397c565b61133c85613bd8565b611347848483613c32565b600354604051634eae147d60e11b81526001600160a01b0387811660048301528681166024830152858116604483015260648201859052831515608483015290911690639d5c28fa9060a40160006040518083038186803b1580156113ab57600080fd5b505afa1580156113bf573d6000803e3d6000fd5b505050506113cd8484613827565b600354604051633db1d51360e01b81526000916001600160a01b031690633db1d513906114069089908990899088908890600401615a5e565b602060405180830381865afa158015611423573d6000803e3d6000fd5b505050506040513d601f19601f820116820180604052508101906114479190615a45565b600081815260226020526040908190206003549151632339ab6b60e21b8152600481018490526001600160a01b038a81166024830152898116604483015288811660648301528615156084830152939450909290911690638ce6adac9060a401600060405180830381600087803b1580156114c157600080fd5b505af11580156114d5573d6000803e3d6000fd5b505050506000836114ee576114e98661224b565b6114f7565b6114f7866133e9565b825490915060000361150b57600282018190555b81541580159061151b5750600085115b156115ca5760035482546002840154600685015460405163db97495f60e01b81526001600160a01b038b811660048301526024820194909452604481019290925287151560648301526084820185905260a4820189905260c482015291169063db97495f9060e401602060405180830381865afa1580156115a0573d6000803e3d6000fd5b505050506040513d601f19601f820116820180604052508101906115c49190615a45565b60028301555b60006115e3898989888a88600001548960030154613d43565b905060006115f08961400a565b905060006115fe8a83610f24565b60018601549091506116109082613b73565b6001860181905561162590841115601d61397c565b60018501546116349084613a0b565b600186015560035460405163b1cc53ab60e01b81526001600160a01b038c811660048301528b8116602483015289151560448301529091169063b1cc53ab90606401602060405180830381865afa158015611693573d6000803e3d6000fd5b505050506040513d601f19601f820116820180604052508101906116b79190615a45565b600386015584546116c89089613b73565b8086554260068701556116de901515601e61397c565b6116f0856000015486600101546140ae565b60035460405163d54d5a9f60e01b81526001600160a01b039091169063d54d5a9f90611729908e908e908e908d90600190600401615a92565b6040805180830381865afa158015611745573d6000803e3d6000fd5b505050506040513d601f19601f820116820180604052508101906117699190615ac6565b505060006117778b8a6128be565b60048701549091506117899082613b73565b60048701556117988b826140d0565b87156117dd576117b18b6117ac8b87613b73565b614165565b6117bb8b836141d6565b6117c58b84614247565b6117d88b6117d38d876127d1565b61433e565b61184b565b6001600160a01b038a16600090815260296020526040812054900361181c576001600160a01b038a166000908152602a60205260409020859055611841565b6118278a868b612815565b6001600160a01b038b166000908152602a60205260409020555b61184b8a8a6143f3565b604080518881526001600160a01b038e811660208301528d8116828401528c1660608201526080810184905260a081018b905289151560c082015260e08101879052610100810186905290517f2fe68525253654c21998f35787a8d0f361905ef647c854092430ab65f2f15022918190036101200190a17f2eb7c17313e1f46140a2ebf982505929ae54772732eebfc655ab261c64f5048b878d886000015489600101548a600201548b600301548c600401548d600501548d60405161191999989796959493929190615aea565b60405180910390a1505050505050506119326001600055565b5050505050565b6000806000806000806000806119d3600360009054906101000a90046001600160a01b03166001600160a01b0316633db1d5138e8e8e8e60006040518663ffffffff1660e01b8152600401611992959493929190615a5e565b602060405180830381865afa1580156119af573d6000803e3d6000fd5b505050506040513d601f19601f82011682018060405250810190610d3a9190615a45565b9750975097509750975097509750975094995094995094999196509450565b600354604051633db1d51360e01b815260009182916001600160a01b0390911690633db1d51390611a2f9089908990899089908890600401615a5e565b602060405180830381865afa158015611a4c573d6000803e3d6000fd5b505050506040513d601f19601f82011682018060405250810190611a709190615a45565b600081815260226020908152604091829020825160e0810184528154815260018201549281018390526002820154938101939093526003810154606084015260048101546080840152600581015460a08401526006015460c083015291925090611add901515602561397c565b6020808201516003546040805163126082cf60e01b81529051611b5a94610f75936001600160a01b03169263126082cf92600480830193928290030181865afa158015611b2e573d6000803e3d6000fd5b505050506040513d601f19601f82011682018060405250810190611b529190615a45565b845190613964565b925050505b949350505050565b6000611b71613b7f565b33600090815260106020526040902054611b8f9060ff16603661397c565b6001600160a01b038316600090815260126020526040902054611bb69060ff16601061397c565b6000611bc18461400a565b9050611bd160008211601161397c565b611bdb8485613827565b6000611be68561224b565b90506000611c6e600360009054906101000a90046001600160a01b03166001600160a01b03166395082d256040518163ffffffff1660e01b8152600401602060405180830381865afa158015611c40573d6000803e3d6000fd5b505050506040513d601f19601f82011682018060405250810190611c649190615a45565b610f758585613964565b600754909150611c8a90829088906001600160a01b0316611286565b9050611c9a60008211601261397c565b600354604051630b0a151160e01b81526000916001600160a01b031690630b0a151190611ccd908a908690600401615b32565b602060405180830381865afa158015611cea573d6000803e3d6000fd5b505050506040513d601f19601f82011682018060405250810190611d0e9190615a45565b90506000611d1d8886846144a9565b90506000611da5600360009054906101000a90046001600160a01b03166001600160a01b03166395082d256040518163ffffffff1660e01b8152600401602060405180830381865afa158015611d77573d6000803e3d6000fd5b505050506040513d601f19601f82011682018060405250810190611d9b9190615a45565b610f758488613964565b600754909150611dc19082908b906001600160a01b0316611286565b9050611dcd8982613a71565b611dd78983614247565b601a54611de49082613b73565b601a55611df18882613a71565b95505050505050610f806001600055565b611e0a613a17565b600480546001600160a01b0319166001600160a01b0392909216919091179055565b600080611e3d60008611602661397c565b600084611e5257611e4d886133e9565b611e5b565b611e5b8861224b565b90506000818711611e7557611e708288613a0b565b611e7f565b611e7f8783613a0b565b90506000611e9188610f758b85613964565b905060008715611ea45750878311611ea9565b508288115b6000611f2c600360009054906101000a90046001600160a01b03166001600160a01b031663d9ac42256040518163ffffffff1660e01b8152600401602060405180830381865afa158015611f01573d6000803e3d6000fd5b505050506040513d601f19601f82011682018060405250810190611f259190615a45565b8990613b73565b4211611f50576001600160a01b038c16600090815260146020526040902054611f53565b60005b9050818015611fe05750611f678b82613964565b6003546040805163126082cf60e01b81529051611fdd926001600160a01b03169163126082cf9160048083019260209291908290030181865afa158015611fb2573d6000803e3d6000fd5b505050506040513d601f19601f82011682018060405250810190611fd69190615a45565b8590613964565b11155b15611fea57600092505b509a909950975050505050505050565b612002613b7f565b6001600160a01b0381166000908152601260205260409020546120299060ff16600e61397c565b60006120348261400a565b905061204460008211600f61397c565b61204e8282614247565b7fa5a389190ebf6170a133bda5c769b77f4d6715b8aa172ec0ddf8473d0b4944bd828260405161207f929190615b32565b60405180910390a1506120926001600055565b50565b6001600160a01b0381166000908152601c60205260408120546120b9576000610f80565b6001600160a01b0382166000908152601c6020908152604080832054601d90925290912054610f809190610f7590620f4240613964565b6120f8613a17565b600380546001600160a01b039092166001600160a01b0319928316811790915560028054909216179055565b61212c613a17565b61213660006146a4565b565b612140613a17565b600680546001600160a01b0319166001600160a01b0392909216919091179055565b61216a613a17565b600154600160a01b900460ff16156121b65760405162461bcd60e51b81526004016121ad906020808252600490820152634572723160e01b604082015260600190565b60405180910390fd5b6001805460ff60a01b1916600160a01b179055600580546001600160a01b039788166001600160a01b03199182161790915560078054968816968216871790556000958652601360205260409095206012905560068054949096169390941692909217909355600a55600b5550565b61222d613a17565b60018054911515600160b01b0260ff60b01b19909216919091179055565b6006546040516317e1d38560e11b81526001600160a01b0383811660048301526000602483018190526044830181905260648301819052921690632fc3a70a906084015b602060405180830381865afa1580156122ac573d6000803e3d6000fd5b505050506040513d601f19601f82011682018060405250810190610f809190615a45565b60006122da613b7f565b6122e388613bd8565b6122f2888888888888886146f6565b90506122fe6001600055565b979650505050505050565b612311613a17565b6001600160a01b039091166000908152601e6020526040902055565b612335613a17565b60035460408051630fce28c160e41b815290516123ae926001600160a01b03169163fce28c109160048083019260209291908290030181865afa158015612380573d6000803e3d6000fd5b505050506040513d601f19601f820116820180604052508101906123a49190615a45565b841015600a61397c565b6003546040805163451cb9ad60e11b81529051612427926001600160a01b031691638a39735a9160048083019260209291908290030181865afa1580156123f9573d6000803e3d6000fd5b505050506040513d601f19601f8201168201806040525081019061241d9190615a45565b831115600b61397c565b6003546040805163451cb9ad60e11b815290516124a0926001600160a01b031691638a39735a9160048083019260209291908290030181865afa158015612472573d6000803e3d6000fd5b505050506040513d601f19601f820116820180604052508101906124969190615a45565b821115600c61397c565b600992909255600a55600b55565b601a546000908082036124c45750600092915050565b6001600160a01b038316600090815260186020526040902054600c54611b5f90610f758385613964565b60006124f8613b7f565b60015461251090600160a81b900460ff16601761397c565b6001600160a01b0384166000908152601260205260409020546125379060ff16601861397c565b6001600160a01b03831660009081526012602052604090205461255e9060ff16601961397c565b61257e836001600160a01b0316856001600160a01b03161415601a61397c565b6125888485613827565b6125928384613827565b600061259d8561400a565b90506125ad60008211601b61397c565b60006125b88661224b565b905060006125c5866133e9565b905060006125d782610f758686613964565b90506125e4818989611286565b9050600061266c600360009054906101000a90046001600160a01b03166001600160a01b03166395082d256040518163ffffffff1660e01b8152600401602060405180830381865afa15801561263e573d6000803e3d6000fd5b505050506040513d601f19601f820116820180604052508101906126629190615a45565b610f758787613964565b6007549091506126889082908b906001600160a01b0316611286565b600354604051636d099c0b60e11b81526001600160a01b038c811660048301528b81166024830152604482018490529293506000929091169063da13381690606401602060405180830381865afa1580156126e7573d6000803e3d6000fd5b505050506040513d601f19601f8201168201806040525081019061270b9190615a45565b9050600061271a8a85846144a9565b90506127268b84613a71565b6127308a84613b0c565b61273a8b88614247565b6127448a8561433e565b61274d8a614d5a565b6127588a828b614dc5565b604080516001600160a01b038b811682528d811660208301528c1681830152606081018990526080810186905260a0810183905260c0810184905290517f0874b2d545cb271cdbda4e093020c452328b24af12382ed62c4d00f5c26709db9181900360e00190a196505050505050506112d96001600055565b6000816000036127e357506000610f80565b6112d98383610eec866133e9565b6000612810602854610fc3602654602554613a0b90919063ffffffff16565b905090565b6001600160a01b038316600090815260296020908152604080832054602a909252822054828582116128505761284b8683613a0b565b61285a565b61285a8287613a0b565b9050600061286c83610f758685613964565b9050868311600061287d8689613b73565b9050600082612895576128908285613b73565b61289f565b61289f8285613a0b565b90506128af81610f758c85613964565b9b9a5050505050505050505050565b6000816000036128d057506000610f80565b6112d98383610eec8661224b565b6128e6613a17565b6001600160a01b03919091166000908152601060205260409020805460ff1916911515919091179055565b6009546001600160a01b0382166000908152602160205260408120549091429161293a91613b73565b111561294857506000919050565b6009546001600160a01b038316600090815260216020526040812054909161297591610f75904290613a0b565b6001600160a01b0384166000908152601c60205260408120549192508190036129a2575060009392505050565b6001600160a01b03841660009081526015602052604081205460ff166129ca57600a546129ce565b600b545b6001600160a01b0386166000908152601d6020526040902054909150612a07908390610f75908690612a01908690613964565b90613964565b95945050505050565b6001600160a01b03811660009081526015602052604081205460ff1615612a4d57506001600160a01b03166000908152601c602052604090205490565b6001600160a01b0382166000908152601f6020526040812054612a719084906127d1565b6001600160a01b0384166000908152601d6020908152604080832054601c909252909120549192506112d991610fc3908490613b73565b6001600160a01b0381166000908152602960205260408120548190808203612ad65750600093849350915050565b6000612ae1856133e9565b6001600160a01b0386166000908152602a6020526040812054919250828211612b1357612b0e8383613a0b565b612b1d565b612b1d8284613a0b565b90506000612b2f83610f758785613964565b939092119792965091945050505050565b612b48613a17565b600580546001600160a01b0319166001600160a01b0392909216919091179055565b6000806000806000806000806000602260008b81526020019081526020016000206040518060e001604052908160008201548152602001600182015481526020016002820154815260200160038201548152602001600482015481526020016005820154815260200160068201548152505090506000808260a0015113612bfe578160a00151612bf990615b4b565b612c04565b8160a001515b9050816000015182602001518360400151846060015185608001518560008860a0015112158860c00151995099509950995099509950995099505050919395975091939597565b6000612c55613b7f565b33600090815260106020526040902054612c739060ff16603661397c565b6001600160a01b03821660009081526012602052604090205460ff16612c9b57506000612d90565b6001600160a01b038216600090815260126020526040902054612cc29060ff16601361397c565b6001600160a01b0382166000908152602460209081526040808320546023909252909120541015612d285760405162461bcd60e51b815260206004820152601060248201526f696e73756666696369656e742046656560801b60448201526064016121ad565b6001600160a01b0382166000908152602460209081526040808320546023909252822054612d5591613a0b565b6001600160a01b03841660009081526023602090815260408083205460249092529091205590508015612d8d57612d8d838233614dc5565b90505b612d9a6001600055565b919050565b612da7613a17565b6111266001600160a01b0383168483614e62565b612dc3613b7f565b600d54610100900460ff1615612df157336000908152600f6020526040902054612df19060ff16602261397c565b612dfb8484613827565b600354604051633db1d51360e01b81526000916001600160a01b031690633db1d51390612e349089908990899089908890600401615a5e565b602060405180830381865afa158015612e51573d6000803e3d6000fd5b505050506040513d601f19601f82011682018060405250810190612e759190615a45565b600081815260226020908152604091829020825160e08101845281548082526001830154938201939093526002820154938101939093526003810154606084015260048101546080840152600581015460a08401526006015460c083015291925090612ee4901515602361397c565b60035460405163d54d5a9f60e01b815260009182916001600160a01b039091169063d54d5a9f90612f21908c908c908c908c908890600401615a92565b6040805180830381865afa158015612f3d573d6000803e3d6000fd5b505050506040513d601f19601f82011682018060405250810190612f619190615ac6565b91509150612f748260001415602461397c565b81600203612f9a57612f90898989600087600001518b8f6146f6565b50505050506133df565b6000612fa689836127d1565b6001600160a01b038a16600090815260236020526040902054909150612fcc9082613b73565b6001600160a01b038a16600090815260236020526040902055602554612ff29083613b73565b602555600480546040516394be719760e01b81526000926001600160a01b03909216916394be719791613029918f91889101615b32565b6020604051808303816000875af1158015613048573d6000803e3d6000fd5b505050506040513d601f19601f8201168201806040525081019061306c9190615a45565b60265490915061307c9082613b73565b602655600061308e4262015180613970565b6000818152602760205260409020549091506130aa9085613b73565b6000828152602760209081526040918290209290925580516001600160a01b038e16815291820186905281018490527f5d0c0019d3d45fadeb74eff9d2c9924d146d000ac6bcf3c28bf0ac3c9baa011a9060600160405180910390a16131148b8760800151614eb8565b88156131435760208601518651613135918d9161313091613a0b565b6141d6565b6131438b6117d38d876127d1565b600089613158576131538b6133e9565b613161565b6131618b61224b565b90507f2e1f85a64a2f22cf2f0c42584e7c919ed4abe8d53675cff0f62bf1e95a1c676f888e8e8e8e8c600001518d602001518e608001518f60a001518a6040516132039a99989796959493929190998a526001600160a01b0398891660208b015296881660408a0152949096166060880152911515608087015260a086015260c085015260e08401929092526101008301919091526101208201526101400190565b60405180910390a18915801561321c5750866020015185105b1561324a5760208701516000906132339087613a0b565b90506132488d6132438f846127d1565b614247565b505b8961325d5761325d8b8860000151614f61565b6000888152602260205260408082208281556001810183905560028101839055600380820184905560048083018590556005830185905560069092019390935591549051634c89b68d60e01b81529182018a90526001600160a01b031690634c89b68d90602401600060405180830381600087803b1580156132de57600080fd5b505af11580156132f2573d6000803e3d6000fd5b505050506133758c6117d38e600360009054906101000a90046001600160a01b03166001600160a01b031663174d26946040518163ffffffff1660e01b8152600401602060405180830381865afa158015613351573d6000803e3d6000fd5b505050506040513d601f19601f82011682018060405250810190610c299190615a45565b6133d68c6133d08e600360009054906101000a90046001600160a01b03166001600160a01b031663174d26946040518163ffffffff1660e01b8152600401602060405180830381865afa158015613351573d6000803e3d6000fd5b8b614dc5565b50505050505050505b6119326001600055565b6006546040516317e1d38560e11b81526001600160a01b0383811660048301526001602483015260006044830181905260648301819052921690632fc3a70a9060840161228f565b6011818154811061344157600080fd5b6000918252602090912001546001600160a01b0316905081565b613463613a17565b6001600160a01b03811660009081526012602052604090205461348a9060ff16600d61397c565b6001600160a01b038116600090815260186020526040902054600c546134af91613a0b565b600c556001600160a01b0381166000908152601260209081526040808320805460ff19908116909155601383528184208490556018835281842084905560148352818420849055601b83528184208490556015835281842080548216905560169092529091208054909116905560085461352a906001613a0b565b60085550565b613538613a17565b6001600160a01b039091166000908152602b6020526040902055565b61355c613a17565b600d80549115156101000261ff0019909216919091179055565b61357e613a17565b6001600160a01b0381166135e35760405162461bcd60e51b815260206004820152602660248201527f4f776e61626c653a206e6577206f776e657220697320746865207a65726f206160448201526564647265737360d01b60648201526084016121ad565b612092816146a4565b60006135f6613b7f565b336000908152601060205260409020546136149060ff16603661397c565b6001600160a01b03841660009081526012602052604090205461363b9060ff16601361397c565b33600090815260196020526040902054821061368c5760405162461bcd60e51b815260206004820152601060248201526f1a5b9cdd59999a58da595b9d081d5cd960821b60448201526064016121ad565b8161369a811515601461397c565b6136a48586613827565b60006136b08683611014565b90506136c060008211601561397c565b6136ca8683613b0c565b6136d4868261433e565b81601a54116136e45760006136f1565b601a546136f19083613a0b565b601a5533600090815260196020526040902054841061371157600061372b565b3360009081526019602052604090205461372b9085613a0b565b33600090815260196020526040808220929092556003549151635baebcb160e11b815290916001600160a01b03169063b75d796290613770908a908790600401615b32565b602060405180830381865afa15801561378d573d6000803e3d6000fd5b505050506040513d601f19601f820116820180604052508101906137b19190615a45565b905060006137c08884846144a9565b90506137d060008211601661397c565b6137db888289614dc5565b93505050506112d96001600055565b6000826000036137fc575060006112d9565b6001600160a01b038416600090815260136020526040902054612a0783610f756110a284600a615a39565b6001600160a01b03821660009081526021602052604081205490036138775760095461385790612a014282613970565b6001600160a01b0390921660009081526021602052604090209190915550565b6009546001600160a01b038316600090815260216020526040902054429161389f9190613b73565b11156138a9575050565b60006138b483612911565b6001600160a01b03841660009081526020805260409020549091506138d99082613b73565b6001600160a01b038416600090815260208052604090205560095461390290612a014282613970565b6001600160a01b03841660009081526021602090815260408083209390935580528190205490517fa146fc154e1913322e9817d49f0d5c37466c24326e15de10e739a948be815eab9161395791869190615b32565b60405180910390a1505050565b60006112d98284615b67565b60006112d98284615b86565b600354604051637f68d30360e11b81526004810183905283916001600160a01b03169063fed1a60690602401600060405180830381865afa1580156139c5573d6000803e3d6000fd5b505050506040513d6000823e601f3d908101601f191682016040526139ed9190810190615be2565b906111265760405162461bcd60e51b81526004016121ad9190615c84565b60006112d98284615cb7565b6001546001600160a01b031633146121365760405162461bcd60e51b815260206004820181905260248201527f4f776e61626c653a2063616c6c6572206973206e6f7420746865206f776e657260448201526064016121ad565b6001600160a01b038216600090815260196020526040902054613a949082613b73565b6001600160a01b038316600090815260196020908152604080832093909355601b905220548015801590613ae057506001600160a01b03831660009081526012602052604090205460ff165b15611126576001600160a01b03831660009081526019602052604090205461112690821015603361397c565b6001600160a01b038216600090815260196020526040902054818111613b485750506001600160a01b0316600090815260196020526040812055565b613b528183613a0b565b6001600160a01b039093166000908152601960205260409020929092555050565b60006112d98284615cca565b600260005403613bd15760405162461bcd60e51b815260206004820152601f60248201527f5265656e7472616e637947756172643a207265656e7472616e742063616c6c0060448201526064016121ad565b6002600055565b6001600160a01b0381163303613beb5750565b6005546001600160a01b03163303613c005750565b6001600160a01b0381166000908152600e602090815260408083203384529091529020546120929060ff16602961397c565b6001600160a01b038316600090815260126020526040902054613c599060ff16602b61397c565b6001600160a01b038216600090815260126020526040902054613c809060ff16602d61397c565b8015613ccd57613ca5826001600160a01b0316846001600160a01b031614602a61397c565b6001600160a01b0383166000908152601560205260409020546111269060ff1615602c61397c565b6001600160a01b038316600090815260156020526040902054613cf49060ff16602e61397c565b6001600160a01b038216600090815260156020526040902054613d1c9060ff1615602f61397c565b6001600160a01b0382166000908152601660205260409020546111269060ff16603061397c565b60035460405163fdaf6ac360e01b815260009182916001600160a01b039091169063fdaf6ac390613d80908c908c908c908c908c90600401615a5e565b602060405180830381865afa158015613d9d573d6000803e3d6000fd5b505050506040513d601f19601f82011682018060405250810190613dc19190615a45565b60035460405163369d949360e21b81526001600160a01b038c811660048301528b811660248301528a8116604483015289151560648301526084820188905260a482018790529293506000929091169063da76524c9060c401602060405180830381865afa158015613e37573d6000803e3d6000fd5b505050506040513d601f19601f82011682018060405250810190613e5b9190615a45565b9050613e678282613b73565b9150816000613e768b836127d1565b6001600160a01b038c16600090815260236020526040902054909150613e9c9082613b73565b6001600160a01b038c16600090815260236020526040902055602554613ec29083613b73565b6025819055506000600460009054906101000a90046001600160a01b03166001600160a01b03166394be71978e856040518363ffffffff1660e01b8152600401613f0d929190615b32565b6020604051808303816000875af1158015613f2c573d6000803e3d6000fd5b505050506040513d601f19601f82011682018060405250810190613f509190615a45565b602654909150613f609082613b73565b6026556000613f724262015180613970565b600081815260276020526040902054909150613f8e9085613b73565b6000828152602760205260409081902091909155517f5d0c0019d3d45fadeb74eff9d2c9924d146d000ac6bcf3c28bf0ac3c9baa011a90613ff0908f90879087906001600160a01b039390931683526020830191909152604082015260600190565b60405180910390a150919c9b505050505050505050505050565b6001600160a01b0381166000818152601760205260408082205490516370a0823160e01b8152306004820152919290918391906370a0823190602401602060405180830381865afa158015614063573d6000803e3d6000fd5b505050506040513d601f19601f820116820180604052508101906140879190615a45565b6001600160a01b03851660009081526017602052604090208190559050611b5f8183613a0b565b816000036140c25761113e8115602761397c565b61113e81831015602861397c565b6001600160a01b0382166000908152601d60205260409020546140f39082613b73565b6001600160a01b0383166000908152601d60208181526040808420859055601c8252909220549152614128911115603461397c565b7faa5649d82f5462be9d19b0f2b31a59b2259950a6076550bac9f3a1c07db9f66d8282604051614159929190615b32565b60405180910390a15050565b6001600160a01b0382166000908152601f60205260409020546141889082613b73565b6001600160a01b0383166000908152601f60205260409081902091909155517fd9d4761f75e0d0103b5cbeab941eeb443d7a56a35b5baf2a0787c03f03f4e474906141599084908490615b32565b6001600160a01b0382166000908152601f60205260409020546141f99082613a0b565b6001600160a01b0383166000908152601f60205260409081902091909155517f34e07158b9db50df5613e591c44ea2ebc82834eff4a4dc3a46e000e608261d68906141599084908490615b32565b6001600160a01b0382166000908152601c602052604090205461426a9082613b73565b6001600160a01b0383166000818152601c60205260408082209390935591516370a0823160e01b81523060048201526370a0823190602401602060405180830381865afa1580156142bf573d6000803e3d6000fd5b505050506040513d601f19601f820116820180604052508101906142e39190615a45565b6001600160a01b0384166000908152601c602052604090205490915061430d90821015603161397c565b7f976177fbe09a15e5e43f848844963a42b41ef919ef17ff21a17a5421de8f47378383604051613957929190615b32565b6040805180820182526013815272141bdbdb105b5bdd5b9d08195e18d959591959606a1b6020808301919091526001600160a01b0385166000908152601c909152919091205461438f918390614fc9565b6001600160a01b0383166000908152601c60209081526040808320849055601d9091529020546143c2911015603261397c565b7f112726233fbeaeed0f5b1dba5cb0b2b81883dee49fb35ff99fd98ed9f6d31eb08282604051614159929190615b32565b6001600160a01b0382166000908152602960205260409020546144169082613b73565b6001600160a01b038316600090815260296020908152604080832093909355602b905220548015611126576001600160a01b0383166000908152602960205260409020548110156111265760405162461bcd60e51b815260206004820152601a60248201527f5661756c743a206d61782073686f72747320657863656564656400000000000060448201526064016121ad565b6000806145a4600360009054906101000a90046001600160a01b03166001600160a01b031663126082cf6040518163ffffffff1660e01b8152600401602060405180830381865afa158015614502573d6000803e3d6000fd5b505050506040513d601f19601f820116820180604052508101906145269190615a45565b610f756110a286600360009054906101000a90046001600160a01b03166001600160a01b031663126082cf6040518163ffffffff1660e01b8152600401602060405180830381865afa158015614580573d6000803e3d6000fd5b505050506040513d601f19601f82011682018060405250810190610fc39190615a45565b905060006145b28583613a0b565b6001600160a01b0387166000908152602360205260409020549091506145d89082613b73565b6001600160a01b0387166000908152602360205260408120919091556145fe8783610f24565b60255490915061460e9082613b73565b60255560006146204262015180613970565b60008181526027602052604090205490915061463c9083613b73565b6000828152602760209081526040918290209290925580516001600160a01b038b16815291820184905281018490527f47cd9dda0e50ce30bcaaacd0488452b596221c07ac402a581cfae4d3933cac2b9060600160405180910390a150919695505050505050565b600180546001600160a01b038381166001600160a01b0319831681179093556040519116919082907f8be0079c531659141344cd1fd0a4f28419497f9722a3daafe3b4186f6b6457e090600090a35050565b6003546040516381d11a2360e01b81526001600160a01b03898116600483015288811660248301528781166044830152606482018790526084820186905284151560a483015283811660c483015260009216906381d11a239060e40160006040518083038186803b15801561476a57600080fd5b505afa15801561477e573d6000803e3d6000fd5b5050505061478c8787613827565b600354604051633db1d51360e01b81526000916001600160a01b031690633db1d513906147c5908c908c908c908a908890600401615a5e565b602060405180830381865afa1580156147e2573d6000803e3d6000fd5b505050506040513d601f19601f820116820180604052508101906148069190615a45565b6000818152602260205260409020805491925090614827901515601f61397c565b6148398682600001541015602061397c565b61484b8782600101541015602161397c565b60018101548154600483015460009161486891610f75908b613964565b600484015490915061487a9082613a0b565b60048401556148898b82614eb8565b5060008061489b8d8d8d8d8d8d614ff5565b915091506000886148b4576148af8c6133e9565b6148bd565b6148bd8c61224b565b90507fd557aa26ee10d073319db73bfc2cd0983fe7e7613899f4bc9973ad546bd1d1a1868f8f8f8f8f8f886148f28c8c613a0b565b60018f0154604080519a8b526001600160a01b03998a1660208c0152978916978a0197909752969094166060880152608087019290925260a0860152151560c085015260e0840152610100830191909152610120820186905261014082015261016081018690526101800160405180910390a184548a14614b295760035460405163b1cc53ab60e01b81526001600160a01b038f811660048301528e811660248301528b151560448301529091169063b1cc53ab90606401602060405180830381865afa1580156149c7573d6000803e3d6000fd5b505050506040513d601f19601f820116820180604052508101906149eb9190615a45565b600386015584546149fc908b613a0b565b8086556001860154614a0e91906140ae565b600360009054906101000a90046001600160a01b03166001600160a01b031663d54d5a9f8f8f8f8d60016040518663ffffffff1660e01b8152600401614a58959493929190615a92565b6040805180830381865afa158015614a74573d6000803e3d6000fd5b505050506040513d601f19601f82011682018060405250810190614a989190615ac6565b50508815614ac557614abb8d6117ac876001015487613a0b90919063ffffffff16565b614ac58d8b6141d6565b7f2eb7c17313e1f46140a2ebf982505929ae54772732eebfc655ab261c64f5048b868f8760000154886001015489600201548a600301548b600401548c6005015489604051614b1c99989796959493929190615aea565b60405180910390a1614c74565b8815614b4357614b398d85614165565b614b438d8b6141d6565b7f25a28828914fd9504b83db57408801f8f438fb797e6da3678def429ef49f3c9c868f8760000154886001015489600201548a600301548b600401548c60050154604051614bd29897969594939291909788526001600160a01b0396909616602088015260408701949094526060860192909252608085015260a084015260c083015260e08201526101000190565b60405180910390a16000868152602260205260408082208281556001810183905560028101839055600380820184905560048083018590556005830185905560069092019390935591549051634c89b68d60e01b81529182018890526001600160a01b031690634c89b68d90602401600060405180830381600087803b158015614c5b57600080fd5b505af1158015614c6f573d6000803e3d6000fd5b505050505b5087614c8457614c848b8a614f61565b8115614cfe5760008815614ca057614ca08d6117d38f866127d1565b614caa8d836127d1565b60408051888152602081018390529192507fcb47ed79884d6fe69c222f6cb416c2d3923ea248ce73da6b36dab69d20681a9b910160405180910390a1614cf18d828a614dc5565b95506122fe945050505050565b604080518681526001600160a01b03891660208201529081018a90527f1f681ccd8e63e0b19f06c9ca91127ccad4389d83d2ae6a9fd7d9b9d7ae1c8cb19060600160405180910390a15060009c9b505050505050505050505050565b6001600160a01b0381166000908152601e6020908152604080832054601c9092529091205410156120925760405162461bcd60e51b81526020600482015260156024820152743837b7b6103632b9b9903a3430b710313ab33332b960591b60448201526064016121ad565b614dd96001600160a01b0384168284614e62565b6040516370a0823160e01b81523060048201526001600160a01b038416906370a0823190602401602060405180830381865afa158015614e1d573d6000803e3d6000fd5b505050506040513d601f19601f82011682018060405250810190614e419190615a45565b6001600160a01b039093166000908152601760205260409020929092555050565b6111268363a9059cbb60e01b8484604051602401614e81929190615b32565b60408051601f198184030181529190526020810180516001600160e01b03166001600160e01b031990931692909217909152615295565b604080518082018252601b81527f5661756c743a20696e73756666696369656e74207265736572766500000000006020808301919091526001600160a01b0385166000908152601d9091529190912054614f13918390614fc9565b6001600160a01b0383166000908152601d60205260409081902091909155517f533cb5ed32be6a90284e96b5747a1bfc2d38fdb5768a6b5f67ff7d62144ed67b906141599084908490615b32565b6001600160a01b03821660009081526029602052604090205480821115614f9e5750506001600160a01b0316600090815260296020526040812055565b614fa88183613a0b565b6001600160a01b039093166000908152602960205260409020929092555050565b60008184841115614fed5760405162461bcd60e51b81526004016121ad9190615c84565b505050900390565b600354604051633db1d51360e01b8152600091829182916001600160a01b031690633db1d51390615032908c908c908c908a908890600401615a5e565b602060405180830381865afa15801561504f573d6000803e3d6000fd5b505050506040513d601f19601f820116820180604052508101906150739190615a45565b60008181526022602052604081208054600382015493945090926150a0918d918d918d918b918d91613d43565b90506000806000806150c18d876000015488600201548d8a60060154611e2c565b875491955085935091506150d990610f758d84613964565b9250505060008280156150ec5750600082115b15615128578190508185600501546151049190615cdd565b60058601558861512857600061511a8e846127d1565b90506151268e8261433e565b505b821580156151365750600082115b1561518457600185015461514a9083613a0b565b60018601558861516e5760006151608e846127d1565b905061516c8e82614247565b505b81856005015461517e9190615d05565b60058601555b8a156151ac57615194818c613b73565b60018601549091506151a6908c613a0b565b60018601555b84548a90036151cf5760018501546151c5908290613b73565b6000600187015590505b80848111156151e9576151e28286613a0b565b905061521d565b60018601546151f89086613a0b565b6001870155891561521d57600061520f8f876127d1565b905061521b8f8261433e565b505b85546001870154604080518a815287151560208201529081018690526060810192909252608082015260a0810183905260c081018290527ff22329dd52d57b37634ad87c69e7205470286dcba38c1eebf07baaaf90a185019060e00160405180910390a1909e909d509b505050505050505050505050565b60006152ea826040518060400160405280602081526020017f5361666545524332303a206c6f772d6c6576656c2063616c6c206661696c6564815250856001600160a01b03166153679092919063ffffffff16565b80519091501561112657808060200190518101906153089190615d2c565b6111265760405162461bcd60e51b815260206004820152602a60248201527f5361666545524332303a204552433230206f7065726174696f6e20646964206e6044820152691bdd081cdd58d8d9595960b21b60648201526084016121ad565b60606112d6848460008585600080866001600160a01b0316858760405161538e9190615d49565b60006040518083038185875af1925050503d80600081146153cb576040519150601f19603f3d011682016040523d82523d6000602084013e6153d0565b606091505b5091509150611b5a878383876060831561544b578251600003615444576001600160a01b0385163b6154445760405162461bcd60e51b815260206004820152601d60248201527f416464726573733a2063616c6c20746f206e6f6e2d636f6e747261637400000060448201526064016121ad565b5081611b5f565b611b5f83838151156154605781518083602001fd5b8060405162461bcd60e51b81526004016121ad9190615c84565b80356001600160a01b0381168114612d9a57600080fd5b600080604083850312156154a457600080fd5b6154ad8361547a565b946020939093013593505050565b6000602082840312156154cd57600080fd5b6112d98261547a565b801515811461209257600080fd5b6000602082840312156154f657600080fd5b81356112d9816154d6565b60006020828403121561551357600080fd5b5035919050565b600080600080600080600060e0888a03121561553557600080fd5b61553e8861547a565b96506020880135955060408801359450606088013593506080880135925060a088013561556a816154d6565b915060c088013561557a816154d6565b8091505092959891949750929550565b60008060006060848603121561559f57600080fd5b833592506155af6020850161547a565b91506155bd6040850161547a565b90509250925092565b600080604083850312156155d957600080fd5b6155e28361547a565b915060208301356155f2816154d6565b809150509250929050565b600080600080600060a0868803121561561557600080fd5b61561e8661547a565b945061562c6020870161547a565b935061563a6040870161547a565b9250606086013591506080860135615651816154d6565b809150509295509295909350565b6000806000806080858703121561567557600080fd5b61567e8561547a565b935061568c6020860161547a565b925061569a6040860161547a565b915060608501356156aa816154d6565b939692955090935050565b600080604083850312156156c857600080fd5b6156d18361547a565b91506156df6020840161547a565b90509250929050565b600080600080600060a0868803121561570057600080fd5b6157098661547a565b945060208601359350604086013592506060860135615727816154d6565b949793965091946080013592915050565b60008060008060008060c0878903121561575157600080fd5b61575a8761547a565b95506157686020880161547a565b94506157766040880161547a565b9350606087013592506080870135915060a087013590509295509295509295565b600080600080600080600060e0888a0312156157b257600080fd5b6157bb8861547a565b96506157c96020890161547a565b95506157d76040890161547a565b9450606088013593506080880135925060a08801356157f5816154d6565b915061580360c0890161547a565b905092959891949750929550565b60008060006060848603121561582657600080fd5b505081359360208301359350604090920135919050565b60008060006060848603121561585257600080fd5b61585b8461547a565b92506155af6020850161547a565b60008060006060848603121561587e57600080fd5b6158878461547a565b95602085013595506040909401359392505050565b6000806000606084860312156158b157600080fd5b6158ba8461547a565b92506158c86020850161547a565b9150604084013590509250925092565b600080600080600060a086880312156158f057600080fd5b6158f98661547a565b94506159076020870161547a565b93506159156040870161547a565b92506060860135615925816154d6565b91506159336080870161547a565b90509295509295909350565b634e487b7160e01b600052601160045260246000fd5b600181815b808511156159905781600019048211156159765761597661593f565b8085161561598357918102915b93841c939080029061595a565b509250929050565b6000826159a757506001610f80565b816159b457506000610f80565b81600181146159ca57600281146159d4576159f0565b6001915050610f80565b60ff8411156159e5576159e561593f565b50506001821b610f80565b5060208310610133831016604e8410600b8410161715615a13575081810a610f80565b615a1d8383615955565b8060001904821115615a3157615a3161593f565b029392505050565b60006112d98383615998565b600060208284031215615a5757600080fd5b5051919050565b6001600160a01b03958616815293851660208501529190931660408301529115156060820152608081019190915260a00190565b6001600160a01b03958616815293851660208501529190931660408301529115156060820152901515608082015260a00190565b60008060408385031215615ad957600080fd5b505080516020909101519092909150565b9889526001600160a01b0397909716602089015260408801959095526060870193909352608086019190915260a085015260c084015260e08301526101008201526101200190565b6001600160a01b03929092168252602082015260400190565b6000600160ff1b8201615b6057615b6061593f565b5060000390565b6000816000190483118215151615615b8157615b8161593f565b500290565b600082615ba357634e487b7160e01b600052601260045260246000fd5b500490565b634e487b7160e01b600052604160045260246000fd5b60005b83811015615bd9578181015183820152602001615bc1565b50506000910152565b600060208284031215615bf457600080fd5b815167ffffffffffffffff80821115615c0c57600080fd5b818401915084601f830112615c2057600080fd5b815181811115615c3257615c32615ba8565b604051601f8201601f19908116603f01168101908382118183101715615c5a57615c5a615ba8565b81604052828152876020848701011115615c7357600080fd5b6122fe836020830160208801615bbe565b6020815260008251806020840152615ca3816040850160208701615bbe565b601f01601f19169190910160400192915050565b81810381811115610f8057610f8061593f565b80820180821115610f8057610f8061593f565b8082018281126000831280158216821582161715615cfd57615cfd61593f565b505092915050565b8181036000831280158383131683831282161715615d2557615d2561593f565b5092915050565b600060208284031215615d3e57600080fd5b81516112d9816154d6565b60008251615d5b818460208701615bbe565b919091019291505056fea2646970667358221220383d8f8478ad1376a3ba257f7488bce7c5eddcb8eb19df04d165ca1fd53e25e464736f6c63430008100033",
  "linkReferences": {},
  "deployedLinkReferences": {}
}